{
  "_format": "hh-sol-artifact-1",
  "contractName": "AuctionHouse",
  "sourceName": "contracts/AuctionHouse.sol",
  "abi": [
    {
      "anonymous": false,
      "inputs": [
        {
          "indexed": true,
          "internalType": "uint256",
          "name": "nounId",
          "type": "uint256"
        },
        {
          "indexed": false,
          "internalType": "address",
          "name": "sender",
          "type": "address"
        },
        {
          "indexed": false,
          "internalType": "uint256",
          "name": "value",
          "type": "uint256"
        },
        {
          "indexed": false,
          "internalType": "bool",
          "name": "extended",
          "type": "bool"
        }
      ],
      "name": "AuctionBid",
      "type": "event"
    },
    {
      "anonymous": false,
      "inputs": [
        {
          "indexed": true,
          "internalType": "uint256",
          "name": "nounId",
          "type": "uint256"
        },
        {
          "indexed": false,
          "internalType": "uint256",
          "name": "startTime",
          "type": "uint256"
        },
        {
          "indexed": false,
          "internalType": "uint256",
          "name": "endTime",
          "type": "uint256"
        }
      ],
      "name": "AuctionCreated",
      "type": "event"
    },
    {
      "anonymous": false,
      "inputs": [
        {
          "indexed": true,
          "internalType": "uint256",
          "name": "nounId",
          "type": "uint256"
        },
        {
          "indexed": false,
          "internalType": "uint256",
          "name": "endTime",
          "type": "uint256"
        }
      ],
      "name": "AuctionExtended",
      "type": "event"
    },
    {
      "anonymous": false,
      "inputs": [
        {
          "indexed": false,
          "internalType": "uint256",
          "name": "minBidIncrementPercentage",
          "type": "uint256"
        }
      ],
      "name": "AuctionMinBidIncrementPercentageUpdated",
      "type": "event"
    },
    {
      "anonymous": false,
      "inputs": [
        {
          "indexed": false,
          "internalType": "uint256",
          "name": "reservePrice",
          "type": "uint256"
        }
      ],
      "name": "AuctionReservePriceUpdated",
      "type": "event"
    },
    {
      "anonymous": false,
      "inputs": [
        {
          "indexed": true,
          "internalType": "uint256",
          "name": "nounId",
          "type": "uint256"
        },
        {
          "indexed": false,
          "internalType": "address",
          "name": "winner",
          "type": "address"
        },
        {
          "indexed": false,
          "internalType": "uint256",
          "name": "amount",
          "type": "uint256"
        }
      ],
      "name": "AuctionSettled",
      "type": "event"
    },
    {
      "anonymous": false,
      "inputs": [
        {
          "indexed": false,
          "internalType": "uint256",
          "name": "timeBuffer",
          "type": "uint256"
        }
      ],
      "name": "AuctionTimeBufferUpdated",
      "type": "event"
    },
    {
      "anonymous": false,
      "inputs": [
        {
          "indexed": false,
          "internalType": "uint8",
          "name": "version",
          "type": "uint8"
        }
      ],
      "name": "Initialized",
      "type": "event"
    },
    {
      "anonymous": false,
      "inputs": [
        {
          "indexed": true,
          "internalType": "address",
          "name": "previousOwner",
          "type": "address"
        },
        {
          "indexed": true,
          "internalType": "address",
          "name": "newOwner",
          "type": "address"
        }
      ],
      "name": "OwnershipTransferred",
      "type": "event"
    },
    {
      "anonymous": false,
      "inputs": [
        {
          "indexed": false,
          "internalType": "address",
          "name": "account",
          "type": "address"
        }
      ],
      "name": "Paused",
      "type": "event"
    },
    {
      "anonymous": false,
      "inputs": [
        {
          "indexed": false,
          "internalType": "address",
          "name": "account",
          "type": "address"
        }
      ],
      "name": "Unpaused",
      "type": "event"
    },
    {
      "inputs": [],
      "name": "auction",
      "outputs": [
        {
          "internalType": "uint256",
          "name": "nounId",
          "type": "uint256"
        },
        {
          "internalType": "uint256",
          "name": "amount",
          "type": "uint256"
        },
        {
          "internalType": "uint256",
          "name": "startTime",
          "type": "uint256"
        },
        {
          "internalType": "uint256",
          "name": "endTime",
          "type": "uint256"
        },
        {
          "internalType": "address payable",
          "name": "bidder",
          "type": "address"
        },
        {
          "internalType": "bool",
          "name": "settled",
          "type": "bool"
        }
      ],
      "stateMutability": "view",
      "type": "function"
    },
    {
      "inputs": [
        {
          "internalType": "uint256",
          "name": "nounId",
          "type": "uint256"
        }
      ],
      "name": "createBid",
      "outputs": [],
      "stateMutability": "payable",
      "type": "function"
    },
    {
      "inputs": [],
      "name": "duration",
      "outputs": [
        {
          "internalType": "uint256",
          "name": "",
          "type": "uint256"
        }
      ],
      "stateMutability": "view",
      "type": "function"
    },
    {
      "inputs": [
        {
          "internalType": "contract IMockERC721",
          "name": "_nft",
          "type": "address"
        },
        {
          "internalType": "address",
          "name": "_weth",
          "type": "address"
        },
        {
          "internalType": "uint256",
          "name": "_timeBuffer",
          "type": "uint256"
        },
        {
          "internalType": "uint256",
          "name": "_reservePrice",
          "type": "uint256"
        },
        {
          "internalType": "uint8",
          "name": "_minBidIncrementPercentage",
          "type": "uint8"
        },
        {
          "internalType": "uint256",
          "name": "_duration",
          "type": "uint256"
        }
      ],
      "name": "initialize",
      "outputs": [],
      "stateMutability": "nonpayable",
      "type": "function"
    },
    {
      "inputs": [],
      "name": "minBidIncrementPercentage",
      "outputs": [
        {
          "internalType": "uint8",
          "name": "",
          "type": "uint8"
        }
      ],
      "stateMutability": "view",
      "type": "function"
    },
    {
      "inputs": [],
      "name": "nft",
      "outputs": [
        {
          "internalType": "contract IMockERC721",
          "name": "",
          "type": "address"
        }
      ],
      "stateMutability": "view",
      "type": "function"
    },
    {
      "inputs": [],
      "name": "owner",
      "outputs": [
        {
          "internalType": "address",
          "name": "",
          "type": "address"
        }
      ],
      "stateMutability": "view",
      "type": "function"
    },
    {
      "inputs": [],
      "name": "pause",
      "outputs": [],
      "stateMutability": "nonpayable",
      "type": "function"
    },
    {
      "inputs": [],
      "name": "paused",
      "outputs": [
        {
          "internalType": "bool",
          "name": "",
          "type": "bool"
        }
      ],
      "stateMutability": "view",
      "type": "function"
    },
    {
      "inputs": [],
      "name": "renounceOwnership",
      "outputs": [],
      "stateMutability": "nonpayable",
      "type": "function"
    },
    {
      "inputs": [],
      "name": "reservePrice",
      "outputs": [
        {
          "internalType": "uint256",
          "name": "",
          "type": "uint256"
        }
      ],
      "stateMutability": "view",
      "type": "function"
    },
    {
      "inputs": [
        {
          "internalType": "uint8",
          "name": "_minBidIncrementPercentage",
          "type": "uint8"
        }
      ],
      "name": "setMinBidIncrementPercentage",
      "outputs": [],
      "stateMutability": "nonpayable",
      "type": "function"
    },
    {
      "inputs": [
        {
          "internalType": "uint256",
          "name": "_reservePrice",
          "type": "uint256"
        }
      ],
      "name": "setReservePrice",
      "outputs": [],
      "stateMutability": "nonpayable",
      "type": "function"
    },
    {
      "inputs": [
        {
          "internalType": "uint256",
          "name": "_timeBuffer",
          "type": "uint256"
        }
      ],
      "name": "setTimeBuffer",
      "outputs": [],
      "stateMutability": "nonpayable",
      "type": "function"
    },
    {
      "inputs": [],
      "name": "settleAuction",
      "outputs": [],
      "stateMutability": "nonpayable",
      "type": "function"
    },
    {
      "inputs": [],
      "name": "settleCurrentAndCreateNewAuction",
      "outputs": [],
      "stateMutability": "nonpayable",
      "type": "function"
    },
    {
      "inputs": [],
      "name": "timeBuffer",
      "outputs": [
        {
          "internalType": "uint256",
          "name": "",
          "type": "uint256"
        }
      ],
      "stateMutability": "view",
      "type": "function"
    },
    {
      "inputs": [
        {
          "internalType": "address",
          "name": "newOwner",
          "type": "address"
        }
      ],
      "name": "transferOwnership",
      "outputs": [],
      "stateMutability": "nonpayable",
      "type": "function"
    },
    {
      "inputs": [],
      "name": "unpause",
      "outputs": [],
      "stateMutability": "nonpayable",
      "type": "function"
    },
    {
      "inputs": [],
      "name": "weth",
      "outputs": [
        {
          "internalType": "address",
          "name": "",
          "type": "address"
        }
      ],
      "stateMutability": "view",
      "type": "function"
    }
  ],
  "bytecode": "0x608060405234801561001057600080fd5b5061295e806100206000396000f3fe60806040526004361061011f5760003560e01c80638456cb59116100a0578063ce9c7c0d11610064578063ce9c7c0d14610349578063db2e1eed14610372578063ec91f2a41461039d578063f25efffc146103c8578063f2fde38b146103df5761011f565b80638456cb591461029c57806387f49f54146102b35780638da5cb5b146102dc578063a4d0a17e14610307578063b296024d1461031e5761011f565b80635c975abb116100e75780635c975abb146101e5578063659dd2b4146102105780637120334b1461022c578063715018a6146102555780637d9f6db51461026c5761011f565b80630fb5a6b41461012457806336ebdb381461014f5780633f4ba83a146101785780633fc8cef31461018f57806347ccca02146101ba575b600080fd5b34801561013057600080fd5b50610139610408565b604051610146919061199a565b60405180910390f35b34801561015b57600080fd5b50610176600480360381019061017191906119fd565b61040e565b005b34801561018457600080fd5b5061018d61046b565b005b34801561019b57600080fd5b506101a46104ae565b6040516101b19190611a6b565b60405180910390f35b3480156101c657600080fd5b506101cf6104d4565b6040516101dc9190611ae5565b60405180910390f35b3480156101f157600080fd5b506101fa6104fa565b6040516102079190611b1b565b60405180910390f35b61022a60048036038101906102259190611b62565b610511565b005b34801561023857600080fd5b50610253600480360381019061024e9190611b62565b610880565b005b34801561026157600080fd5b5061026a6108c9565b005b34801561027857600080fd5b506102816108dd565b60405161029396959493929190611bb0565b60405180910390f35b3480156102a857600080fd5b506102b1610934565b005b3480156102bf57600080fd5b506102da60048036038101906102d59190611c7b565b610946565b005b3480156102e857600080fd5b506102f1610b54565b6040516102fe9190611a6b565b60405180910390f35b34801561031357600080fd5b5061031c610b7e565b005b34801561032a57600080fd5b50610333610ba0565b6040516103409190611d17565b60405180910390f35b34801561035557600080fd5b50610370600480360381019061036b9190611b62565b610bb3565b005b34801561037e57600080fd5b50610387610bfc565b604051610394919061199a565b60405180910390f35b3480156103a957600080fd5b506103b2610c02565b6040516103bf919061199a565b60405180910390f35b3480156103d457600080fd5b506103dd610c08565b005b3480156103eb57600080fd5b5061040660048036038101906104019190611d32565b610c32565b005b60ce5481565b610416610cb5565b8060cd60006101000a81548160ff021916908360ff1602179055507fec5ccd96cc77b6219e9d44143df916af68fc169339ea7de5008ff15eae13450d816040516104609190611d90565b60405180910390a150565b610473610cb5565b61047b610d33565b600060cf60020154148061049e575060cf60040160149054906101000a900460ff165b156104ac576104ab610d96565b5b565b60ca60009054906101000a900473ffffffffffffffffffffffffffffffffffffffff1681565b60c960009054906101000a900473ffffffffffffffffffffffffffffffffffffffff1681565b6000603360009054906101000a900460ff16905090565b610519610f9f565b600060cf6040518060c0016040529081600082015481526020016001820154815260200160028201548152602001600382015481526020016004820160009054906101000a900473ffffffffffffffffffffffffffffffffffffffff1673ffffffffffffffffffffffffffffffffffffffff1673ffffffffffffffffffffffffffffffffffffffff1681526020016004820160149054906101000a900460ff161515151581525050905081816000015114610609576040517f08c379a000000000000000000000000000000000000000000000000000000000815260040161060090611e08565b60405180910390fd5b8060600151421061064f576040517f08c379a000000000000000000000000000000000000000000000000000000000815260040161064690611e74565b60405180910390fd5b60cc54341015610694576040517f08c379a000000000000000000000000000000000000000000000000000000000815260040161068b90611ee0565b60405180910390fd5b606460cd60009054906101000a900460ff1660ff1682602001516106b89190611f2f565b6106c29190611fa0565b81602001516106d19190611fd1565b341015610713576040517f08c379a000000000000000000000000000000000000000000000000000000000815260040161070a90612077565b60405180910390fd5b600081608001519050600073ffffffffffffffffffffffffffffffffffffffff168173ffffffffffffffffffffffffffffffffffffffff161461075f5761075e818360200151610fee565b5b3460cf600101819055503360cf60040160006101000a81548173ffffffffffffffffffffffffffffffffffffffff021916908373ffffffffffffffffffffffffffffffffffffffff160217905550600060cb544284606001516107c29190612097565b10905080156107eb5760cb54426107d99190611fd1565b836060018181525060cf600301819055505b82600001517f1159164c56f277e6fc99c11731bd380e0347deb969b75523398734c252706ea3333484604051610823939291906120cb565b60405180910390a280156108725782600001517f6e912a3a9105bdd2af817ba5adc14e6c127c1035b5b648faa29ca0d58ab8ff4e8460600151604051610869919061199a565b60405180910390a25b50505061087d611125565b50565b610888610cb5565b8060cb819055507f1b55d9f7002bda4490f467e326f22a4a847629c0f2d1ed421607d318d25b410d816040516108be919061199a565b60405180910390a150565b6108d1610cb5565b6108db600061112f565b565b60cf8060000154908060010154908060020154908060030154908060040160009054906101000a900473ffffffffffffffffffffffffffffffffffffffff16908060040160149054906101000a900460ff16905086565b61093c610cb5565b6109446111f5565b565b60008060019054906101000a900460ff161590508080156109775750600160008054906101000a900460ff1660ff16105b806109a4575061098630611258565b1580156109a35750600160008054906101000a900460ff1660ff16145b5b6109e3576040517f08c379a00000000000000000000000000000000000000000000000000000000081526004016109da90612174565b60405180910390fd5b60016000806101000a81548160ff021916908360ff1602179055508015610a20576001600060016101000a81548160ff0219169083151502179055505b610a2861127b565b610a306112d4565b610a3861132d565b610a406111f5565b8660c960006101000a81548173ffffffffffffffffffffffffffffffffffffffff021916908373ffffffffffffffffffffffffffffffffffffffff1602179055508560ca60006101000a81548173ffffffffffffffffffffffffffffffffffffffff021916908373ffffffffffffffffffffffffffffffffffffffff1602179055508460cb819055508360cc819055508260cd60006101000a81548160ff021916908360ff1602179055508160ce819055508015610b4b5760008060016101000a81548160ff0219169083151502179055507f7f26b83ff96e1f2b6a682f133852f6798a09c465da95921460cefb38474024986001604051610b4291906121cf565b60405180910390a15b50505050505050565b6000609760009054906101000a900473ffffffffffffffffffffffffffffffffffffffff16905090565b610b86611386565b610b8e610f9f565b610b966113cf565b610b9e611125565b565b60cd60009054906101000a900460ff1681565b610bbb610cb5565b8060cc819055507f6ab2e127d7fdf53b8f304e59d3aab5bfe97979f52a85479691a6fab27a28a6b281604051610bf1919061199a565b60405180910390a150565b60cc5481565b60cb5481565b610c10610f9f565b610c1861173e565b610c206113cf565b610c28610d96565b610c30611125565b565b610c3a610cb5565b600073ffffffffffffffffffffffffffffffffffffffff168173ffffffffffffffffffffffffffffffffffffffff1603610ca9576040517f08c379a0000000000000000000000000000000000000000000000000000000008152600401610ca09061225c565b60405180910390fd5b610cb28161112f565b50565b610cbd611788565b73ffffffffffffffffffffffffffffffffffffffff16610cdb610b54565b73ffffffffffffffffffffffffffffffffffffffff1614610d31576040517f08c379a0000000000000000000000000000000000000000000000000000000008152600401610d28906122c8565b60405180910390fd5b565b610d3b611386565b6000603360006101000a81548160ff0219169083151502179055507f5db9ee0a495bf2e6ff9c91a7834c1ba4fdd244a5e8aa4e537bd38aeae4b073aa610d7f611788565b604051610d8c9190611a6b565b60405180910390a1565b60c960009054906101000a900473ffffffffffffffffffffffffffffffffffffffff1673ffffffffffffffffffffffffffffffffffffffff16631249c58b6040518163ffffffff1660e01b81526004016020604051808303816000875af1925050508015610e2257506040513d601f19601f82011682018060405250810190610e1f91906122fd565b60015b610e6c57610e2e612337565b806308c379a003610e5b5750610e426123ca565b80610e4d5750610e5d565b610e556111f5565b50610e67565b505b3d6000803e3d6000fd5b610f9d565b6000429050600060ce5482610e819190611fd1565b90506040518060c0016040528084815260200160008152602001838152602001828152602001600073ffffffffffffffffffffffffffffffffffffffff1681526020016000151581525060cf6000820151816000015560208201518160010155604082015181600201556060820151816003015560808201518160040160006101000a81548173ffffffffffffffffffffffffffffffffffffffff021916908373ffffffffffffffffffffffffffffffffffffffff16021790555060a08201518160040160146101000a81548160ff021916908315150217905550905050827fd6eddd1118d71820909c1197aa966dbc15ed6f508554252169cc3d5ccac756ca8383604051610f9192919061245a565b60405180910390a25050505b565b600260655403610fe4576040517f08c379a0000000000000000000000000000000000000000000000000000000008152600401610fdb906124cf565b60405180910390fd5b6002606581905550565b610ff88282611790565b6111215760ca60009054906101000a900473ffffffffffffffffffffffffffffffffffffffff1673ffffffffffffffffffffffffffffffffffffffff1663d0e30db0826040518263ffffffff1660e01b81526004016000604051808303818588803b15801561106657600080fd5b505af115801561107a573d6000803e3d6000fd5b505050505060ca60009054906101000a900473ffffffffffffffffffffffffffffffffffffffff1673ffffffffffffffffffffffffffffffffffffffff1663a9059cbb83836040518363ffffffff1660e01b81526004016110dc9291906124ef565b6020604051808303816000875af11580156110fb573d6000803e3d6000fd5b505050506040513d601f19601f8201168201806040525081019061111f9190612544565b505b5050565b6001606581905550565b6000609760009054906101000a900473ffffffffffffffffffffffffffffffffffffffff16905081609760006101000a81548173ffffffffffffffffffffffffffffffffffffffff021916908373ffffffffffffffffffffffffffffffffffffffff1602179055508173ffffffffffffffffffffffffffffffffffffffff168173ffffffffffffffffffffffffffffffffffffffff167f8be0079c531659141344cd1fd0a4f28419497f9722a3daafe3b4186f6b6457e060405160405180910390a35050565b6111fd61173e565b6001603360006101000a81548160ff0219169083151502179055507f62e78cea01bee320cd4e420270b5ea74000d11b0c9f74754ebdbfc544b05a258611241611788565b60405161124e9190611a6b565b60405180910390a1565b6000808273ffffffffffffffffffffffffffffffffffffffff163b119050919050565b600060019054906101000a900460ff166112ca576040517f08c379a00000000000000000000000000000000000000000000000000000000081526004016112c1906125e3565b60405180910390fd5b6112d261185b565b565b600060019054906101000a900460ff16611323576040517f08c379a000000000000000000000000000000000000000000000000000000000815260040161131a906125e3565b60405180910390fd5b61132b6118c7565b565b600060019054906101000a900460ff1661137c576040517f08c379a0000000000000000000000000000000000000000000000000000000008152600401611373906125e3565b60405180910390fd5b611384611920565b565b61138e6104fa565b6113cd576040517f08c379a00000000000000000000000000000000000000000000000000000000081526004016113c49061264f565b60405180910390fd5b565b600060cf6040518060c0016040529081600082015481526020016001820154815260200160028201548152602001600382015481526020016004820160009054906101000a900473ffffffffffffffffffffffffffffffffffffffff1673ffffffffffffffffffffffffffffffffffffffff1673ffffffffffffffffffffffffffffffffffffffff1681526020016004820160149054906101000a900460ff161515151581525050905060008160400151036114c0576040517f08c379a00000000000000000000000000000000000000000000000000000000081526004016114b7906126bb565b60405180910390fd5b8060a0015115611505576040517f08c379a00000000000000000000000000000000000000000000000000000000081526004016114fc90612727565b60405180910390fd5b806060015142101561154c576040517f08c379a000000000000000000000000000000000000000000000000000000000815260040161154390612793565b60405180910390fd5b600160cf60040160146101000a81548160ff021916908315150217905550600073ffffffffffffffffffffffffffffffffffffffff16816080015173ffffffffffffffffffffffffffffffffffffffff16036116385760c960009054906101000a900473ffffffffffffffffffffffffffffffffffffffff1673ffffffffffffffffffffffffffffffffffffffff166342966c6882600001516040518263ffffffff1660e01b8152600401611601919061199a565b600060405180830381600087803b15801561161b57600080fd5b505af115801561162f573d6000803e3d6000fd5b505050506116d2565b60c960009054906101000a900473ffffffffffffffffffffffffffffffffffffffff1673ffffffffffffffffffffffffffffffffffffffff166323b872dd30836080015184600001516040518463ffffffff1660e01b815260040161169f939291906127d4565b600060405180830381600087803b1580156116b957600080fd5b505af11580156116cd573d6000803e3d6000fd5b505050505b6000816020015111156116f5576116f46116ea610b54565b8260200151610fee565b5b80600001517fc9f72b276a388619c6d185d146697036241880c36654b1a3ffdad07c24038d998260800151836020015160405161173392919061280b565b60405180910390a250565b6117466104fa565b15611786576040517f08c379a000000000000000000000000000000000000000000000000000000000815260040161177d90612880565b60405180910390fd5b565b600033905090565b6000808373ffffffffffffffffffffffffffffffffffffffff168361753090600067ffffffffffffffff8111156117ca576117c961236a565b5b6040519080825280601f01601f1916602001820160405280156117fc5781602001600182028036833780820191505090505b5060405161180a9190612911565b600060405180830381858888f193505050503d8060008114611848576040519150601f19603f3d011682016040523d82523d6000602084013e61184d565b606091505b505090508091505092915050565b600060019054906101000a900460ff166118aa576040517f08c379a00000000000000000000000000000000000000000000000000000000081526004016118a1906125e3565b60405180910390fd5b6000603360006101000a81548160ff021916908315150217905550565b600060019054906101000a900460ff16611916576040517f08c379a000000000000000000000000000000000000000000000000000000000815260040161190d906125e3565b60405180910390fd5b6001606581905550565b600060019054906101000a900460ff1661196f576040517f08c379a0000000000000000000000000000000000000000000000000000000008152600401611966906125e3565b60405180910390fd5b61197f61197a611788565b61112f565b565b6000819050919050565b61199481611981565b82525050565b60006020820190506119af600083018461198b565b92915050565b6000604051905090565b600080fd5b600060ff82169050919050565b6119da816119c4565b81146119e557600080fd5b50565b6000813590506119f7816119d1565b92915050565b600060208284031215611a1357611a126119bf565b5b6000611a21848285016119e8565b91505092915050565b600073ffffffffffffffffffffffffffffffffffffffff82169050919050565b6000611a5582611a2a565b9050919050565b611a6581611a4a565b82525050565b6000602082019050611a806000830184611a5c565b92915050565b6000819050919050565b6000611aab611aa6611aa184611a2a565b611a86565b611a2a565b9050919050565b6000611abd82611a90565b9050919050565b6000611acf82611ab2565b9050919050565b611adf81611ac4565b82525050565b6000602082019050611afa6000830184611ad6565b92915050565b60008115159050919050565b611b1581611b00565b82525050565b6000602082019050611b306000830184611b0c565b92915050565b611b3f81611981565b8114611b4a57600080fd5b50565b600081359050611b5c81611b36565b92915050565b600060208284031215611b7857611b776119bf565b5b6000611b8684828501611b4d565b91505092915050565b6000611b9a82611a2a565b9050919050565b611baa81611b8f565b82525050565b600060c082019050611bc5600083018961198b565b611bd2602083018861198b565b611bdf604083018761198b565b611bec606083018661198b565b611bf96080830185611ba1565b611c0660a0830184611b0c565b979650505050505050565b6000611c1c82611a4a565b9050919050565b611c2c81611c11565b8114611c3757600080fd5b50565b600081359050611c4981611c23565b92915050565b611c5881611a4a565b8114611c6357600080fd5b50565b600081359050611c7581611c4f565b92915050565b60008060008060008060c08789031215611c9857611c976119bf565b5b6000611ca689828a01611c3a565b9650506020611cb789828a01611c66565b9550506040611cc889828a01611b4d565b9450506060611cd989828a01611b4d565b9350506080611cea89828a016119e8565b92505060a0611cfb89828a01611b4d565b9150509295509295509295565b611d11816119c4565b82525050565b6000602082019050611d2c6000830184611d08565b92915050565b600060208284031215611d4857611d476119bf565b5b6000611d5684828501611c66565b91505092915050565b6000611d7a611d75611d70846119c4565b611a86565b611981565b9050919050565b611d8a81611d5f565b82525050565b6000602082019050611da56000830184611d81565b92915050565b600082825260208201905092915050565b7f4e6f756e206e6f7420757020666f722061756374696f6e000000000000000000600082015250565b6000611df2601783611dab565b9150611dfd82611dbc565b602082019050919050565b60006020820190508181036000830152611e2181611de5565b9050919050565b7f41756374696f6e20657870697265640000000000000000000000000000000000600082015250565b6000611e5e600f83611dab565b9150611e6982611e28565b602082019050919050565b60006020820190508181036000830152611e8d81611e51565b9050919050565b7f4d7573742073656e64206174206c656173742072657365727665507269636500600082015250565b6000611eca601f83611dab565b9150611ed582611e94565b602082019050919050565b60006020820190508181036000830152611ef981611ebd565b9050919050565b7f4e487b7100000000000000000000000000000000000000000000000000000000600052601160045260246000fd5b6000611f3a82611981565b9150611f4583611981565b9250828202611f5381611981565b91508282048414831517611f6a57611f69611f00565b5b5092915050565b7f4e487b7100000000000000000000000000000000000000000000000000000000600052601260045260246000fd5b6000611fab82611981565b9150611fb683611981565b925082611fc657611fc5611f71565b5b828204905092915050565b6000611fdc82611981565b9150611fe783611981565b9250828201905080821115611fff57611ffe611f00565b5b92915050565b7f4d7573742073656e64206d6f7265207468616e206c617374206269642062792060008201527f6d696e426964496e6372656d656e7450657263656e7461676520616d6f756e74602082015250565b6000612061604083611dab565b915061206c82612005565b604082019050919050565b6000602082019050818103600083015261209081612054565b9050919050565b60006120a282611981565b91506120ad83611981565b92508282039050818111156120c5576120c4611f00565b5b92915050565b60006060820190506120e06000830186611a5c565b6120ed602083018561198b565b6120fa6040830184611b0c565b949350505050565b7f496e697469616c697a61626c653a20636f6e747261637420697320616c72656160008201527f647920696e697469616c697a6564000000000000000000000000000000000000602082015250565b600061215e602e83611dab565b915061216982612102565b604082019050919050565b6000602082019050818103600083015261218d81612151565b9050919050565b6000819050919050565b60006121b96121b46121af84612194565b611a86565b6119c4565b9050919050565b6121c98161219e565b82525050565b60006020820190506121e460008301846121c0565b92915050565b7f4f776e61626c653a206e6577206f776e657220697320746865207a65726f206160008201527f6464726573730000000000000000000000000000000000000000000000000000602082015250565b6000612246602683611dab565b9150612251826121ea565b604082019050919050565b6000602082019050818103600083015261227581612239565b9050919050565b7f4f776e61626c653a2063616c6c6572206973206e6f7420746865206f776e6572600082015250565b60006122b2602083611dab565b91506122bd8261227c565b602082019050919050565b600060208201905081810360008301526122e1816122a5565b9050919050565b6000815190506122f781611b36565b92915050565b600060208284031215612313576123126119bf565b5b6000612321848285016122e8565b91505092915050565b60008160e01c9050919050565b600060033d11156123565760046000803e61235360005161232a565b90505b90565b6000601f19601f8301169050919050565b7f4e487b7100000000000000000000000000000000000000000000000000000000600052604160045260246000fd5b6123a282612359565b810181811067ffffffffffffffff821117156123c1576123c061236a565b5b80604052505050565b600060443d10612457576123dc6119b5565b60043d036004823e80513d602482011167ffffffffffffffff82111715612404575050612457565b808201805167ffffffffffffffff8111156124225750505050612457565b80602083010160043d03850181111561243f575050505050612457565b61244e82602001850186612399565b82955050505050505b90565b600060408201905061246f600083018561198b565b61247c602083018461198b565b9392505050565b7f5265656e7472616e637947756172643a207265656e7472616e742063616c6c00600082015250565b60006124b9601f83611dab565b91506124c482612483565b602082019050919050565b600060208201905081810360008301526124e8816124ac565b9050919050565b60006040820190506125046000830185611a5c565b612511602083018461198b565b9392505050565b61252181611b00565b811461252c57600080fd5b50565b60008151905061253e81612518565b92915050565b60006020828403121561255a576125596119bf565b5b60006125688482850161252f565b91505092915050565b7f496e697469616c697a61626c653a20636f6e7472616374206973206e6f74206960008201527f6e697469616c697a696e67000000000000000000000000000000000000000000602082015250565b60006125cd602b83611dab565b91506125d882612571565b604082019050919050565b600060208201905081810360008301526125fc816125c0565b9050919050565b7f5061757361626c653a206e6f7420706175736564000000000000000000000000600082015250565b6000612639601483611dab565b915061264482612603565b602082019050919050565b600060208201905081810360008301526126688161262c565b9050919050565b7f41756374696f6e206861736e277420626567756e000000000000000000000000600082015250565b60006126a5601483611dab565b91506126b08261266f565b602082019050919050565b600060208201905081810360008301526126d481612698565b9050919050565b7f41756374696f6e2068617320616c7265616479206265656e20736574746c6564600082015250565b6000612711602083611dab565b915061271c826126db565b602082019050919050565b6000602082019050818103600083015261274081612704565b9050919050565b7f41756374696f6e206861736e277420636f6d706c657465640000000000000000600082015250565b600061277d601883611dab565b915061278882612747565b602082019050919050565b600060208201905081810360008301526127ac81612770565b9050919050565b60006127be82611ab2565b9050919050565b6127ce816127b3565b82525050565b60006060820190506127e96000830186611a5c565b6127f660208301856127c5565b612803604083018461198b565b949350505050565b600060408201905061282060008301856127c5565b61282d602083018461198b565b9392505050565b7f5061757361626c653a2070617573656400000000000000000000000000000000600082015250565b600061286a601083611dab565b915061287582612834565b602082019050919050565b600060208201905081810360008301526128998161285d565b9050919050565b600081519050919050565b600081905092915050565b60005b838110156128d45780820151818401526020810190506128b9565b60008484015250505050565b60006128eb826128a0565b6128f581856128ab565b93506129058185602086016128b6565b80840191505092915050565b600061291d82846128e0565b91508190509291505056fea2646970667358221220b19da2b7c114822a4077758adb6f209ab61d035ca82f5384c55a9e86a507e8c064736f6c63430008120033",
  "linkReferences": {},
  "deployedLinkReferences": {}
}