{
  "_format": "hh-sol-artifact-1",
  "contractName": "AuctionHouse",
  "sourceName": "contracts/AuctionHouse.sol",
  "abi": [
    {
      "anonymous": false,
      "inputs": [
        {
          "indexed": false,
          "internalType": "address",
          "name": "previousAdmin",
          "type": "address"
        },
        {
          "indexed": false,
          "internalType": "address",
          "name": "newAdmin",
          "type": "address"
        }
      ],
      "name": "AdminChanged",
      "type": "event"
    },
    {
      "anonymous": false,
      "inputs": [
        {
          "indexed": true,
          "internalType": "uint256",
          "name": "tokenId",
          "type": "uint256"
        },
        {
          "indexed": false,
          "internalType": "address",
          "name": "sender",
          "type": "address"
        },
        {
          "indexed": false,
          "internalType": "uint256",
          "name": "value",
          "type": "uint256"
        },
        {
          "indexed": false,
          "internalType": "bool",
          "name": "extended",
          "type": "bool"
        }
      ],
      "name": "AuctionBid",
      "type": "event"
    },
    {
      "anonymous": false,
      "inputs": [
        {
          "indexed": true,
          "internalType": "uint256",
          "name": "tokenId",
          "type": "uint256"
        },
        {
          "indexed": false,
          "internalType": "uint256",
          "name": "startTime",
          "type": "uint256"
        },
        {
          "indexed": false,
          "internalType": "uint256",
          "name": "endTime",
          "type": "uint256"
        }
      ],
      "name": "AuctionCreated",
      "type": "event"
    },
    {
      "anonymous": false,
      "inputs": [
        {
          "indexed": true,
          "internalType": "uint256",
          "name": "tokenId",
          "type": "uint256"
        },
        {
          "indexed": false,
          "internalType": "uint256",
          "name": "endTime",
          "type": "uint256"
        }
      ],
      "name": "AuctionExtended",
      "type": "event"
    },
    {
      "anonymous": false,
      "inputs": [
        {
          "indexed": false,
          "internalType": "uint256",
          "name": "minBidIncrementPercentage",
          "type": "uint256"
        }
      ],
      "name": "AuctionMinBidIncrementPercentageUpdated",
      "type": "event"
    },
    {
      "anonymous": false,
      "inputs": [
        {
          "indexed": false,
          "internalType": "uint256",
          "name": "reservePrice",
          "type": "uint256"
        }
      ],
      "name": "AuctionReservePriceUpdated",
      "type": "event"
    },
    {
      "anonymous": false,
      "inputs": [
        {
          "indexed": true,
          "internalType": "uint256",
          "name": "tokenId",
          "type": "uint256"
        },
        {
          "indexed": false,
          "internalType": "address",
          "name": "winner",
          "type": "address"
        },
        {
          "indexed": false,
          "internalType": "uint256",
          "name": "amount",
          "type": "uint256"
        }
      ],
      "name": "AuctionSettled",
      "type": "event"
    },
    {
      "anonymous": false,
      "inputs": [
        {
          "indexed": false,
          "internalType": "uint256",
          "name": "timeBuffer",
          "type": "uint256"
        }
      ],
      "name": "AuctionTimeBufferUpdated",
      "type": "event"
    },
    {
      "anonymous": false,
      "inputs": [
        {
          "indexed": true,
          "internalType": "address",
          "name": "beacon",
          "type": "address"
        }
      ],
      "name": "BeaconUpgraded",
      "type": "event"
    },
    {
      "anonymous": false,
      "inputs": [
        {
          "indexed": false,
          "internalType": "uint8",
          "name": "version",
          "type": "uint8"
        }
      ],
      "name": "Initialized",
      "type": "event"
    },
    {
      "anonymous": false,
      "inputs": [
        {
          "indexed": true,
          "internalType": "address",
          "name": "previousOwner",
          "type": "address"
        },
        {
          "indexed": true,
          "internalType": "address",
          "name": "newOwner",
          "type": "address"
        }
      ],
      "name": "OwnershipTransferred",
      "type": "event"
    },
    {
      "anonymous": false,
      "inputs": [
        {
          "indexed": false,
          "internalType": "address",
          "name": "account",
          "type": "address"
        }
      ],
      "name": "Paused",
      "type": "event"
    },
    {
      "anonymous": false,
      "inputs": [
        {
          "indexed": false,
          "internalType": "address",
          "name": "account",
          "type": "address"
        }
      ],
      "name": "Unpaused",
      "type": "event"
    },
    {
      "anonymous": false,
      "inputs": [
        {
          "indexed": true,
          "internalType": "address",
          "name": "implementation",
          "type": "address"
        }
      ],
      "name": "Upgraded",
      "type": "event"
    },
    {
      "inputs": [
        {
          "internalType": "uint256",
          "name": "",
          "type": "uint256"
        }
      ],
      "name": "auctions",
      "outputs": [
        {
          "internalType": "uint256",
          "name": "tokenId",
          "type": "uint256"
        },
        {
          "internalType": "uint256",
          "name": "startTime",
          "type": "uint256"
        },
        {
          "internalType": "uint256",
          "name": "endTime",
          "type": "uint256"
        },
        {
          "internalType": "bool",
          "name": "settled",
          "type": "bool"
        }
      ],
      "stateMutability": "view",
      "type": "function"
    },
    {
      "inputs": [
        {
          "internalType": "uint256",
          "name": "tokenId",
          "type": "uint256"
        }
      ],
      "name": "createBid",
      "outputs": [],
      "stateMutability": "payable",
      "type": "function"
    },
    {
      "inputs": [],
      "name": "duration",
      "outputs": [
        {
          "internalType": "uint256",
          "name": "",
          "type": "uint256"
        }
      ],
      "stateMutability": "view",
      "type": "function"
    },
    {
      "inputs": [],
      "name": "getAuctions",
      "outputs": [
        {
          "components": [
            {
              "internalType": "uint256",
              "name": "tokenId",
              "type": "uint256"
            },
            {
              "internalType": "uint256[]",
              "name": "amounts",
              "type": "uint256[]"
            },
            {
              "internalType": "uint256",
              "name": "startTime",
              "type": "uint256"
            },
            {
              "internalType": "uint256",
              "name": "endTime",
              "type": "uint256"
            },
            {
              "internalType": "address payable[]",
              "name": "bidders",
              "type": "address[]"
            },
            {
              "internalType": "bool",
              "name": "settled",
              "type": "bool"
            }
          ],
          "internalType": "struct IAuctionHouse.Auction[]",
          "name": "",
          "type": "tuple[]"
        }
      ],
      "stateMutability": "view",
      "type": "function"
    },
    {
      "inputs": [
        {
          "internalType": "uint256[]",
          "name": "tokenIds",
          "type": "uint256[]"
        }
      ],
      "name": "getAuctionsByIds",
      "outputs": [
        {
          "components": [
            {
              "internalType": "uint256",
              "name": "tokenId",
              "type": "uint256"
            },
            {
              "internalType": "uint256[]",
              "name": "amounts",
              "type": "uint256[]"
            },
            {
              "internalType": "uint256",
              "name": "startTime",
              "type": "uint256"
            },
            {
              "internalType": "uint256",
              "name": "endTime",
              "type": "uint256"
            },
            {
              "internalType": "address payable[]",
              "name": "bidders",
              "type": "address[]"
            },
            {
              "internalType": "bool",
              "name": "settled",
              "type": "bool"
            }
          ],
          "internalType": "struct IAuctionHouse.Auction[]",
          "name": "",
          "type": "tuple[]"
        }
      ],
      "stateMutability": "view",
      "type": "function"
    },
    {
      "inputs": [
        {
          "internalType": "contract IMedicalDAONFT",
          "name": "_nft",
          "type": "address"
        },
        {
          "internalType": "address",
          "name": "_weth",
          "type": "address"
        },
        {
          "internalType": "uint256",
          "name": "_timeBuffer",
          "type": "uint256"
        },
        {
          "internalType": "uint256",
          "name": "_reservePrice",
          "type": "uint256"
        },
        {
          "internalType": "uint8",
          "name": "_minBidIncrementPercentage",
          "type": "uint8"
        },
        {
          "internalType": "uint256",
          "name": "_duration",
          "type": "uint256"
        }
      ],
      "name": "initialize",
      "outputs": [],
      "stateMutability": "nonpayable",
      "type": "function"
    },
    {
      "inputs": [],
      "name": "minBidIncrementPercentage",
      "outputs": [
        {
          "internalType": "uint8",
          "name": "",
          "type": "uint8"
        }
      ],
      "stateMutability": "view",
      "type": "function"
    },
    {
      "inputs": [],
      "name": "nft",
      "outputs": [
        {
          "internalType": "contract IMedicalDAONFT",
          "name": "",
          "type": "address"
        }
      ],
      "stateMutability": "view",
      "type": "function"
    },
    {
      "inputs": [],
      "name": "owner",
      "outputs": [
        {
          "internalType": "address",
          "name": "",
          "type": "address"
        }
      ],
      "stateMutability": "view",
      "type": "function"
    },
    {
      "inputs": [],
      "name": "pause",
      "outputs": [],
      "stateMutability": "nonpayable",
      "type": "function"
    },
    {
      "inputs": [],
      "name": "paused",
      "outputs": [
        {
          "internalType": "bool",
          "name": "",
          "type": "bool"
        }
      ],
      "stateMutability": "view",
      "type": "function"
    },
    {
      "inputs": [],
      "name": "proxiableUUID",
      "outputs": [
        {
          "internalType": "bytes32",
          "name": "",
          "type": "bytes32"
        }
      ],
      "stateMutability": "view",
      "type": "function"
    },
    {
      "inputs": [],
      "name": "renounceOwnership",
      "outputs": [],
      "stateMutability": "nonpayable",
      "type": "function"
    },
    {
      "inputs": [],
      "name": "reservePrice",
      "outputs": [
        {
          "internalType": "uint256",
          "name": "",
          "type": "uint256"
        }
      ],
      "stateMutability": "view",
      "type": "function"
    },
    {
      "inputs": [
        {
          "internalType": "uint8",
          "name": "_minBidIncrementPercentage",
          "type": "uint8"
        }
      ],
      "name": "setMinBidIncrementPercentage",
      "outputs": [],
      "stateMutability": "nonpayable",
      "type": "function"
    },
    {
      "inputs": [
        {
          "internalType": "uint256",
          "name": "_reservePrice",
          "type": "uint256"
        }
      ],
      "name": "setReservePrice",
      "outputs": [],
      "stateMutability": "nonpayable",
      "type": "function"
    },
    {
      "inputs": [
        {
          "internalType": "uint256",
          "name": "_timeBuffer",
          "type": "uint256"
        }
      ],
      "name": "setTimeBuffer",
      "outputs": [],
      "stateMutability": "nonpayable",
      "type": "function"
    },
    {
      "inputs": [],
      "name": "settleAuction",
      "outputs": [],
      "stateMutability": "nonpayable",
      "type": "function"
    },
    {
      "inputs": [],
      "name": "settleCurrentAndCreateNewAuction",
      "outputs": [],
      "stateMutability": "nonpayable",
      "type": "function"
    },
    {
      "inputs": [],
      "name": "settleCurrentAndCreateNewAuctionAndCreateBid",
      "outputs": [],
      "stateMutability": "payable",
      "type": "function"
    },
    {
      "inputs": [],
      "name": "timeBuffer",
      "outputs": [
        {
          "internalType": "uint256",
          "name": "",
          "type": "uint256"
        }
      ],
      "stateMutability": "view",
      "type": "function"
    },
    {
      "inputs": [
        {
          "internalType": "address",
          "name": "newOwner",
          "type": "address"
        }
      ],
      "name": "transferOwnership",
      "outputs": [],
      "stateMutability": "nonpayable",
      "type": "function"
    },
    {
      "inputs": [],
      "name": "unpause",
      "outputs": [],
      "stateMutability": "nonpayable",
      "type": "function"
    },
    {
      "inputs": [
        {
          "internalType": "address",
          "name": "newImplementation",
          "type": "address"
        }
      ],
      "name": "upgradeTo",
      "outputs": [],
      "stateMutability": "nonpayable",
      "type": "function"
    },
    {
      "inputs": [
        {
          "internalType": "address",
          "name": "newImplementation",
          "type": "address"
        },
        {
          "internalType": "bytes",
          "name": "data",
          "type": "bytes"
        }
      ],
      "name": "upgradeToAndCall",
      "outputs": [],
      "stateMutability": "payable",
      "type": "function"
    },
    {
      "inputs": [],
      "name": "weth",
      "outputs": [
        {
          "internalType": "address",
          "name": "",
          "type": "address"
        }
      ],
      "stateMutability": "view",
      "type": "function"
    }
  ],
  "bytecode": "0x60a06040523060805234801561001457600080fd5b50608051612dac61004c600039600081816106e10152818161072a01528181610870015281816108b001526109430152612dac6000f3fe6080604052600436106101815760003560e01c80637120334b116100d1578063b296024d1161008a578063db2e1eed11610064578063db2e1eed14610439578063ec91f2a414610450578063f25efffc14610467578063f2fde38b1461047c57600080fd5b8063b296024d146103d7578063ce9c7c0d14610404578063d7c069191461042457600080fd5b80637120334b1461033a578063715018a61461035a5780638456cb591461036f57806387f49f54146103845780638da5cb5b146103a4578063a4d0a17e146103c257600080fd5b80633fc8cef31161013e57806352d1902d1161011857806352d1902d146102ad578063571a26a0146102c25780635c975abb14610304578063659dd2b41461032757600080fd5b80633fc8cef31461024057806347ccca02146102795780634f1ef2861461029a57600080fd5b80630c038859146101865780630fb5a6b4146101bc57806327eb06f5146101e15780633659cfe6146101eb57806336ebdb381461020b5780633f4ba83a1461022b575b600080fd5b34801561019257600080fd5b506101a66101a13660046126b4565b61049c565b6040516101b3919061279f565b60405180910390f35b3480156101c857600080fd5b506101d36101325481565b6040519081526020016101b3565b6101e961069d565b005b3480156101f757600080fd5b506101e961020636600461289a565b6106d7565b34801561021757600080fd5b506101e96102263660046128cd565b6107bf565b34801561023757600080fd5b506101e9610811565b34801561024c57600080fd5b5061012e54610261906001600160a01b031681565b6040516001600160a01b0390911681526020016101b3565b34801561028557600080fd5b5061012d54610261906001600160a01b031681565b6101e96102a83660046128e8565b610866565b3480156102b957600080fd5b506101d3610936565b3480156102ce57600080fd5b506102e26102dd366004612994565b6109ea565b60408051948552602085019390935291830152151560608201526080016101b3565b34801561031057600080fd5b5060335460ff1660405190151581526020016101b3565b6101e9610335366004612994565b610a28565b34801561034657600080fd5b506101e9610355366004612994565b610a43565b34801561036657600080fd5b506101e9610a81565b34801561037b57600080fd5b506101e9610a93565b34801561039057600080fd5b506101e961039f3660046129ad565b610aa3565b3480156103b057600080fd5b506097546001600160a01b0316610261565b3480156103ce57600080fd5b506101e9610d3a565b3480156103e357600080fd5b50610131546103f29060ff1681565b60405160ff90911681526020016101b3565b34801561041057600080fd5b506101e961041f366004612994565b610d5c565b34801561043057600080fd5b506101a6610d9a565b34801561044557600080fd5b506101d36101305481565b34801561045c57600080fd5b506101d361012f5481565b34801561047357600080fd5b506101e9610ee4565b34801561048857600080fd5b506101e961049736600461289a565b610f04565b60606000825167ffffffffffffffff8111156104ba576104ba612671565b60405190808252806020026020018201604052801561052657816020015b6105136040518060c0016040528060008152602001606081526020016000815260200160008152602001606081526020016000151581525090565b8152602001906001900390816104d85790505b50905060005b83518110156106965761013384828151811061054a5761054a612a10565b60200260200101518154811061056257610562612a10565b90600052602060002090600602016040518060c001604052908160008201548152602001600182018054806020026020016040519081016040528092919081815260200182805480156105d457602002820191906000526020600020905b8154815260200190600101908083116105c0575b5050505050815260200160028201548152602001600382015481526020016004820180548060200260200160405190810160405280929190818152602001828054801561064a57602002820191906000526020600020905b81546001600160a01b0316815260019091019060200180831161062c575b50505091835250506005919091015460ff161515602090910152825183908390811061067857610678612a10565b6020026020010181905250808061068e90612a3c565b91505061052c565b5092915050565b6106a5610f7a565b6106ad610fd3565b6106b5611019565b60006106bf611479565b90506106ca81611918565b506106d56001606555565b565b6001600160a01b037f00000000000000000000000000000000000000000000000000000000000000001630036107285760405162461bcd60e51b815260040161071f90612a55565b60405180910390fd5b7f00000000000000000000000000000000000000000000000000000000000000006001600160a01b0316610771600080516020612d30833981519152546001600160a01b031690565b6001600160a01b0316146107975760405162461bcd60e51b815260040161071f90612aa1565b6107a081611dbb565b604080516000808252602082019092526107bc91839190611dc3565b50565b6107c7611f33565b610131805460ff191660ff83169081179091556040519081527fec5ccd96cc77b6219e9d44143df916af68fc169339ea7de5008ff15eae13450d906020015b60405180910390a150565b610819611f33565b610821611f8d565b610133805461083290600190612aed565b8154811061084257610842612a10565b600091825260209091206005600690920201015460ff16156106d5576107bc611479565b6001600160a01b037f00000000000000000000000000000000000000000000000000000000000000001630036108ae5760405162461bcd60e51b815260040161071f90612a55565b7f00000000000000000000000000000000000000000000000000000000000000006001600160a01b03166108f7600080516020612d30833981519152546001600160a01b031690565b6001600160a01b03161461091d5760405162461bcd60e51b815260040161071f90612aa1565b61092682611dbb565b61093282826001611dc3565b5050565b6000306001600160a01b037f000000000000000000000000000000000000000000000000000000000000000016146109d65760405162461bcd60e51b815260206004820152603860248201527f555550535570677261646561626c653a206d757374206e6f742062652063616c60448201527f6c6564207468726f7567682064656c656761746563616c6c0000000000000000606482015260840161071f565b50600080516020612d308339815191525b90565b61013381815481106109fb57600080fd5b60009182526020909120600690910201805460028201546003830154600590930154919350919060ff1684565b610a30610f7a565b610a3981611918565b6107bc6001606555565b610a4b611f33565b61012f8190556040518181527f1b55d9f7002bda4490f467e326f22a4a847629c0f2d1ed421607d318d25b410d90602001610806565b610a89611f33565b6106d56000611fdf565b610a9b611f33565b6106d5612031565b600054610100900460ff1615808015610ac35750600054600160ff909116105b80610add5750303b158015610add575060005460ff166001145b610b405760405162461bcd60e51b815260206004820152602e60248201527f496e697469616c697a61626c653a20636f6e747261637420697320616c72656160448201526d191e481a5b9a5d1a585b1a5e995960921b606482015260840161071f565b6000805460ff191660011790558015610b63576000805461ff0019166101001790555b610b6b61206e565b610b7361209d565b610b7b6120cc565b610b836120fb565b610b8b612031565b61012d80546001600160a01b03199081166001600160a01b038a81169190911790925561012e805490911691881691909117905561012f859055610130849055610131805460ff191660ff85161790556101328290556040805160c08101825260008082528251818152602080820185528084019182528385018390526060840183905284518381528082019095526080840194909452600160a084018190526101338054918201815590925282517f92e985329fb94cc1b424ebb0f7f2929b6d27383ca94c0ec71c44fb48bdf96d2c60069093029283019081559051805193949193610c9f937f92e985329fb94cc1b424ebb0f7f2929b6d27383ca94c0ec71c44fb48bdf96d2d019291909101906125bc565b50604082015160028201556060820151600382015560808201518051610ccf916004840191602090910190612607565b5060a091909101516005909101805460ff19169115159190911790558015610d31576000805461ff0019169055604051600181527f7f26b83ff96e1f2b6a682f133852f6798a09c465da95921460cefb38474024989060200160405180910390a15b50505050505050565b610d42612122565b610d4a610f7a565b610d52611019565b6106d56001606555565b610d64611f33565b6101308190556040518181527f6ab2e127d7fdf53b8f304e59d3aab5bfe97979f52a85479691a6fab27a28a6b290602001610806565b6060610133805480602002602001604051908101604052809291908181526020016000905b82821015610edb57838290600052602060002090600602016040518060c00160405290816000820154815260200160018201805480602002602001604051908101604052809291908181526020018280548015610e3b57602002820191906000526020600020905b815481526020019060010190808311610e27575b50505050508152602001600282015481526020016003820154815260200160048201805480602002602001604051908101604052809291908181526020018280548015610eb157602002820191906000526020600020905b81546001600160a01b03168152600190910190602001808311610e93575b50505091835250506005919091015460ff1615156020918201529082526001929092019101610dbf565b50505050905090565b610eec610f7a565b610ef4610fd3565b610efc611019565b6106ca611479565b610f0c611f33565b6001600160a01b038116610f715760405162461bcd60e51b815260206004820152602660248201527f4f776e61626c653a206e6577206f776e657220697320746865207a65726f206160448201526564647265737360d01b606482015260840161071f565b6107bc81611fdf565b600260655403610fcc5760405162461bcd60e51b815260206004820152601f60248201527f5265656e7472616e637947756172643a207265656e7472616e742063616c6c00604482015260640161071f565b6002606555565b60335460ff16156106d55760405162461bcd60e51b815260206004820152601060248201526f14185d5cd8589b194e881c185d5cd95960821b604482015260640161071f565b61012d5460408051632b0c491b60e11b815290516000926001600160a01b03169163561892369160048083019260209291908290030181865afa158015611064573d6000803e3d6000fd5b505050506040513d601f19601f820116820180604052508101906110889190612b00565b9050600061013382815481106110a0576110a0612a10565b90600052602060002090600602016040518060c0016040529081600082015481526020016001820180548060200260200160405190810160405280929190818152602001828054801561111257602002820191906000526020600020905b8154815260200190600101908083116110fe575b5050505050815260200160028201548152602001600382015481526020016004820180548060200260200160405190810160405280929190818152602001828054801561118857602002820191906000526020600020905b81546001600160a01b0316815260019091019060200180831161116a575b50505091835250506005919091015460ff16151560209091015260408101519091506000036111f05760405162461bcd60e51b815260206004820152601460248201527320bab1ba34b7b7103430b9b713ba103132b3bab760611b604482015260640161071f565b8060a00151156112425760405162461bcd60e51b815260206004820181905260248201527f41756374696f6e2068617320616c7265616479206265656e20736574746c6564604482015260640161071f565b80606001514210156112965760405162461bcd60e51b815260206004820152601860248201527f41756374696f6e206861736e277420636f6d706c657465640000000000000000604482015260640161071f565b600161013383815481106112ac576112ac612a10565b60009182526020822060069190910201600501805460ff191692151592909217909155608082015151819080820361134a5761012d548451604051630852cd8d60e31b81526001600160a01b03909216916342966c68916113139160040190815260200190565b600060405180830381600087803b15801561132d57600080fd5b505af1158015611341573d6000803e3d6000fd5b5050505061140d565b6000611357600183612aed565b90508460800151818151811061136f5761136f612a10565b602090810291909101015161012d5486516040516323b872dd60e01b81523060048201526001600160a01b038085166024830152604482019290925292955016906323b872dd90606401600060405180830381600087803b1580156113d357600080fd5b505af11580156113e7573d6000803e3d6000fd5b505050508460200151818151811061140157611401612a10565b60200260200101519350505b821561142e5761142e6114286097546001600160a01b031690565b8461216b565b8351604080516001600160a01b0385168152602081018690527fc9f72b276a388619c6d185d146697036241880c36654b1a3ffdad07c24038d99910160405180910390a25050505050565b61012d5460408051631249c58b60e01b815290516000926001600160a01b031691631249c58b916004808301926060929190829003018187875af19250505080156114e1575060408051601f3d908101601f191682019092526114de91810190612b29565b60015b611528576114ed612b65565b806308c379a00361151c5750611501612b80565b8061150c575061151e565b611514612031565b600091505090565b505b3d6000803e3d6000fd5b8115611660576101336040518060c001604052806002866115499190612aed565b81526020016000604051908082528060200260200182016040528015611579578160200160208202803683370190505b5081526020016000815260200160008152602001600067ffffffffffffffff8111156115a7576115a7612671565b6040519080825280602002602001820160405280156115d0578160200160208202803683370190505b50815260016020918201819052835480820185556000948552938290208351600690950201938455828201518051939493611613939285019291909101906125bc565b50604082015160028201556060820151600382015560808201518051611643916004840191602090910190612607565b5060a091909101516005909101805460ff19169115159190911790555b8015611798576101336040518060c001604052806001866116819190612aed565b815260200160006040519080825280602002602001820160405280156116b1578160200160208202803683370190505b5081526020016000815260200160008152602001600067ffffffffffffffff8111156116df576116df612671565b604051908082528060200260200182016040528015611708578160200160208202803683370190505b5081526001602091820181905283548082018555600094855293829020835160069095020193845582820151805193949361174b939285019291909101906125bc565b5060408201516002820155606082015160038201556080820151805161177b916004840191602090910190612607565b5060a091909101516005909101805460ff19169115159190911790555b6101325442906000906117ab9083612c0a565b90506101336040518060c00160405280878152602001600067ffffffffffffffff8111156117db576117db612671565b604051908082528060200260200182016040528015611804578160200160208202803683370190505b50815260208101859052604081018490526060016000604051908082528060200260200182016040528015611843578160200160208202803683370190505b5081526000602091820181905283546001818101865594825290829020835160069092020190815582820151805193949193611887939285019291909101906125bc565b506040820151600282015560608201516003820155608082015180516118b7916004840191602090910190612607565b5060a091909101516005909101805460ff1916911515919091179055604080518381526020810183905286917fd6eddd1118d71820909c1197aa966dbc15ed6f508554252169cc3d5ccac756ca910160405180910390a25092949350505050565b611920610fd3565b61013380546000919061193590600190612aed565b8154811061194557611945612a10565b90600052602060002090600602016040518060c001604052908160008201548152602001600182018054806020026020016040519081016040528092919081815260200182805480156119b757602002820191906000526020600020905b8154815260200190600101908083116119a3575b50505050508152602001600282015481526020016003820154815260200160048201805480602002602001604051908101604052809291908181526020018280548015611a2d57602002820191906000526020600020905b81546001600160a01b03168152600190910190602001808311611a0f575b50505091835250506005919091015460ff16151560209091015280519091508214611a9a5760405162461bcd60e51b815260206004820181905260248201527f4d65646963616c44414f4e4654206e6f7420757020666f722061756374696f6e604482015260640161071f565b80606001514210611adf5760405162461bcd60e51b815260206004820152600f60248201526e105d58dd1a5bdb88195e1c1a5c9959608a1b604482015260640161071f565b61013054341015611b325760405162461bcd60e51b815260206004820152601f60248201527f4d7573742073656e64206174206c656173742072657365727665507269636500604482015260640161071f565b6080810151516000808215611b92576000611b4e600185612aed565b905084602001518181518110611b6657611b66612a10565b6020026020010151925084608001518181518110611b8657611b86612a10565b60200260200101519150505b61013154606490611ba69060ff1684612c1d565b611bb09190612c34565b611bba9083612c0a565b341015611c31576040805162461bcd60e51b81526020600482015260248101919091527f4d7573742073656e64206d6f7265207468616e206c617374206269642062792060448201527f6d696e426964496e6372656d656e7450657263656e7461676520616d6f756e74606482015260840161071f565b6001600160a01b03811615611c4a57611c4a818361216b565b6101338581548110611c5e57611c5e612a10565b600091825260208083206001600690930201820180549283018155835290912034910155610133805486908110611c9757611c97612a10565b6000918252602080832060046006909302019190910180546001810182559083529082200180546001600160a01b0319163317905561012f546060860151611ce0904290612aed565b1090508015611d295761012f54611cf79042612c0a565b85606001818152506101338781548110611d1357611d13612a10565b9060005260206000209060060201600301819055505b8451604080513381523460208201528315158183015290517f1159164c56f277e6fc99c11731bd380e0347deb969b75523398734c252706ea39181900360600190a28015611dac57845160608601516040519081527f6e912a3a9105bdd2af817ba5adc14e6c127c1035b5b648faa29ca0d58ab8ff4e9060200160405180910390a25b505050505050565b6001606555565b6107bc611f33565b7f4910fdfa16fed3260ed0e7147f7cc6da11a60208b5b9406d12a635614ffd91435460ff1615611dfb57611df68361225c565b505050565b826001600160a01b03166352d1902d6040518163ffffffff1660e01b8152600401602060405180830381865afa925050508015611e55575060408051601f3d908101601f19168201909252611e5291810190612b00565b60015b611eb85760405162461bcd60e51b815260206004820152602e60248201527f45524331393637557067726164653a206e657720696d706c656d656e7461746960448201526d6f6e206973206e6f74205555505360901b606482015260840161071f565b600080516020612d308339815191528114611f275760405162461bcd60e51b815260206004820152602960248201527f45524331393637557067726164653a20756e737570706f727465642070726f786044820152681a58589b195555525160ba1b606482015260840161071f565b50611df68383836122f8565b6097546001600160a01b031633146106d55760405162461bcd60e51b815260206004820181905260248201527f4f776e61626c653a2063616c6c6572206973206e6f7420746865206f776e6572604482015260640161071f565b611f95612122565b6033805460ff191690557f5db9ee0a495bf2e6ff9c91a7834c1ba4fdd244a5e8aa4e537bd38aeae4b073aa335b6040516001600160a01b03909116815260200160405180910390a1565b609780546001600160a01b038381166001600160a01b0319831681179093556040519116919082907f8be0079c531659141344cd1fd0a4f28419497f9722a3daafe3b4186f6b6457e090600090a35050565b612039610fd3565b6033805460ff191660011790557f62e78cea01bee320cd4e420270b5ea74000d11b0c9f74754ebdbfc544b05a258611fc23390565b600054610100900460ff166120955760405162461bcd60e51b815260040161071f90612c56565b6106d5612323565b600054610100900460ff166120c45760405162461bcd60e51b815260040161071f90612c56565b6106d5612356565b600054610100900460ff166120f35760405162461bcd60e51b815260040161071f90612c56565b6106d561237d565b600054610100900460ff166106d55760405162461bcd60e51b815260040161071f90612c56565b60335460ff166106d55760405162461bcd60e51b815260206004820152601460248201527314185d5cd8589b194e881b9bdd081c185d5cd95960621b604482015260640161071f565b61217582826123ad565b6109325761012e60009054906101000a90046001600160a01b03166001600160a01b031663d0e30db0826040518263ffffffff1660e01b81526004016000604051808303818588803b1580156121ca57600080fd5b505af11580156121de573d6000803e3d6000fd5b505061012e5460405163a9059cbb60e01b81526001600160a01b03878116600483015260248201879052909116935063a9059cbb925060440190506020604051808303816000875af1158015612238573d6000803e3d6000fd5b505050506040513d601f19601f82011682018060405250810190611df69190612ca1565b6001600160a01b0381163b6122c95760405162461bcd60e51b815260206004820152602d60248201527f455243313936373a206e657720696d706c656d656e746174696f6e206973206e60448201526c1bdd08184818dbdb9d1c9858dd609a1b606482015260840161071f565b600080516020612d3083398151915280546001600160a01b0319166001600160a01b0392909216919091179055565b6123018361242d565b60008251118061230e5750805b15611df65761231d838361246d565b50505050565b600054610100900460ff1661234a5760405162461bcd60e51b815260040161071f90612c56565b6033805460ff19169055565b600054610100900460ff16611db45760405162461bcd60e51b815260040161071f90612c56565b600054610100900460ff166123a45760405162461bcd60e51b815260040161071f90612c56565b6106d533611fdf565b6040805160008082526020820190925281906001600160a01b038516906175309085906040516123dd9190612ce0565b600060405180830381858888f193505050503d806000811461241b576040519150601f19603f3d011682016040523d82523d6000602084013e612420565b606091505b5090925050505b92915050565b6124368161225c565b6040516001600160a01b038216907fbc7cd75a20ee27fd9adebab32041f755214dbc6bffa90cc0225b39da2e5c2d3b90600090a250565b60606124928383604051806060016040528060278152602001612d5060279139612499565b9392505050565b6060600080856001600160a01b0316856040516124b69190612ce0565b600060405180830381855af49150503d80600081146124f1576040519150601f19603f3d011682016040523d82523d6000602084013e6124f6565b606091505b509150915061250786838387612511565b9695505050505050565b60608315612580578251600003612579576001600160a01b0385163b6125795760405162461bcd60e51b815260206004820152601d60248201527f416464726573733a2063616c6c20746f206e6f6e2d636f6e7472616374000000604482015260640161071f565b508161258a565b61258a8383612592565b949350505050565b8151156125a25781518083602001fd5b8060405162461bcd60e51b815260040161071f9190612cfc565b8280548282559060005260206000209081019282156125f7579160200282015b828111156125f75782518255916020019190600101906125dc565b5061260392915061265c565b5090565b8280548282559060005260206000209081019282156125f7579160200282015b828111156125f757825182546001600160a01b0319166001600160a01b03909116178255602090920191600190910190612627565b5b80821115612603576000815560010161265d565b634e487b7160e01b600052604160045260246000fd5b601f8201601f1916810167ffffffffffffffff811182821017156126ad576126ad612671565b6040525050565b600060208083850312156126c757600080fd5b823567ffffffffffffffff808211156126df57600080fd5b818501915085601f8301126126f357600080fd5b81358181111561270557612705612671565b8060051b915060405161271a85840182612687565b8181529183018401918481018884111561273357600080fd5b938501935b8385101561274f5784358152938501938501612738565b50979650505050505050565b600081518084526020808501945080840160005b838110156127945781516001600160a01b03168752958201959082019060010161276f565b509495945050505050565b60006020808301818452808551808352604092508286019150828160051b8701018488016000805b8481101561287657898403603f190186528251805185528881015160c08a8701819052815190870181905260e08701918b019085905b8082101561281d5782518452928c0192918c0191600191909101906127fd565b50505081890151868a01526060808301519087015260808083015187830382890152612849838261275b565b9250505060a08083015192506128628188018415159052565b5096890196945050918701916001016127c7565b50919998505050505050505050565b6001600160a01b03811681146107bc57600080fd5b6000602082840312156128ac57600080fd5b813561249281612885565b803560ff811681146128c857600080fd5b919050565b6000602082840312156128df57600080fd5b612492826128b7565b600080604083850312156128fb57600080fd5b823561290681612885565b915060208381013567ffffffffffffffff8082111561292457600080fd5b818601915086601f83011261293857600080fd5b81358181111561294a5761294a612671565b6040519150612962601f8201601f1916850183612687565b808252878482850101111561297657600080fd5b80848401858401376000848284010152508093505050509250929050565b6000602082840312156129a657600080fd5b5035919050565b60008060008060008060c087890312156129c657600080fd5b86356129d181612885565b955060208701356129e181612885565b945060408701359350606087013592506129fd608088016128b7565b915060a087013590509295509295509295565b634e487b7160e01b600052603260045260246000fd5b634e487b7160e01b600052601160045260246000fd5b600060018201612a4e57612a4e612a26565b5060010190565b6020808252602c908201527f46756e6374696f6e206d7573742062652063616c6c6564207468726f7567682060408201526b19195b1959d85d1958d85b1b60a21b606082015260800190565b6020808252602c908201527f46756e6374696f6e206d7573742062652063616c6c6564207468726f7567682060408201526b6163746976652070726f787960a01b606082015260800190565b8181038181111561242757612427612a26565b600060208284031215612b1257600080fd5b5051919050565b805180151581146128c857600080fd5b600080600060608486031215612b3e57600080fd5b83519250612b4e60208501612b19565b9150612b5c60408501612b19565b90509250925092565b600060033d11156109e75760046000803e5060005160e01c90565b600060443d1015612b8e5790565b6040516003193d81016004833e81513d67ffffffffffffffff8160248401118184111715612bbe57505050505090565b8285019150815181811115612bd65750505050505090565b843d8701016020828501011115612bf05750505050505090565b612bff60208286010187612687565b509095945050505050565b8082018082111561242757612427612a26565b808202811582820484141761242757612427612a26565b600082612c5157634e487b7160e01b600052601260045260246000fd5b500490565b6020808252602b908201527f496e697469616c697a61626c653a20636f6e7472616374206973206e6f74206960408201526a6e697469616c697a696e6760a81b606082015260800190565b600060208284031215612cb357600080fd5b61249282612b19565b60005b83811015612cd7578181015183820152602001612cbf565b50506000910152565b60008251612cf2818460208701612cbc565b9190910192915050565b6020815260008251806020840152612d1b816040850160208701612cbc565b601f01601f1916919091016040019291505056fe360894a13ba1a3210667c828492db98dca3e2076cc3735a920a3ca505d382bbc416464726573733a206c6f772d6c6576656c2064656c65676174652063616c6c206661696c6564a26469706673582212206fb23745bcee22d86bcaea26911ac4e76739601f12809f7b5573cc89e93f15c864736f6c63430008130033",
  "linkReferences": {},
  "deployedLinkReferences": {}
}