{
  "_format": "hh-sol-artifact-1",
  "contractName": "AuctionHouse",
  "sourceName": "contracts/AuctionHouse.sol",
  "abi": [
    {
      "anonymous": false,
      "inputs": [
        {
          "indexed": false,
          "internalType": "address",
          "name": "previousAdmin",
          "type": "address"
        },
        {
          "indexed": false,
          "internalType": "address",
          "name": "newAdmin",
          "type": "address"
        }
      ],
      "name": "AdminChanged",
      "type": "event"
    },
    {
      "anonymous": false,
      "inputs": [
        {
          "indexed": true,
          "internalType": "uint256",
          "name": "tokenId",
          "type": "uint256"
        },
        {
          "indexed": false,
          "internalType": "address",
          "name": "sender",
          "type": "address"
        },
        {
          "indexed": false,
          "internalType": "uint256",
          "name": "value",
          "type": "uint256"
        },
        {
          "indexed": false,
          "internalType": "bool",
          "name": "extended",
          "type": "bool"
        }
      ],
      "name": "AuctionBid",
      "type": "event"
    },
    {
      "anonymous": false,
      "inputs": [
        {
          "indexed": true,
          "internalType": "uint256",
          "name": "tokenId",
          "type": "uint256"
        },
        {
          "indexed": false,
          "internalType": "uint256",
          "name": "startTime",
          "type": "uint256"
        },
        {
          "indexed": false,
          "internalType": "uint256",
          "name": "endTime",
          "type": "uint256"
        }
      ],
      "name": "AuctionCreated",
      "type": "event"
    },
    {
      "anonymous": false,
      "inputs": [
        {
          "indexed": true,
          "internalType": "uint256",
          "name": "tokenId",
          "type": "uint256"
        },
        {
          "indexed": false,
          "internalType": "uint256",
          "name": "endTime",
          "type": "uint256"
        }
      ],
      "name": "AuctionExtended",
      "type": "event"
    },
    {
      "anonymous": false,
      "inputs": [
        {
          "indexed": false,
          "internalType": "uint256",
          "name": "minBidIncrementPercentage",
          "type": "uint256"
        }
      ],
      "name": "AuctionMinBidIncrementPercentageUpdated",
      "type": "event"
    },
    {
      "anonymous": false,
      "inputs": [
        {
          "indexed": false,
          "internalType": "uint256",
          "name": "reservePrice",
          "type": "uint256"
        }
      ],
      "name": "AuctionReservePriceUpdated",
      "type": "event"
    },
    {
      "anonymous": false,
      "inputs": [
        {
          "indexed": true,
          "internalType": "uint256",
          "name": "tokenId",
          "type": "uint256"
        },
        {
          "indexed": false,
          "internalType": "address",
          "name": "winner",
          "type": "address"
        },
        {
          "indexed": false,
          "internalType": "uint256",
          "name": "amount",
          "type": "uint256"
        }
      ],
      "name": "AuctionSettled",
      "type": "event"
    },
    {
      "anonymous": false,
      "inputs": [
        {
          "indexed": false,
          "internalType": "uint256",
          "name": "timeBuffer",
          "type": "uint256"
        }
      ],
      "name": "AuctionTimeBufferUpdated",
      "type": "event"
    },
    {
      "anonymous": false,
      "inputs": [
        {
          "indexed": true,
          "internalType": "address",
          "name": "beacon",
          "type": "address"
        }
      ],
      "name": "BeaconUpgraded",
      "type": "event"
    },
    {
      "anonymous": false,
      "inputs": [
        {
          "indexed": false,
          "internalType": "uint8",
          "name": "version",
          "type": "uint8"
        }
      ],
      "name": "Initialized",
      "type": "event"
    },
    {
      "anonymous": false,
      "inputs": [
        {
          "indexed": true,
          "internalType": "address",
          "name": "previousOwner",
          "type": "address"
        },
        {
          "indexed": true,
          "internalType": "address",
          "name": "newOwner",
          "type": "address"
        }
      ],
      "name": "OwnershipTransferred",
      "type": "event"
    },
    {
      "anonymous": false,
      "inputs": [
        {
          "indexed": false,
          "internalType": "address",
          "name": "account",
          "type": "address"
        }
      ],
      "name": "Paused",
      "type": "event"
    },
    {
      "anonymous": false,
      "inputs": [
        {
          "indexed": false,
          "internalType": "address",
          "name": "account",
          "type": "address"
        }
      ],
      "name": "Unpaused",
      "type": "event"
    },
    {
      "anonymous": false,
      "inputs": [
        {
          "indexed": true,
          "internalType": "address",
          "name": "implementation",
          "type": "address"
        }
      ],
      "name": "Upgraded",
      "type": "event"
    },
    {
      "inputs": [],
      "name": "auction",
      "outputs": [
        {
          "internalType": "uint256",
          "name": "tokenId",
          "type": "uint256"
        },
        {
          "internalType": "uint256",
          "name": "amount",
          "type": "uint256"
        },
        {
          "internalType": "uint256",
          "name": "startTime",
          "type": "uint256"
        },
        {
          "internalType": "uint256",
          "name": "endTime",
          "type": "uint256"
        },
        {
          "internalType": "address payable",
          "name": "bidder",
          "type": "address"
        },
        {
          "internalType": "bool",
          "name": "settled",
          "type": "bool"
        }
      ],
      "stateMutability": "view",
      "type": "function"
    },
    {
      "inputs": [
        {
          "internalType": "uint256",
          "name": "tokenId",
          "type": "uint256"
        }
      ],
      "name": "createBid",
      "outputs": [],
      "stateMutability": "payable",
      "type": "function"
    },
    {
      "inputs": [],
      "name": "duration",
      "outputs": [
        {
          "internalType": "uint256",
          "name": "",
          "type": "uint256"
        }
      ],
      "stateMutability": "view",
      "type": "function"
    },
    {
      "inputs": [
        {
          "internalType": "contract IToken",
          "name": "_nft",
          "type": "address"
        },
        {
          "internalType": "address",
          "name": "_weth",
          "type": "address"
        },
        {
          "internalType": "uint256",
          "name": "_timeBuffer",
          "type": "uint256"
        },
        {
          "internalType": "uint256",
          "name": "_reservePrice",
          "type": "uint256"
        },
        {
          "internalType": "uint8",
          "name": "_minBidIncrementPercentage",
          "type": "uint8"
        },
        {
          "internalType": "uint256",
          "name": "_duration",
          "type": "uint256"
        }
      ],
      "name": "initialize",
      "outputs": [],
      "stateMutability": "nonpayable",
      "type": "function"
    },
    {
      "inputs": [],
      "name": "minBidIncrementPercentage",
      "outputs": [
        {
          "internalType": "uint8",
          "name": "",
          "type": "uint8"
        }
      ],
      "stateMutability": "view",
      "type": "function"
    },
    {
      "inputs": [],
      "name": "nft",
      "outputs": [
        {
          "internalType": "contract IToken",
          "name": "",
          "type": "address"
        }
      ],
      "stateMutability": "view",
      "type": "function"
    },
    {
      "inputs": [],
      "name": "owner",
      "outputs": [
        {
          "internalType": "address",
          "name": "",
          "type": "address"
        }
      ],
      "stateMutability": "view",
      "type": "function"
    },
    {
      "inputs": [],
      "name": "pause",
      "outputs": [],
      "stateMutability": "nonpayable",
      "type": "function"
    },
    {
      "inputs": [],
      "name": "paused",
      "outputs": [
        {
          "internalType": "bool",
          "name": "",
          "type": "bool"
        }
      ],
      "stateMutability": "view",
      "type": "function"
    },
    {
      "inputs": [],
      "name": "proxiableUUID",
      "outputs": [
        {
          "internalType": "bytes32",
          "name": "",
          "type": "bytes32"
        }
      ],
      "stateMutability": "view",
      "type": "function"
    },
    {
      "inputs": [],
      "name": "renounceOwnership",
      "outputs": [],
      "stateMutability": "nonpayable",
      "type": "function"
    },
    {
      "inputs": [],
      "name": "reservePrice",
      "outputs": [
        {
          "internalType": "uint256",
          "name": "",
          "type": "uint256"
        }
      ],
      "stateMutability": "view",
      "type": "function"
    },
    {
      "inputs": [
        {
          "internalType": "uint8",
          "name": "_minBidIncrementPercentage",
          "type": "uint8"
        }
      ],
      "name": "setMinBidIncrementPercentage",
      "outputs": [],
      "stateMutability": "nonpayable",
      "type": "function"
    },
    {
      "inputs": [
        {
          "internalType": "uint256",
          "name": "_reservePrice",
          "type": "uint256"
        }
      ],
      "name": "setReservePrice",
      "outputs": [],
      "stateMutability": "nonpayable",
      "type": "function"
    },
    {
      "inputs": [
        {
          "internalType": "uint256",
          "name": "_timeBuffer",
          "type": "uint256"
        }
      ],
      "name": "setTimeBuffer",
      "outputs": [],
      "stateMutability": "nonpayable",
      "type": "function"
    },
    {
      "inputs": [],
      "name": "settleAuction",
      "outputs": [],
      "stateMutability": "nonpayable",
      "type": "function"
    },
    {
      "inputs": [],
      "name": "settleCurrentAndCreateNewAuction",
      "outputs": [],
      "stateMutability": "nonpayable",
      "type": "function"
    },
    {
      "inputs": [],
      "name": "timeBuffer",
      "outputs": [
        {
          "internalType": "uint256",
          "name": "",
          "type": "uint256"
        }
      ],
      "stateMutability": "view",
      "type": "function"
    },
    {
      "inputs": [
        {
          "internalType": "address",
          "name": "newOwner",
          "type": "address"
        }
      ],
      "name": "transferOwnership",
      "outputs": [],
      "stateMutability": "nonpayable",
      "type": "function"
    },
    {
      "inputs": [],
      "name": "unpause",
      "outputs": [],
      "stateMutability": "nonpayable",
      "type": "function"
    },
    {
      "inputs": [
        {
          "internalType": "address",
          "name": "newImplementation",
          "type": "address"
        }
      ],
      "name": "upgradeTo",
      "outputs": [],
      "stateMutability": "nonpayable",
      "type": "function"
    },
    {
      "inputs": [
        {
          "internalType": "address",
          "name": "newImplementation",
          "type": "address"
        },
        {
          "internalType": "bytes",
          "name": "data",
          "type": "bytes"
        }
      ],
      "name": "upgradeToAndCall",
      "outputs": [],
      "stateMutability": "payable",
      "type": "function"
    },
    {
      "inputs": [],
      "name": "weth",
      "outputs": [
        {
          "internalType": "address",
          "name": "",
          "type": "address"
        }
      ],
      "stateMutability": "view",
      "type": "function"
    }
  ],
  "bytecode": "0x60a06040523060805234801561001457600080fd5b50608051611ec761004c6000396000818161044e01528181610497015281816105c10152818161060101526106940152611ec76000f3fe6080604052600436106101405760003560e01c8063715018a6116100b6578063b296024d1161006f578063b296024d14610394578063ce9c7c0d146103c1578063db2e1eed146103e1578063ec91f2a4146103f8578063f25efffc1461040f578063f2fde38b1461042457600080fd5b8063715018a61461029e5780637d9f6db5146102b35780638456cb591461032c57806387f49f54146103415780638da5cb5b14610361578063a4d0a17e1461037f57600080fd5b806347ccca021161010857806347ccca02146101ff5780634f1ef2861461022057806352d1902d146102335780635c975abb14610248578063659dd2b41461026b5780637120334b1461027e57600080fd5b80630fb5a6b4146101455780633659cfe61461016f57806336ebdb38146101915780633f4ba83a146101b15780633fc8cef3146101c6575b600080fd5b34801561015157600080fd5b5061015c6101325481565b6040519081526020015b60405180910390f35b34801561017b57600080fd5b5061018f61018a3660046119e6565b610444565b005b34801561019d57600080fd5b5061018f6101ac366004611a19565b61052c565b3480156101bd57600080fd5b5061018f61057e565b3480156101d257600080fd5b5061012e546101e7906001600160a01b031681565b6040516001600160a01b039091168152602001610166565b34801561020b57600080fd5b5061012d546101e7906001600160a01b031681565b61018f61022e366004611a77565b6105b7565b34801561023f57600080fd5b5061015c610687565b34801561025457600080fd5b5060335460ff166040519015158152602001610166565b61018f610279366004611b23565b61073b565b34801561028a57600080fd5b5061018f610299366004611b23565b610a2c565b3480156102aa57600080fd5b5061018f610a6a565b3480156102bf57600080fd5b5061013354610134546101355461013654610137546102f494939291906001600160a01b03811690600160a01b900460ff1686565b6040805196875260208701959095529385019290925260608401526001600160a01b03166080830152151560a082015260c001610166565b34801561033857600080fd5b5061018f610a7c565b34801561034d57600080fd5b5061018f61035c366004611b3c565b610a8c565b34801561036d57600080fd5b506097546001600160a01b03166101e7565b34801561038b57600080fd5b5061018f610c19565b3480156103a057600080fd5b50610131546103af9060ff1681565b60405160ff9091168152602001610166565b3480156103cd57600080fd5b5061018f6103dc366004611b23565b610c3b565b3480156103ed57600080fd5b5061015c6101305481565b34801561040457600080fd5b5061015c61012f5481565b34801561041b57600080fd5b5061018f610c79565b34801561043057600080fd5b5061018f61043f3660046119e6565b610c99565b6001600160a01b037f00000000000000000000000000000000000000000000000000000000000000001630036104955760405162461bcd60e51b815260040161048c90611b9f565b60405180910390fd5b7f00000000000000000000000000000000000000000000000000000000000000006001600160a01b03166104de600080516020611e4b833981519152546001600160a01b031690565b6001600160a01b0316146105045760405162461bcd60e51b815260040161048c90611beb565b61050d81610d0f565b6040805160008082526020820190925261052991839190610d17565b50565b610534610e87565b610131805460ff191660ff83169081179091556040519081527fec5ccd96cc77b6219e9d44143df916af68fc169339ea7de5008ff15eae13450d906020015b60405180910390a150565b610586610e87565b61058e610ee1565b6101355415806105a8575061013754600160a01b900460ff165b156105b5576105b5610f33565b565b6001600160a01b037f00000000000000000000000000000000000000000000000000000000000000001630036105ff5760405162461bcd60e51b815260040161048c90611b9f565b7f00000000000000000000000000000000000000000000000000000000000000006001600160a01b0316610648600080516020611e4b833981519152546001600160a01b031690565b6001600160a01b03161461066e5760405162461bcd60e51b815260040161048c90611beb565b61067782610d0f565b61068382826001610d17565b5050565b6000306001600160a01b037f000000000000000000000000000000000000000000000000000000000000000016146107275760405162461bcd60e51b815260206004820152603860248201527f555550535570677261646561626c653a206d757374206e6f742062652063616c60448201527f6c6564207468726f7567682064656c656761746563616c6c0000000000000000606482015260840161048c565b50600080516020611e4b8339815191525b90565b610743611091565b6040805160c081018252610133548082526101345460208301526101355492820192909252610136546060820152610137546001600160a01b0381166080830152600160a01b900460ff16151560a08201529082146107e45760405162461bcd60e51b815260206004820152601860248201527f546f6b656e206e6f7420757020666f722061756374696f6e0000000000000000604482015260640161048c565b806060015142106108295760405162461bcd60e51b815260206004820152600f60248201526e105d58dd1a5bdb88195e1c1a5c9959608a1b604482015260640161048c565b6101305434101561087c5760405162461bcd60e51b815260206004820152601f60248201527f4d7573742073656e64206174206c656173742072657365727665507269636500604482015260640161048c565b6101315460208201516064916108979160ff90911690611c4d565b6108a19190611c64565b81602001516108b09190611c86565b341015610927576040805162461bcd60e51b81526020600482015260248101919091527f4d7573742073656e64206d6f7265207468616e206c617374206269642062792060448201527f6d696e426964496e6372656d656e7450657263656e7461676520616d6f756e74606482015260840161048c565b60808101516001600160a01b03811615610949576109498183602001516110ea565b346101345561013780546001600160a01b0319163317905561012f54606083015160009190610979904290611c99565b109050801561099c5761012f546109909042611c86565b60608401819052610136555b8251604080513381523460208201528315158183015290517f1159164c56f277e6fc99c11731bd380e0347deb969b75523398734c252706ea39181900360600190a28015610a1f57825160608401516040519081527f6e912a3a9105bdd2af817ba5adc14e6c127c1035b5b648faa29ca0d58ab8ff4e9060200160405180910390a25b5050506105296001606555565b610a34610e87565b61012f8190556040518181527f1b55d9f7002bda4490f467e326f22a4a847629c0f2d1ed421607d318d25b410d90602001610573565b610a72610e87565b6105b560006111e2565b610a84610e87565b6105b5611234565b600054610100900460ff1615808015610aac5750600054600160ff909116105b80610ac65750303b158015610ac6575060005460ff166001145b610b295760405162461bcd60e51b815260206004820152602e60248201527f496e697469616c697a61626c653a20636f6e747261637420697320616c72656160448201526d191e481a5b9a5d1a585b1a5e995960921b606482015260840161048c565b6000805460ff191660011790558015610b4c576000805461ff0019166101001790555b610b54611271565b610b5c6112a0565b610b646112cf565b610b6c6112fe565b610b74611234565b61012d80546001600160a01b03808a166001600160a01b03199283161790925561012e80549289169290911691909117905561012f859055610130849055610131805460ff851660ff199091161790556101328290558015610c10576000805461ff0019169055604051600181527f7f26b83ff96e1f2b6a682f133852f6798a09c465da95921460cefb38474024989060200160405180910390a15b50505050505050565b610c21611325565b610c29611091565b610c3161136e565b6105b56001606555565b610c43610e87565b6101308190556040518181527f6ab2e127d7fdf53b8f304e59d3aab5bfe97979f52a85479691a6fab27a28a6b290602001610573565b610c81611091565b610c8961162b565b610c9161136e565b610c31610f33565b610ca1610e87565b6001600160a01b038116610d065760405162461bcd60e51b815260206004820152602660248201527f4f776e61626c653a206e6577206f776e657220697320746865207a65726f206160448201526564647265737360d01b606482015260840161048c565b610529816111e2565b610529610e87565b7f4910fdfa16fed3260ed0e7147f7cc6da11a60208b5b9406d12a635614ffd91435460ff1615610d4f57610d4a83611671565b505050565b826001600160a01b03166352d1902d6040518163ffffffff1660e01b8152600401602060405180830381865afa925050508015610da9575060408051601f3d908101601f19168201909252610da691810190611cac565b60015b610e0c5760405162461bcd60e51b815260206004820152602e60248201527f45524331393637557067726164653a206e657720696d706c656d656e7461746960448201526d6f6e206973206e6f74205555505360901b606482015260840161048c565b600080516020611e4b8339815191528114610e7b5760405162461bcd60e51b815260206004820152602960248201527f45524331393637557067726164653a20756e737570706f727465642070726f786044820152681a58589b195555525160ba1b606482015260840161048c565b50610d4a83838361170d565b6097546001600160a01b031633146105b55760405162461bcd60e51b815260206004820181905260248201527f4f776e61626c653a2063616c6c6572206973206e6f7420746865206f776e6572604482015260640161048c565b610ee9611325565b6033805460ff191690557f5db9ee0a495bf2e6ff9c91a7834c1ba4fdd244a5e8aa4e537bd38aeae4b073aa335b6040516001600160a01b03909116815260200160405180910390a1565b61012d60009054906101000a90046001600160a01b03166001600160a01b0316631249c58b6040518163ffffffff1660e01b81526004016020604051808303816000875af1925050508015610fa5575060408051601f3d908101601f19168201909252610fa291810190611cac565b60015b610fe457610fb1611cc5565b806308c379a003610fd85750610fc5611ce0565b80610fd05750610fda565b610529611234565b505b3d6000803e3d6000fd5b610132544290600090610ff79083611c86565b6040805160c08101825285815260006020808301829052828401879052606083018590526080830182905260a09092018190526101338790556101345561013585905561013683905561013780546001600160a81b0319169055815185815290810183905291925084917fd6eddd1118d71820909c1197aa966dbc15ed6f508554252169cc3d5ccac756ca910160405180910390a2505050565b6002606554036110e35760405162461bcd60e51b815260206004820152601f60248201527f5265656e7472616e637947756172643a207265656e7472616e742063616c6c00604482015260640161048c565b6002606555565b6110f48282611738565b6106835761012e60009054906101000a90046001600160a01b03166001600160a01b031663d0e30db0826040518263ffffffff1660e01b81526004016000604051808303818588803b15801561114957600080fd5b505af115801561115d573d6000803e3d6000fd5b505061012e5460405163a9059cbb60e01b81526001600160a01b03878116600483015260248201879052909116935063a9059cbb925060440190506020604051808303816000875af11580156111b7573d6000803e3d6000fd5b505050506040513d601f19601f82011682018060405250810190610d4a9190611d6a565b6001606555565b609780546001600160a01b038381166001600160a01b0319831681179093556040519116919082907f8be0079c531659141344cd1fd0a4f28419497f9722a3daafe3b4186f6b6457e090600090a35050565b61123c61162b565b6033805460ff191660011790557f62e78cea01bee320cd4e420270b5ea74000d11b0c9f74754ebdbfc544b05a258610f163390565b600054610100900460ff166112985760405162461bcd60e51b815260040161048c90611d8c565b6105b56117b8565b600054610100900460ff166112c75760405162461bcd60e51b815260040161048c90611d8c565b6105b56117eb565b600054610100900460ff166112f65760405162461bcd60e51b815260040161048c90611d8c565b6105b5611812565b600054610100900460ff166105b55760405162461bcd60e51b815260040161048c90611d8c565b60335460ff166105b55760405162461bcd60e51b815260206004820152601460248201527314185d5cd8589b194e881b9bdd081c185d5cd95960621b604482015260640161048c565b6040805160c08101825261013354815261013454602082015261013554918101829052610136546060820152610137546001600160a01b0381166080830152600160a01b900460ff16151560a0820152906000036114055760405162461bcd60e51b815260206004820152601460248201527320bab1ba34b7b7103430b9b713ba103132b3bab760611b604482015260640161048c565b8060a00151156114575760405162461bcd60e51b815260206004820181905260248201527f41756374696f6e2068617320616c7265616479206265656e20736574746c6564604482015260640161048c565b80606001514210156114ab5760405162461bcd60e51b815260206004820152601860248201527f41756374696f6e206861736e277420636f6d706c657465640000000000000000604482015260640161048c565b610137805460ff60a01b1916600160a01b17905560808101516001600160a01b031661153d5761012d548151604051630852cd8d60e31b81526001600160a01b03909216916342966c68916115069160040190815260200190565b600060405180830381600087803b15801561152057600080fd5b505af1158015611534573d6000803e3d6000fd5b505050506115b2565b61012d54608082015182516040516323b872dd60e01b81523060048201526001600160a01b03928316602482015260448101919091529116906323b872dd90606401600060405180830381600087803b15801561159957600080fd5b505af11580156115ad573d6000803e3d6000fd5b505050505b6020810151156115db576115db6115d16097546001600160a01b031690565b82602001516110ea565b80516080820151602080840151604080516001600160a01b039094168452918301527fc9f72b276a388619c6d185d146697036241880c36654b1a3ffdad07c24038d99910160405180910390a250565b60335460ff16156105b55760405162461bcd60e51b815260206004820152601060248201526f14185d5cd8589b194e881c185d5cd95960821b604482015260640161048c565b6001600160a01b0381163b6116de5760405162461bcd60e51b815260206004820152602d60248201527f455243313936373a206e657720696d706c656d656e746174696f6e206973206e60448201526c1bdd08184818dbdb9d1c9858dd609a1b606482015260840161048c565b600080516020611e4b83398151915280546001600160a01b0319166001600160a01b0392909216919091179055565b61171683611842565b6000825111806117235750805b15610d4a576117328383611882565b50505050565b6040805160008082526020820190925281906001600160a01b038516906175309085906040516117689190611dfb565b600060405180830381858888f193505050503d80600081146117a6576040519150601f19603f3d011682016040523d82523d6000602084013e6117ab565b606091505b5090925050505b92915050565b600054610100900460ff166117df5760405162461bcd60e51b815260040161048c90611d8c565b6033805460ff19169055565b600054610100900460ff166111db5760405162461bcd60e51b815260040161048c90611d8c565b600054610100900460ff166118395760405162461bcd60e51b815260040161048c90611d8c565b6105b5336111e2565b61184b81611671565b6040516001600160a01b038216907fbc7cd75a20ee27fd9adebab32041f755214dbc6bffa90cc0225b39da2e5c2d3b90600090a250565b60606118a78383604051806060016040528060278152602001611e6b602791396118ae565b9392505050565b6060600080856001600160a01b0316856040516118cb9190611dfb565b600060405180830381855af49150503d8060008114611906576040519150601f19603f3d011682016040523d82523d6000602084013e61190b565b606091505b509150915061191c86838387611926565b9695505050505050565b6060831561199557825160000361198e576001600160a01b0385163b61198e5760405162461bcd60e51b815260206004820152601d60248201527f416464726573733a2063616c6c20746f206e6f6e2d636f6e7472616374000000604482015260640161048c565b508161199f565b61199f83836119a7565b949350505050565b8151156119b75781518083602001fd5b8060405162461bcd60e51b815260040161048c9190611e17565b6001600160a01b038116811461052957600080fd5b6000602082840312156119f857600080fd5b81356118a7816119d1565b803560ff81168114611a1457600080fd5b919050565b600060208284031215611a2b57600080fd5b6118a782611a03565b634e487b7160e01b600052604160045260246000fd5b601f8201601f1916810167ffffffffffffffff81118282101715611a7057611a70611a34565b6040525050565b60008060408385031215611a8a57600080fd5b8235611a95816119d1565b915060208381013567ffffffffffffffff80821115611ab357600080fd5b818601915086601f830112611ac757600080fd5b813581811115611ad957611ad9611a34565b6040519150611af1601f8201601f1916850183611a4a565b8082528784828501011115611b0557600080fd5b80848401858401376000848284010152508093505050509250929050565b600060208284031215611b3557600080fd5b5035919050565b60008060008060008060c08789031215611b5557600080fd5b8635611b60816119d1565b95506020870135611b70816119d1565b94506040870135935060608701359250611b8c60808801611a03565b915060a087013590509295509295509295565b6020808252602c908201527f46756e6374696f6e206d7573742062652063616c6c6564207468726f7567682060408201526b19195b1959d85d1958d85b1b60a21b606082015260800190565b6020808252602c908201527f46756e6374696f6e206d7573742062652063616c6c6564207468726f7567682060408201526b6163746976652070726f787960a01b606082015260800190565b634e487b7160e01b600052601160045260246000fd5b80820281158282048414176117b2576117b2611c37565b600082611c8157634e487b7160e01b600052601260045260246000fd5b500490565b808201808211156117b2576117b2611c37565b818103818111156117b2576117b2611c37565b600060208284031215611cbe57600080fd5b5051919050565b600060033d11156107385760046000803e5060005160e01c90565b600060443d1015611cee5790565b6040516003193d81016004833e81513d67ffffffffffffffff8160248401118184111715611d1e57505050505090565b8285019150815181811115611d365750505050505090565b843d8701016020828501011115611d505750505050505090565b611d5f60208286010187611a4a565b509095945050505050565b600060208284031215611d7c57600080fd5b815180151581146118a757600080fd5b6020808252602b908201527f496e697469616c697a61626c653a20636f6e7472616374206973206e6f74206960408201526a6e697469616c697a696e6760a81b606082015260800190565b60005b83811015611df2578181015183820152602001611dda565b50506000910152565b60008251611e0d818460208701611dd7565b9190910192915050565b6020815260008251806020840152611e36816040850160208701611dd7565b601f01601f1916919091016040019291505056fe360894a13ba1a3210667c828492db98dca3e2076cc3735a920a3ca505d382bbc416464726573733a206c6f772d6c6576656c2064656c65676174652063616c6c206661696c6564a2646970667358221220f6f111bc027c3e31f87b4030565cd9c0ebae0e65c65c9e69c26efc794a1ccf9364736f6c63430008130033",
  "linkReferences": {},
  "deployedLinkReferences": {}
}