{
  "_format": "hh-sol-artifact-1",
  "contractName": "Descriptor",
  "sourceName": "contracts/Descriptor.sol",
  "abi": [
    {
      "inputs": [],
      "name": "IndexNotFound",
      "type": "error"
    },
    {
      "anonymous": false,
      "inputs": [
        {
          "indexed": false,
          "internalType": "string",
          "name": "baseURI",
          "type": "string"
        }
      ],
      "name": "BaseURIUpdated",
      "type": "event"
    },
    {
      "anonymous": false,
      "inputs": [
        {
          "indexed": false,
          "internalType": "bool",
          "name": "enabled",
          "type": "bool"
        }
      ],
      "name": "DataURIToggled",
      "type": "event"
    },
    {
      "anonymous": false,
      "inputs": [
        {
          "indexed": true,
          "internalType": "address",
          "name": "previousOwner",
          "type": "address"
        },
        {
          "indexed": true,
          "internalType": "address",
          "name": "newOwner",
          "type": "address"
        }
      ],
      "name": "OwnershipTransferred",
      "type": "event"
    },
    {
      "inputs": [],
      "name": "baseURI",
      "outputs": [
        {
          "internalType": "string",
          "name": "",
          "type": "string"
        }
      ],
      "stateMutability": "view",
      "type": "function"
    },
    {
      "inputs": [
        {
          "internalType": "uint256",
          "name": "tokenId",
          "type": "uint256"
        }
      ],
      "name": "dataURI",
      "outputs": [
        {
          "internalType": "string",
          "name": "",
          "type": "string"
        }
      ],
      "stateMutability": "view",
      "type": "function"
    },
    {
      "inputs": [
        {
          "internalType": "string",
          "name": "name",
          "type": "string"
        },
        {
          "internalType": "string",
          "name": "description",
          "type": "string"
        }
      ],
      "name": "genericDataURI",
      "outputs": [
        {
          "internalType": "string",
          "name": "",
          "type": "string"
        }
      ],
      "stateMutability": "view",
      "type": "function"
    },
    {
      "inputs": [],
      "name": "getImage",
      "outputs": [
        {
          "internalType": "string",
          "name": "image",
          "type": "string"
        }
      ],
      "stateMutability": "view",
      "type": "function"
    },
    {
      "inputs": [],
      "name": "isDataURIEnabled",
      "outputs": [
        {
          "internalType": "bool",
          "name": "",
          "type": "bool"
        }
      ],
      "stateMutability": "view",
      "type": "function"
    },
    {
      "inputs": [],
      "name": "owner",
      "outputs": [
        {
          "internalType": "address",
          "name": "",
          "type": "address"
        }
      ],
      "stateMutability": "view",
      "type": "function"
    },
    {
      "inputs": [],
      "name": "renounceOwnership",
      "outputs": [],
      "stateMutability": "nonpayable",
      "type": "function"
    },
    {
      "inputs": [
        {
          "internalType": "string",
          "name": "_baseURI",
          "type": "string"
        }
      ],
      "name": "setBaseURI",
      "outputs": [],
      "stateMutability": "nonpayable",
      "type": "function"
    },
    {
      "inputs": [],
      "name": "testImageCid",
      "outputs": [
        {
          "internalType": "string",
          "name": "",
          "type": "string"
        }
      ],
      "stateMutability": "view",
      "type": "function"
    },
    {
      "inputs": [],
      "name": "toggleDataURIEnabled",
      "outputs": [],
      "stateMutability": "nonpayable",
      "type": "function"
    },
    {
      "inputs": [
        {
          "internalType": "uint256",
          "name": "tokenId",
          "type": "uint256"
        }
      ],
      "name": "tokenURI",
      "outputs": [
        {
          "internalType": "string",
          "name": "",
          "type": "string"
        }
      ],
      "stateMutability": "view",
      "type": "function"
    },
    {
      "inputs": [
        {
          "internalType": "address",
          "name": "newOwner",
          "type": "address"
        }
      ],
      "name": "transferOwnership",
      "outputs": [],
      "stateMutability": "nonpayable",
      "type": "function"
    }
  ],
  "bytecode": "0x6000805460ff60a01b1916600160a01b17905560e0604052602e608081815290620011e360a0396002906200003590826200014a565b503480156200004357600080fd5b506200004f3362000055565b62000216565b600080546001600160a01b038381166001600160a01b0319831681178455604051919092169283917f8be0079c531659141344cd1fd0a4f28419497f9722a3daafe3b4186f6b6457e09190a35050565b634e487b7160e01b600052604160045260246000fd5b600181811c90821680620000d057607f821691505b602082108103620000f157634e487b7160e01b600052602260045260246000fd5b50919050565b601f8211156200014557600081815260208120601f850160051c81016020861015620001205750805b601f850160051c820191505b8181101562000141578281556001016200012c565b5050505b505050565b81516001600160401b03811115620001665762000166620000a5565b6200017e81620001778454620000bb565b84620000f7565b602080601f831160018114620001b657600084156200019d5750858301515b600019600386901b1c1916600185901b17855562000141565b600085815260208120601f198616915b82811015620001e757888601518255948401946001909101908401620001c6565b5085821015620002065787850151600019600388901b60f8161c191681555b5050505050600190811b01905550565b610fbd80620002266000396000f3fe608060405234801561001057600080fd5b50600436106100b45760003560e01c8063c87b56dd11610071578063c87b56dd1461012a578063ce2f4f531461013d578063dbf4f0fd14610161578063dfe8478b14610174578063f2fde38b1461017c578063f3651cbb1461018f57600080fd5b80630ffa47f2146100b957806355f804b3146100d75780635ac1e3bb146100ec5780636c0360eb146100ff578063715018a6146101075780638da5cb5b1461010f575b600080fd5b6100c1610197565b6040516100ce919061096b565b60405180910390f35b6100ea6100e536600461099e565b610225565b005b6100c16100fa366004610a10565b610278565b6100c16102e2565b6100ea6102ef565b6000546040516001600160a01b0390911681526020016100ce565b6100c1610138366004610a10565b610303565b60005461015190600160a01b900460ff1681565b60405190151581526020016100ce565b6100c161016f366004610acc565b610359565b6100ea610415565b6100ea61018a366004610b30565b610473565b6100c16104f1565b600280546101a490610b60565b80601f01602080910402602001604051908101604052809291908181526020018280546101d090610b60565b801561021d5780601f106101f25761010080835404028352916020019161021d565b820191906000526020600020905b81548152906001019060200180831161020057829003601f168201915b505050505081565b61022d610583565b600161023a828483610be9565b507f6741b2fc379fad678116fe3d4d4b9a1a184ab53ba36b86ad0fa66340b1ab41ad828260405161026c929190610caa565b60405180910390a15050565b60606000610285836105dd565b905060008160405160200161029a9190610cd9565b60405160208183030381529060405290506000826040516020016102be9190610d11565b60405160208183030381529060405290506102d98282610359565b95945050505050565b600180546101a490610b60565b6102f7610583565b6103016000610670565b565b600054606090600160a01b900460ff16156103275761032182610278565b92915050565b6001610332836105dd565b604051602001610343929190610d70565b6040516020818303038152906040529050919050565b6060600060405180606001604052808581526020018481526020016002805461038190610b60565b80601f01602080910402602001604051908101604052809291908181526020018280546103ad90610b60565b80156103fa5780601f106103cf576101008083540402835291602001916103fa565b820191906000526020600020905b8154815290600101906020018083116103dd57829003601f168201915b5050505050815250905061040d816106c0565b949350505050565b61041d610583565b6000805460ff60a01b198116600160a01b9182900460ff1615918202179091556040518181527f360c3d72ee193226275b842f85231c259c934e85459fed80fa68e502ffa9dbde9060200160405180910390a150565b61047b610583565b6001600160a01b0381166104e55760405162461bcd60e51b815260206004820152602660248201527f4f776e61626c653a206e6577206f776e657220697320746865207a65726f206160448201526564647265737360d01b60648201526084015b60405180910390fd5b6104ee81610670565b50565b60606002805461050090610b60565b80601f016020809104026020016040519081016040528092919081815260200182805461052c90610b60565b80156105795780601f1061054e57610100808354040283529160200191610579565b820191906000526020600020905b81548152906001019060200180831161055c57829003601f168201915b5050505050905090565b6000546001600160a01b031633146103015760405162461bcd60e51b815260206004820181905260248201527f4f776e61626c653a2063616c6c6572206973206e6f7420746865206f776e657260448201526064016104dc565b606060006105ea8361070a565b600101905060008167ffffffffffffffff81111561060a5761060a610a29565b6040519080825280601f01601f191660200182016040528015610634576020820181803683370190505b5090508181016020015b600019016f181899199a1a9b1b9c1cb0b131b232b360811b600a86061a8153600a850494508461063e57509392505050565b600080546001600160a01b038381166001600160a01b0319831681178455604051919092169283917f8be0079c531659141344cd1fd0a4f28419497f9722a3daafe3b4186f6b6457e09190a35050565b60606106fa8260000151836020015184604001516040516020016106e693929190610df7565b6040516020818303038152906040526107e2565b6040516020016103439190610ea0565b60008072184f03e93ff9f4daa797ed6e38ed64bf6a1f0160401b83106107495772184f03e93ff9f4daa797ed6e38ed64bf6a1f0160401b830492506040015b6d04ee2d6d415b85acef81000000008310610775576d04ee2d6d415b85acef8100000000830492506020015b662386f26fc10000831061079357662386f26fc10000830492506010015b6305f5e10083106107ab576305f5e100830492506008015b61271083106107bf57612710830492506004015b606483106107d1576064830492506002015b600a83106103215760010192915050565b6060815160000361080157505060408051602081019091526000815290565b6000604051806060016040528060408152602001610f4860409139905060006003845160026108309190610efb565b61083a9190610f0e565b610845906004610f30565b90506000610854826020610efb565b67ffffffffffffffff81111561086c5761086c610a29565b6040519080825280601f01601f191660200182016040528015610896576020820181803683370190505b509050818152600183018586518101602084015b81831015610902576003830192508251603f8160121c168501518253600182019150603f81600c1c168501518253600182019150603f8160061c168501518253600182019150603f81168501518253506001016108aa565b60038951066001811461091c576002811461092d57610939565b613d3d60f01b600119830152610939565b603d60f81b6000198301525b509398975050505050505050565b60005b8381101561096257818101518382015260200161094a565b50506000910152565b602081526000825180602084015261098a816040850160208701610947565b601f01601f19169190910160400192915050565b600080602083850312156109b157600080fd5b823567ffffffffffffffff808211156109c957600080fd5b818501915085601f8301126109dd57600080fd5b8135818111156109ec57600080fd5b8660208285010111156109fe57600080fd5b60209290920196919550909350505050565b600060208284031215610a2257600080fd5b5035919050565b634e487b7160e01b600052604160045260246000fd5b600082601f830112610a5057600080fd5b813567ffffffffffffffff80821115610a6b57610a6b610a29565b604051601f8301601f19908116603f01168101908282118183101715610a9357610a93610a29565b81604052838152866020858801011115610aac57600080fd5b836020870160208301376000602085830101528094505050505092915050565b60008060408385031215610adf57600080fd5b823567ffffffffffffffff80821115610af757600080fd5b610b0386838701610a3f565b93506020850135915080821115610b1957600080fd5b50610b2685828601610a3f565b9150509250929050565b600060208284031215610b4257600080fd5b81356001600160a01b0381168114610b5957600080fd5b9392505050565b600181811c90821680610b7457607f821691505b602082108103610b9457634e487b7160e01b600052602260045260246000fd5b50919050565b601f821115610be457600081815260208120601f850160051c81016020861015610bc15750805b601f850160051c820191505b81811015610be057828155600101610bcd565b5050505b505050565b67ffffffffffffffff831115610c0157610c01610a29565b610c1583610c0f8354610b60565b83610b9a565b6000601f841160018114610c495760008515610c315750838201355b600019600387901b1c1916600186901b178355610ca3565b600083815260209020601f19861690835b82811015610c7a5786850135825560209485019460019092019101610c5a565b5086821015610c975760001960f88860031b161c19848701351681555b505060018560011b0183555b5050505050565b60208152816020820152818360408301376000818301604090810191909152601f909201601f19160101919050565b6f026b2b234b1b0b6102220a79027232a160851b815260008251610d04816010850160208701610947565b9190910160100192915050565b6f026b2b234b1b0b6102220a79027232a160851b815260008251610d3c816010850160208701610947565b7f2069732061206d656d626572206f6620746865204d65646963616c2044414f006010939091019283015250602f01919050565b6000808454610d7e81610b60565b60018281168015610d965760018114610dab57610dda565b60ff1984168752821515830287019450610dda565b8860005260208060002060005b85811015610dd15781548a820152908401908201610db8565b50505082870194505b505050508351610dee818360208801610947565b01949350505050565b683d913730b6b2911d1160b91b81528351600090610e1c816009850160208901610947565b71111610113232b9b1b934b83a34b7b7111d1160711b6009918401918201528451610e4e81601b840160208901610947565b74088b08089a5b5859d9488e88089a5c199cce8bcbcb605a1b601b92909101918201528351610e84816030840160208801610947565b61227d60f01b6030929091019182015260320195945050505050565b7f646174613a6170706c69636174696f6e2f6a736f6e3b6261736536342c000000815260008251610ed881601d850160208701610947565b91909101601d0192915050565b634e487b7160e01b600052601160045260246000fd5b8082018082111561032157610321610ee5565b600082610f2b57634e487b7160e01b600052601260045260246000fd5b500490565b808202811582820484141761032157610321610ee556fe4142434445464748494a4b4c4d4e4f505152535455565758595a6162636465666768696a6b6c6d6e6f707172737475767778797a303132333435363738392b2fa26469706673582212200a2a63395811f802662de495b5a76279e641217fba93102daaa6c84249fe235364736f6c63430008120033516d504539744b6b4c6b544a48717a72373765706b5061796f3948686555474c6a79736e4a7552334d5161524233",
  "linkReferences": {},
  "deployedLinkReferences": {}
}