{
  "_format": "hh-sol-artifact-1",
  "contractName": "Descriptor",
  "sourceName": "contracts/Descriptor.sol",
  "abi": [
    {
      "anonymous": false,
      "inputs": [
        {
          "indexed": false,
          "internalType": "string",
          "name": "baseCID",
          "type": "string"
        }
      ],
      "name": "BaseCIDUpdated",
      "type": "event"
    },
    {
      "anonymous": false,
      "inputs": [
        {
          "indexed": true,
          "internalType": "address",
          "name": "previousOwner",
          "type": "address"
        },
        {
          "indexed": true,
          "internalType": "address",
          "name": "newOwner",
          "type": "address"
        }
      ],
      "name": "OwnershipTransferred",
      "type": "event"
    },
    {
      "inputs": [],
      "name": "cid",
      "outputs": [
        {
          "internalType": "string",
          "name": "",
          "type": "string"
        }
      ],
      "stateMutability": "view",
      "type": "function"
    },
    {
      "inputs": [],
      "name": "getCID",
      "outputs": [
        {
          "internalType": "string",
          "name": "",
          "type": "string"
        }
      ],
      "stateMutability": "view",
      "type": "function"
    },
    {
      "inputs": [
        {
          "internalType": "uint256",
          "name": "tokenId",
          "type": "uint256"
        }
      ],
      "name": "getImage",
      "outputs": [
        {
          "internalType": "string",
          "name": "",
          "type": "string"
        }
      ],
      "stateMutability": "view",
      "type": "function"
    },
    {
      "inputs": [],
      "name": "owner",
      "outputs": [
        {
          "internalType": "address",
          "name": "",
          "type": "address"
        }
      ],
      "stateMutability": "view",
      "type": "function"
    },
    {
      "inputs": [],
      "name": "renounceOwnership",
      "outputs": [],
      "stateMutability": "nonpayable",
      "type": "function"
    },
    {
      "inputs": [
        {
          "internalType": "string",
          "name": "_cid",
          "type": "string"
        }
      ],
      "name": "setCID",
      "outputs": [],
      "stateMutability": "nonpayable",
      "type": "function"
    },
    {
      "inputs": [
        {
          "internalType": "uint256",
          "name": "tokenId",
          "type": "uint256"
        }
      ],
      "name": "tokenURI",
      "outputs": [
        {
          "internalType": "string",
          "name": "",
          "type": "string"
        }
      ],
      "stateMutability": "view",
      "type": "function"
    },
    {
      "inputs": [
        {
          "internalType": "address",
          "name": "newOwner",
          "type": "address"
        }
      ],
      "name": "transferOwnership",
      "outputs": [],
      "stateMutability": "nonpayable",
      "type": "function"
    }
  ],
  "bytecode": "0x60e0604052602e60808181529062000f8260a03960019062000022908262000137565b503480156200003057600080fd5b506200003c3362000042565b62000203565b600080546001600160a01b038381166001600160a01b0319831681178455604051919092169283917f8be0079c531659141344cd1fd0a4f28419497f9722a3daafe3b4186f6b6457e09190a35050565b634e487b7160e01b600052604160045260246000fd5b600181811c90821680620000bd57607f821691505b602082108103620000de57634e487b7160e01b600052602260045260246000fd5b50919050565b601f8211156200013257600081815260208120601f850160051c810160208610156200010d5750805b601f850160051c820191505b818110156200012e5782815560010162000119565b5050505b505050565b81516001600160401b0381111562000153576200015362000092565b6200016b81620001648454620000a8565b84620000e4565b602080601f831160018114620001a357600084156200018a5750858301515b600019600386901b1c1916600185901b1785556200012e565b600085815260208120601f198616915b82811015620001d457888601518255948401946001909101908401620001b3565b5085821015620001f35787850151600019600388901b60f8161c191681555b5050505050600190811b01905550565b610d6f80620002136000396000f3fe608060405234801561001057600080fd5b50600436106100885760003560e01c8063aa3ec0a91161005b578063aa3ec0a9146100e3578063c3d6ee7f146100eb578063c87b56dd146100fe578063f2fde38b1461011157600080fd5b806302790e341461008d5780632607aafa146100ab578063715018a6146100be5780638da5cb5b146100c8575b600080fd5b610095610124565b6040516100a291906107ca565b60405180910390f35b6100956100b93660046107fd565b6101b6565b6100c66101ea565b005b6000546040516001600160a01b0390911681526020016100a2565b6100956101fe565b6100c66100f9366004610816565b61028c565b61009561010c3660046107fd565b6102df565b6100c661011f366004610888565b610363565b606060018054610133906108b8565b80601f016020809104026020016040519081016040528092919081815260200182805461015f906108b8565b80156101ac5780601f10610181576101008083540402835291602001916101ac565b820191906000526020600020905b81548152906001019060200180831161018f57829003601f168201915b5050505050905090565b606060016101c3836103e1565b6040516020016101d492919061090e565b6040516020818303038152906040529050919050565b6101f2610474565b6101fc60006104ce565b565b6001805461020b906108b8565b80601f0160208091040260200160405190810160405280929190818152602001828054610237906108b8565b80156102845780601f1061025957610100808354040283529160200191610284565b820191906000526020600020905b81548152906001019060200180831161026757829003601f168201915b505050505081565b610294610474565b60016102a1828483610a2a565b507f693264b9cb1be7d98cf4877946ecbf6658c351e223b9c7eb21e53b31a68760b282826040516102d3929190610aeb565b60405180910390a15050565b606060006102ec836103e1565b9050600060405180606001604052808360405160200161030c9190610b1a565b6040516020818303038152906040528152602001836040516020016103319190610b52565b604051602081830303815290604052815260200161034e866101b6565b9052905061035b8161051e565b949350505050565b61036b610474565b6001600160a01b0381166103d55760405162461bcd60e51b815260206004820152602660248201527f4f776e61626c653a206e6577206f776e657220697320746865207a65726f206160448201526564647265737360d01b60648201526084015b60405180910390fd5b6103de816104ce565b50565b606060006103ee83610568565b600101905060008167ffffffffffffffff81111561040e5761040e6109c5565b6040519080825280601f01601f191660200182016040528015610438576020820181803683370190505b5090508181016020015b600019016f181899199a1a9b1b9c1cb0b131b232b360811b600a86061a8153600a850494508461044257509392505050565b6000546001600160a01b031633146101fc5760405162461bcd60e51b815260206004820181905260248201527f4f776e61626c653a2063616c6c6572206973206e6f7420746865206f776e657260448201526064016103cc565b600080546001600160a01b038381166001600160a01b0319831681178455604051919092169283917f8be0079c531659141344cd1fd0a4f28419497f9722a3daafe3b4186f6b6457e09190a35050565b606061055882600001518360200151846040015160405160200161054493929190610bb1565b604051602081830303815290604052610641565b6040516020016101d49190610c52565b60008072184f03e93ff9f4daa797ed6e38ed64bf6a1f0160401b83106105a75772184f03e93ff9f4daa797ed6e38ed64bf6a1f0160401b830492506040015b6d04ee2d6d415b85acef810000000083106105d3576d04ee2d6d415b85acef8100000000830492506020015b662386f26fc1000083106105f157662386f26fc10000830492506010015b6305f5e1008310610609576305f5e100830492506008015b612710831061061d57612710830492506004015b6064831061062f576064830492506002015b600a831061063b576001015b92915050565b6060815160000361066057505060408051602081019091526000815290565b6000604051806060016040528060408152602001610cfa604091399050600060038451600261068f9190610cad565b6106999190610cc0565b6106a4906004610ce2565b905060006106b3826020610cad565b67ffffffffffffffff8111156106cb576106cb6109c5565b6040519080825280601f01601f1916602001820160405280156106f5576020820181803683370190505b509050818152600183018586518101602084015b81831015610761576003830192508251603f8160121c168501518253600182019150603f81600c1c168501518253600182019150603f8160061c168501518253600182019150603f8116850151825350600101610709565b60038951066001811461077b576002811461078c57610798565b613d3d60f01b600119830152610798565b603d60f81b6000198301525b509398975050505050505050565b60005b838110156107c15781810151838201526020016107a9565b50506000910152565b60208152600082518060208401526107e98160408501602087016107a6565b601f01601f19169190910160400192915050565b60006020828403121561080f57600080fd5b5035919050565b6000806020838503121561082957600080fd5b823567ffffffffffffffff8082111561084157600080fd5b818501915085601f83011261085557600080fd5b81358181111561086457600080fd5b86602082850101111561087657600080fd5b60209290920196919550909350505050565b60006020828403121561089a57600080fd5b81356001600160a01b03811681146108b157600080fd5b9392505050565b600181811c908216806108cc57607f821691505b6020821081036108ec57634e487b7160e01b600052602260045260246000fd5b50919050565b600081516109048185602086016107a6565b9290920192915050565b66697066733a2f2f60c81b8152600060076000855461092c816108b8565b60018281168015610944576001811461095d57610990565b60ff198416888701528215158302880186019450610990565b8960005260208060002060005b858110156109855781548b82018a015290840190820161096a565b505050858389010194505b50602f60f81b84526109a4818501896108f2565b9450505050506109ba81632e706e6760e01b9052565b600401949350505050565b634e487b7160e01b600052604160045260246000fd5b601f821115610a2557600081815260208120601f850160051c81016020861015610a025750805b601f850160051c820191505b81811015610a2157828155600101610a0e565b5050505b505050565b67ffffffffffffffff831115610a4257610a426109c5565b610a5683610a5083546108b8565b836109db565b6000601f841160018114610a8a5760008515610a725750838201355b600019600387901b1c1916600186901b178355610ae4565b600083815260209020601f19861690835b82811015610abb5786850135825560209485019460019092019101610a9b565b5086821015610ad85760001960f88860031b161c19848701351681555b505060018560011b0183555b5050505050565b60208152816020820152818360408301376000818301604090810191909152601f909201601f19160101919050565b6f026b2b234b1b0b6102220a79027232a160851b815260008251610b458160108501602087016107a6565b9190910160100192915050565b6f026b2b234b1b0b6102220a79027232a160851b815260008251610b7d8160108501602087016107a6565b7f2069732061206d656d626572206f6620746865204d65646963616c2044414f006010939091019283015250602f01919050565b683d913730b6b2911d1160b91b81528351600090610bd68160098501602089016107a6565b71111610113232b9b1b934b83a34b7b7111d1160711b6009918401918201528451610c0881601b8401602089016107a6565b6c1116101134b6b0b3b2911d101160991b601b92909101918201528351610c368160288401602088016107a6565b61227d60f01b60289290910191820152602a0195945050505050565b7f646174613a6170706c69636174696f6e2f6a736f6e3b6261736536342c000000815260008251610c8a81601d8501602087016107a6565b91909101601d0192915050565b634e487b7160e01b600052601160045260246000fd5b8082018082111561063b5761063b610c97565b600082610cdd57634e487b7160e01b600052601260045260246000fd5b500490565b808202811582820484141761063b5761063b610c9756fe4142434445464748494a4b4c4d4e4f505152535455565758595a6162636465666768696a6b6c6d6e6f707172737475767778797a303132333435363738392b2fa2646970667358221220daeb368a2a2e84839a3754f3c17c90287c816432db1f6bf00995358f217d480164736f6c63430008130033516d57646348524e61454546627065786b4a434a534c32364b4c3661624b597a41565751697757453733444d326e",
  "linkReferences": {},
  "deployedLinkReferences": {}
}