{
  "_format": "hh-sol-artifact-1",
  "contractName": "MedicalDAONFT",
  "sourceName": "contracts/MedicalDAONFT.sol",
  "abi": [
    {
      "inputs": [
        {
          "internalType": "address",
          "name": "_foundersDAO",
          "type": "address"
        },
        {
          "internalType": "address",
          "name": "_foundersDAO2",
          "type": "address"
        },
        {
          "internalType": "address",
          "name": "_minter",
          "type": "address"
        },
        {
          "internalType": "contract IDescriptorMinimal",
          "name": "_descriptor",
          "type": "address"
        }
      ],
      "stateMutability": "nonpayable",
      "type": "constructor"
    },
    {
      "anonymous": false,
      "inputs": [
        {
          "indexed": true,
          "internalType": "address",
          "name": "owner",
          "type": "address"
        },
        {
          "indexed": true,
          "internalType": "address",
          "name": "approved",
          "type": "address"
        },
        {
          "indexed": true,
          "internalType": "uint256",
          "name": "tokenId",
          "type": "uint256"
        }
      ],
      "name": "Approval",
      "type": "event"
    },
    {
      "anonymous": false,
      "inputs": [
        {
          "indexed": true,
          "internalType": "address",
          "name": "owner",
          "type": "address"
        },
        {
          "indexed": true,
          "internalType": "address",
          "name": "operator",
          "type": "address"
        },
        {
          "indexed": false,
          "internalType": "bool",
          "name": "approved",
          "type": "bool"
        }
      ],
      "name": "ApprovalForAll",
      "type": "event"
    },
    {
      "anonymous": false,
      "inputs": [
        {
          "indexed": false,
          "internalType": "string",
          "name": "contractUri",
          "type": "string"
        }
      ],
      "name": "ContractUriUpdated",
      "type": "event"
    },
    {
      "anonymous": false,
      "inputs": [
        {
          "indexed": true,
          "internalType": "address",
          "name": "delegator",
          "type": "address"
        },
        {
          "indexed": true,
          "internalType": "address",
          "name": "fromDelegate",
          "type": "address"
        },
        {
          "indexed": true,
          "internalType": "address",
          "name": "toDelegate",
          "type": "address"
        }
      ],
      "name": "DelegateChanged",
      "type": "event"
    },
    {
      "anonymous": false,
      "inputs": [
        {
          "indexed": true,
          "internalType": "address",
          "name": "delegate",
          "type": "address"
        },
        {
          "indexed": false,
          "internalType": "uint256",
          "name": "previousBalance",
          "type": "uint256"
        },
        {
          "indexed": false,
          "internalType": "uint256",
          "name": "newBalance",
          "type": "uint256"
        }
      ],
      "name": "DelegateVotesChanged",
      "type": "event"
    },
    {
      "anonymous": false,
      "inputs": [],
      "name": "DescriptorLocked",
      "type": "event"
    },
    {
      "anonymous": false,
      "inputs": [
        {
          "indexed": false,
          "internalType": "contract IDescriptorMinimal",
          "name": "descriptor",
          "type": "address"
        }
      ],
      "name": "DescriptorUpdated",
      "type": "event"
    },
    {
      "anonymous": false,
      "inputs": [
        {
          "indexed": false,
          "internalType": "address",
          "name": "foundersDAO",
          "type": "address"
        }
      ],
      "name": "FoundersDAOUpdated",
      "type": "event"
    },
    {
      "anonymous": false,
      "inputs": [
        {
          "indexed": false,
          "internalType": "address",
          "name": "foundersDAO2",
          "type": "address"
        }
      ],
      "name": "FoundersDAOUpdated2",
      "type": "event"
    },
    {
      "anonymous": false,
      "inputs": [],
      "name": "MinterLocked",
      "type": "event"
    },
    {
      "anonymous": false,
      "inputs": [
        {
          "indexed": false,
          "internalType": "address",
          "name": "minter",
          "type": "address"
        }
      ],
      "name": "MinterUpdated",
      "type": "event"
    },
    {
      "anonymous": false,
      "inputs": [
        {
          "indexed": true,
          "internalType": "address",
          "name": "previousOwner",
          "type": "address"
        },
        {
          "indexed": true,
          "internalType": "address",
          "name": "newOwner",
          "type": "address"
        }
      ],
      "name": "OwnershipTransferred",
      "type": "event"
    },
    {
      "anonymous": false,
      "inputs": [
        {
          "indexed": true,
          "internalType": "uint256",
          "name": "tokenId",
          "type": "uint256"
        }
      ],
      "name": "TokenBurned",
      "type": "event"
    },
    {
      "anonymous": false,
      "inputs": [
        {
          "indexed": true,
          "internalType": "uint256",
          "name": "tokenId",
          "type": "uint256"
        }
      ],
      "name": "TokenCreated",
      "type": "event"
    },
    {
      "anonymous": false,
      "inputs": [
        {
          "indexed": true,
          "internalType": "address",
          "name": "from",
          "type": "address"
        },
        {
          "indexed": true,
          "internalType": "address",
          "name": "to",
          "type": "address"
        },
        {
          "indexed": true,
          "internalType": "uint256",
          "name": "tokenId",
          "type": "uint256"
        }
      ],
      "name": "Transfer",
      "type": "event"
    },
    {
      "inputs": [],
      "name": "DELEGATION_TYPEHASH",
      "outputs": [
        {
          "internalType": "bytes32",
          "name": "",
          "type": "bytes32"
        }
      ],
      "stateMutability": "view",
      "type": "function"
    },
    {
      "inputs": [],
      "name": "DOMAIN_TYPEHASH",
      "outputs": [
        {
          "internalType": "bytes32",
          "name": "",
          "type": "bytes32"
        }
      ],
      "stateMutability": "view",
      "type": "function"
    },
    {
      "inputs": [
        {
          "internalType": "address",
          "name": "to",
          "type": "address"
        },
        {
          "internalType": "uint256",
          "name": "tokenId",
          "type": "uint256"
        }
      ],
      "name": "approve",
      "outputs": [],
      "stateMutability": "nonpayable",
      "type": "function"
    },
    {
      "inputs": [
        {
          "internalType": "address",
          "name": "owner",
          "type": "address"
        }
      ],
      "name": "balanceOf",
      "outputs": [
        {
          "internalType": "uint256",
          "name": "",
          "type": "uint256"
        }
      ],
      "stateMutability": "view",
      "type": "function"
    },
    {
      "inputs": [
        {
          "internalType": "uint256",
          "name": "tokenId",
          "type": "uint256"
        }
      ],
      "name": "burn",
      "outputs": [],
      "stateMutability": "nonpayable",
      "type": "function"
    },
    {
      "inputs": [
        {
          "internalType": "uint256",
          "name": "tokenId",
          "type": "uint256"
        }
      ],
      "name": "checkIncentive",
      "outputs": [
        {
          "internalType": "bool",
          "name": "",
          "type": "bool"
        }
      ],
      "stateMutability": "pure",
      "type": "function"
    },
    {
      "inputs": [
        {
          "internalType": "uint256",
          "name": "tokenId",
          "type": "uint256"
        }
      ],
      "name": "checkIncentive2",
      "outputs": [
        {
          "internalType": "bool",
          "name": "",
          "type": "bool"
        }
      ],
      "stateMutability": "pure",
      "type": "function"
    },
    {
      "inputs": [
        {
          "internalType": "address",
          "name": "",
          "type": "address"
        },
        {
          "internalType": "uint32",
          "name": "",
          "type": "uint32"
        }
      ],
      "name": "checkpoints",
      "outputs": [
        {
          "internalType": "uint32",
          "name": "fromBlock",
          "type": "uint32"
        },
        {
          "internalType": "uint96",
          "name": "votes",
          "type": "uint96"
        }
      ],
      "stateMutability": "view",
      "type": "function"
    },
    {
      "inputs": [],
      "name": "contractURI",
      "outputs": [
        {
          "internalType": "string",
          "name": "",
          "type": "string"
        }
      ],
      "stateMutability": "view",
      "type": "function"
    },
    {
      "inputs": [],
      "name": "decimals",
      "outputs": [
        {
          "internalType": "uint8",
          "name": "",
          "type": "uint8"
        }
      ],
      "stateMutability": "view",
      "type": "function"
    },
    {
      "inputs": [
        {
          "internalType": "address",
          "name": "delegatee",
          "type": "address"
        }
      ],
      "name": "delegate",
      "outputs": [],
      "stateMutability": "nonpayable",
      "type": "function"
    },
    {
      "inputs": [
        {
          "internalType": "address",
          "name": "delegatee",
          "type": "address"
        },
        {
          "internalType": "uint256",
          "name": "nonce",
          "type": "uint256"
        },
        {
          "internalType": "uint256",
          "name": "expiry",
          "type": "uint256"
        },
        {
          "internalType": "uint8",
          "name": "v",
          "type": "uint8"
        },
        {
          "internalType": "bytes32",
          "name": "r",
          "type": "bytes32"
        },
        {
          "internalType": "bytes32",
          "name": "s",
          "type": "bytes32"
        }
      ],
      "name": "delegateBySig",
      "outputs": [],
      "stateMutability": "nonpayable",
      "type": "function"
    },
    {
      "inputs": [
        {
          "internalType": "address",
          "name": "delegator",
          "type": "address"
        }
      ],
      "name": "delegates",
      "outputs": [
        {
          "internalType": "address",
          "name": "",
          "type": "address"
        }
      ],
      "stateMutability": "view",
      "type": "function"
    },
    {
      "inputs": [],
      "name": "descriptor",
      "outputs": [
        {
          "internalType": "contract IDescriptorMinimal",
          "name": "",
          "type": "address"
        }
      ],
      "stateMutability": "view",
      "type": "function"
    },
    {
      "inputs": [],
      "name": "foundersDAO",
      "outputs": [
        {
          "internalType": "address",
          "name": "",
          "type": "address"
        }
      ],
      "stateMutability": "view",
      "type": "function"
    },
    {
      "inputs": [],
      "name": "foundersDAO2",
      "outputs": [
        {
          "internalType": "address",
          "name": "",
          "type": "address"
        }
      ],
      "stateMutability": "view",
      "type": "function"
    },
    {
      "inputs": [
        {
          "internalType": "uint256",
          "name": "tokenId",
          "type": "uint256"
        }
      ],
      "name": "getApproved",
      "outputs": [
        {
          "internalType": "address",
          "name": "",
          "type": "address"
        }
      ],
      "stateMutability": "view",
      "type": "function"
    },
    {
      "inputs": [],
      "name": "getCurrentTokenId",
      "outputs": [
        {
          "internalType": "uint256",
          "name": "",
          "type": "uint256"
        }
      ],
      "stateMutability": "view",
      "type": "function"
    },
    {
      "inputs": [
        {
          "internalType": "address",
          "name": "account",
          "type": "address"
        }
      ],
      "name": "getCurrentVotes",
      "outputs": [
        {
          "internalType": "uint96",
          "name": "",
          "type": "uint96"
        }
      ],
      "stateMutability": "view",
      "type": "function"
    },
    {
      "inputs": [
        {
          "internalType": "address",
          "name": "account",
          "type": "address"
        },
        {
          "internalType": "uint256",
          "name": "blockNumber",
          "type": "uint256"
        }
      ],
      "name": "getPriorVotes",
      "outputs": [
        {
          "internalType": "uint96",
          "name": "",
          "type": "uint96"
        }
      ],
      "stateMutability": "view",
      "type": "function"
    },
    {
      "inputs": [
        {
          "internalType": "address",
          "name": "owner",
          "type": "address"
        },
        {
          "internalType": "address",
          "name": "operator",
          "type": "address"
        }
      ],
      "name": "isApprovedForAll",
      "outputs": [
        {
          "internalType": "bool",
          "name": "",
          "type": "bool"
        }
      ],
      "stateMutability": "view",
      "type": "function"
    },
    {
      "inputs": [],
      "name": "isDescriptorLocked",
      "outputs": [
        {
          "internalType": "bool",
          "name": "",
          "type": "bool"
        }
      ],
      "stateMutability": "view",
      "type": "function"
    },
    {
      "inputs": [],
      "name": "isMinterLocked",
      "outputs": [
        {
          "internalType": "bool",
          "name": "",
          "type": "bool"
        }
      ],
      "stateMutability": "view",
      "type": "function"
    },
    {
      "inputs": [],
      "name": "lockDescriptor",
      "outputs": [],
      "stateMutability": "nonpayable",
      "type": "function"
    },
    {
      "inputs": [],
      "name": "lockMinter",
      "outputs": [],
      "stateMutability": "nonpayable",
      "type": "function"
    },
    {
      "inputs": [],
      "name": "mint",
      "outputs": [
        {
          "internalType": "uint256",
          "name": "",
          "type": "uint256"
        },
        {
          "internalType": "bool",
          "name": "",
          "type": "bool"
        },
        {
          "internalType": "bool",
          "name": "",
          "type": "bool"
        }
      ],
      "stateMutability": "nonpayable",
      "type": "function"
    },
    {
      "inputs": [],
      "name": "minter",
      "outputs": [
        {
          "internalType": "address",
          "name": "",
          "type": "address"
        }
      ],
      "stateMutability": "view",
      "type": "function"
    },
    {
      "inputs": [],
      "name": "name",
      "outputs": [
        {
          "internalType": "string",
          "name": "",
          "type": "string"
        }
      ],
      "stateMutability": "view",
      "type": "function"
    },
    {
      "inputs": [
        {
          "internalType": "address",
          "name": "",
          "type": "address"
        }
      ],
      "name": "nonces",
      "outputs": [
        {
          "internalType": "uint256",
          "name": "",
          "type": "uint256"
        }
      ],
      "stateMutability": "view",
      "type": "function"
    },
    {
      "inputs": [
        {
          "internalType": "address",
          "name": "",
          "type": "address"
        }
      ],
      "name": "numCheckpoints",
      "outputs": [
        {
          "internalType": "uint32",
          "name": "",
          "type": "uint32"
        }
      ],
      "stateMutability": "view",
      "type": "function"
    },
    {
      "inputs": [],
      "name": "owner",
      "outputs": [
        {
          "internalType": "address",
          "name": "",
          "type": "address"
        }
      ],
      "stateMutability": "view",
      "type": "function"
    },
    {
      "inputs": [
        {
          "internalType": "uint256",
          "name": "tokenId",
          "type": "uint256"
        }
      ],
      "name": "ownerOf",
      "outputs": [
        {
          "internalType": "address",
          "name": "",
          "type": "address"
        }
      ],
      "stateMutability": "view",
      "type": "function"
    },
    {
      "inputs": [],
      "name": "renounceOwnership",
      "outputs": [],
      "stateMutability": "nonpayable",
      "type": "function"
    },
    {
      "inputs": [
        {
          "internalType": "address",
          "name": "from",
          "type": "address"
        },
        {
          "internalType": "address",
          "name": "to",
          "type": "address"
        },
        {
          "internalType": "uint256",
          "name": "tokenId",
          "type": "uint256"
        }
      ],
      "name": "safeTransferFrom",
      "outputs": [],
      "stateMutability": "nonpayable",
      "type": "function"
    },
    {
      "inputs": [
        {
          "internalType": "address",
          "name": "from",
          "type": "address"
        },
        {
          "internalType": "address",
          "name": "to",
          "type": "address"
        },
        {
          "internalType": "uint256",
          "name": "tokenId",
          "type": "uint256"
        },
        {
          "internalType": "bytes",
          "name": "_data",
          "type": "bytes"
        }
      ],
      "name": "safeTransferFrom",
      "outputs": [],
      "stateMutability": "nonpayable",
      "type": "function"
    },
    {
      "inputs": [
        {
          "internalType": "address",
          "name": "operator",
          "type": "address"
        },
        {
          "internalType": "bool",
          "name": "approved",
          "type": "bool"
        }
      ],
      "name": "setApprovalForAll",
      "outputs": [],
      "stateMutability": "nonpayable",
      "type": "function"
    },
    {
      "inputs": [
        {
          "internalType": "string",
          "name": "newContractURIHash",
          "type": "string"
        }
      ],
      "name": "setContractURIHash",
      "outputs": [],
      "stateMutability": "nonpayable",
      "type": "function"
    },
    {
      "inputs": [
        {
          "internalType": "contract IDescriptorMinimal",
          "name": "_descriptor",
          "type": "address"
        }
      ],
      "name": "setDescriptor",
      "outputs": [],
      "stateMutability": "nonpayable",
      "type": "function"
    },
    {
      "inputs": [
        {
          "internalType": "address",
          "name": "_foundersDAO",
          "type": "address"
        }
      ],
      "name": "setFoundersDAO",
      "outputs": [],
      "stateMutability": "nonpayable",
      "type": "function"
    },
    {
      "inputs": [
        {
          "internalType": "address",
          "name": "_foundersDAO2",
          "type": "address"
        }
      ],
      "name": "setFoundersDAO2",
      "outputs": [],
      "stateMutability": "nonpayable",
      "type": "function"
    },
    {
      "inputs": [
        {
          "internalType": "address",
          "name": "_minter",
          "type": "address"
        }
      ],
      "name": "setMinter",
      "outputs": [],
      "stateMutability": "nonpayable",
      "type": "function"
    },
    {
      "inputs": [
        {
          "internalType": "bytes4",
          "name": "interfaceId",
          "type": "bytes4"
        }
      ],
      "name": "supportsInterface",
      "outputs": [
        {
          "internalType": "bool",
          "name": "",
          "type": "bool"
        }
      ],
      "stateMutability": "view",
      "type": "function"
    },
    {
      "inputs": [],
      "name": "symbol",
      "outputs": [
        {
          "internalType": "string",
          "name": "",
          "type": "string"
        }
      ],
      "stateMutability": "view",
      "type": "function"
    },
    {
      "inputs": [
        {
          "internalType": "uint256",
          "name": "index",
          "type": "uint256"
        }
      ],
      "name": "tokenByIndex",
      "outputs": [
        {
          "internalType": "uint256",
          "name": "",
          "type": "uint256"
        }
      ],
      "stateMutability": "view",
      "type": "function"
    },
    {
      "inputs": [
        {
          "internalType": "address",
          "name": "owner",
          "type": "address"
        },
        {
          "internalType": "uint256",
          "name": "index",
          "type": "uint256"
        }
      ],
      "name": "tokenOfOwnerByIndex",
      "outputs": [
        {
          "internalType": "uint256",
          "name": "",
          "type": "uint256"
        }
      ],
      "stateMutability": "view",
      "type": "function"
    },
    {
      "inputs": [
        {
          "internalType": "uint256",
          "name": "tokenId",
          "type": "uint256"
        }
      ],
      "name": "tokenURI",
      "outputs": [
        {
          "internalType": "string",
          "name": "",
          "type": "string"
        }
      ],
      "stateMutability": "view",
      "type": "function"
    },
    {
      "inputs": [],
      "name": "totalSupply",
      "outputs": [
        {
          "internalType": "uint256",
          "name": "",
          "type": "uint256"
        }
      ],
      "stateMutability": "view",
      "type": "function"
    },
    {
      "inputs": [
        {
          "internalType": "address",
          "name": "from",
          "type": "address"
        },
        {
          "internalType": "address",
          "name": "to",
          "type": "address"
        },
        {
          "internalType": "uint256",
          "name": "tokenId",
          "type": "uint256"
        }
      ],
      "name": "transferFrom",
      "outputs": [],
      "stateMutability": "nonpayable",
      "type": "function"
    },
    {
      "inputs": [
        {
          "internalType": "address",
          "name": "newOwner",
          "type": "address"
        }
      ],
      "name": "transferOwnership",
      "outputs": [],
      "stateMutability": "nonpayable",
      "type": "function"
    },
    {
      "inputs": [
        {
          "internalType": "address",
          "name": "delegator",
          "type": "address"
        }
      ],
      "name": "votesToDelegate",
      "outputs": [
        {
          "internalType": "uint96",
          "name": "",
          "type": "uint96"
        }
      ],
      "stateMutability": "view",
      "type": "function"
    }
  ],
  "bytecode": "0x60e0604052602e6080818152906200438160a03960149062000022908262000bfe565b503480156200003057600080fd5b50604051620043e6380380620043e6833981016040819052620000539162000ce3565b6040518060400160405280600e81526020016d1359591a58d85b111053c813919560921b8152506040518060400160405280600681526020016513510813919560d21b815250620000b3620000ad6200014b60201b60201c565b6200014f565b6001620000c1838262000bfe565b506002620000d0828262000bfe565b5050600f80546001600160a01b038088166001600160a01b03199283168117909355601080548883169084161790556011805487831690841617905560128054918616919092161790556013546200012992506200019f565b50601380549060006200013c8362000d61565b91905055505050505062000eb2565b3390565b600080546001600160a01b038381166001600160a01b0319831681178455604051919092169283917f8be0079c531659141344cd1fd0a4f28419497f9722a3daafe3b4186f6b6457e09190a35050565b6000620001c0620001b86000546001600160a01b031690565b8484620001f4565b60405182907f5871761b381266e7e47309f0821d5b396364ebb6371d878871cac5393cb93ea890600090a250805b92915050565b6001600160a01b038216620002505760405162461bcd60e51b815260206004820181905260248201527f4552433732313a206d696e7420746f20746865207a65726f206164647265737360448201526064015b60405180910390fd5b6000818152600360205260409020546001600160a01b031615620002b75760405162461bcd60e51b815260206004820152601c60248201527f4552433732313a20746f6b656e20616c7265616479206d696e74656400000000604482015260640162000247565b620002c56000838362000374565b6001600160a01b0382166000908152600460205260408120805460019290620002f090849062000d7d565b909155505060008181526003602052604080822080546001600160a01b0319166001600160a01b038681169190911790915590518392918616919060008051602062004361833981519152908290a480826001600160a01b0316846001600160a01b03166000805160206200436183398151915260405160405180910390a4505050565b62000381838383620003a8565b620003a362000390846200046c565b6200039b846200046c565b6001620004a0565b505050565b6001600160a01b03831662000406576200040081600980546000838152600a60205260408120829055600182018355919091527f6e1540171b6c0c960b71a7020d9f60077f6af931a8bbf590da0223dacf75c7af0155565b6200042c565b816001600160a01b0316836001600160a01b0316146200042c576200042c83826200066c565b6001600160a01b0382166200044657620003a3816200070e565b826001600160a01b0316826001600160a01b031614620003a357620003a38282620007c8565b6001600160a01b038082166000908152600b6020526040812054909116801562000497578062000499565b825b9392505050565b816001600160a01b0316836001600160a01b031614158015620004cc57506000816001600160601b0316115b15620003a3576001600160a01b038316156200059d576001600160a01b0383166000908152600d602052604081205463ffffffff169081620005105760006200055f565b6001600160a01b0385166000908152600c60205260408120906200053660018562000d93565b63ffffffff16815260208101919091526040016000205464010000000090046001600160601b03165b90506000620005898285604051806060016040528060378152602001620043af603791396200080e565b905062000599868484846200085d565b5050505b6001600160a01b03821615620003a3576001600160a01b0382166000908152600d602052604081205463ffffffff169081620005db5760006200062a565b6001600160a01b0384166000908152600c60205260408120906200060160018562000d93565b63ffffffff16815260208101919091526040016000205464010000000090046001600160601b03165b90506000620006548285604051806060016040528060368152602001620042e76036913962000a54565b905062000664858484846200085d565b505050505050565b600060016200067b8462000aa6565b62000687919062000dba565b600083815260086020526040902054909150808214620006db576001600160a01b03841660009081526007602090815260408083208584528252808320548484528184208190558352600890915290208190555b5060009182526008602090815260408084208490556001600160a01b039094168352600781528383209183525290812055565b600954600090620007229060019062000dba565b6000838152600a6020526040812054600980549394509092849081106200074d576200074d62000dd0565b90600052602060002001549050806009838154811062000771576200077162000dd0565b6000918252602080832090910192909255828152600a90915260408082208490558582528120556009805480620007ac57620007ac62000de6565b6001900381819060005260206000200160009055905550505050565b6000620007d58362000aa6565b6001600160a01b039093166000908152600760209081526040808320868452825280832085905593825260089052919091209190915550565b6000836001600160601b0316836001600160601b031611158290620008485760405162461bcd60e51b815260040162000247919062000dfc565b5062000855838562000e4c565b949350505050565b600062000884436040518060800160405280604481526020016200431d6044913962000b2f565b905060008463ffffffff16118015620008e157506001600160a01b0385166000908152600c6020526040812063ffffffff831691620008c560018862000d93565b63ffffffff908116825260208201929092526040016000205416145b1562000954576001600160a01b0385166000908152600c6020526040812083916200090e60018862000d93565b63ffffffff168152602081019190915260400160002080546001600160601b039290921664010000000002600160201b600160801b0319909216919091179055620009ff565b60408051808201825263ffffffff80841682526001600160601b0380861660208085019182526001600160a01b038b166000908152600c82528681208b8616825290915294909420925183549451909116640100000000026001600160801b0319909416911617919091179055620009ce84600162000e6f565b6001600160a01b0386166000908152600d60205260409020805463ffffffff191663ffffffff929092169190911790555b604080516001600160601b038086168252841660208201526001600160a01b038716917fdec2bacdd2f05b59de34da9b523dff8be42e5e38e818c82fdb0bae774387a724910160405180910390a25050505050565b60008062000a63848662000e8f565b9050846001600160601b0316816001600160601b03161015839062000a9d5760405162461bcd60e51b815260040162000247919062000dfc565b50949350505050565b60006001600160a01b03821662000b135760405162461bcd60e51b815260206004820152602a60248201527f4552433732313a2062616c616e636520717565727920666f7220746865207a65604482015269726f206164647265737360b01b606482015260840162000247565b506001600160a01b031660009081526004602052604090205490565b600081640100000000841062000b5a5760405162461bcd60e51b815260040162000247919062000dfc565b509192915050565b634e487b7160e01b600052604160045260246000fd5b600181811c9082168062000b8d57607f821691505b60208210810362000bae57634e487b7160e01b600052602260045260246000fd5b50919050565b601f821115620003a357600081815260208120601f850160051c8101602086101562000bdd5750805b601f850160051c820191505b81811015620006645782815560010162000be9565b81516001600160401b0381111562000c1a5762000c1a62000b62565b62000c328162000c2b845462000b78565b8462000bb4565b602080601f83116001811462000c6a576000841562000c515750858301515b600019600386901b1c1916600185901b17855562000664565b600085815260208120601f198616915b8281101562000c9b5788860151825594840194600190910190840162000c7a565b508582101562000cba5787850151600019600388901b60f8161c191681555b5050505050600190811b01905550565b6001600160a01b038116811462000ce057600080fd5b50565b6000806000806080858703121562000cfa57600080fd5b845162000d078162000cca565b602086015190945062000d1a8162000cca565b604086015190935062000d2d8162000cca565b606086015190925062000d408162000cca565b939692955090935050565b634e487b7160e01b600052601160045260246000fd5b60006001820162000d765762000d7662000d4b565b5060010190565b80820180821115620001ee57620001ee62000d4b565b63ffffffff82811682821603908082111562000db35762000db362000d4b565b5092915050565b81810381811115620001ee57620001ee62000d4b565b634e487b7160e01b600052603260045260246000fd5b634e487b7160e01b600052603160045260246000fd5b600060208083528351808285015260005b8181101562000e2b5785810183015185820160400152820162000e0d565b506000604082860101526040601f19601f8301168501019250505092915050565b6001600160601b0382811682821603908082111562000db35762000db362000d4b565b63ffffffff81811683821601908082111562000db35762000db362000d4b565b6001600160601b0381811683821601908082111562000db35762000db362000d4b565b6134258062000ec26000396000f3fe608060405234801561001057600080fd5b50600436106102d65760003560e01c80636352211e11610182578063b88d4fde116100e9578063e8a3d485116100a2578063f1127ed81161007c578063f1127ed8146106ea578063f2fde38b14610751578063fa6e88bd14610764578063fca3b5aa1461077757600080fd5b8063e8a3d48514610693578063e9580e911461069b578063e985e9c5146106ae57600080fd5b8063b88d4fde1461060c578063baedc1c41461061f578063c1b8e4e114610632578063c3cda52014610646578063c87b56dd14610659578063e7a324dc1461066c57600080fd5b8063782d6fe11161013b578063782d6fe1146105825780637ecebe00146105ad5780638da5cb5b146105cd57806395d89b41146105de578063a22cb465146105e6578063b4b5ea57146105f957600080fd5b80636352211e146104fe5780636daf1107146105115780636fcfff451461052457806370a082311461055f578063715018a61461057257806376daebe11461057a57600080fd5b806320606b701161024157806341b5d0de116101fa5780634f6ccce7116101d45780634f6ccce7146104bd57806356189236146104d0578063587cde1e146104d85780635c19a95c146104eb57600080fd5b806341b5d0de1461048f57806342842e0e1461049757806342966c68146104aa57600080fd5b806320606b701461040257806321dad6ac1461042957806323b872dd1461043c5780632f745c591461044f578063303e74df14610462578063313ce5671461047557600080fd5b8063095ea7b311610293578063095ea7b31461037e578063104420bb146103915780631249c58b146103a457806318160ddd146103c95780631c0eb095146103db5780631e688e10146103ee57600080fd5b806301b9a397146102db57806301ffc9a7146102f057806306f62d5b1461031857806306fdde031461032b5780630754617214610340578063081812fc1461036b575b600080fd5b6102ee6102e9366004612a9b565b61078a565b005b6103036102fe366004612ace565b61083d565b60405190151581526020015b60405180910390f35b610303610326366004612aeb565b610868565b610333610889565b60405161030f9190612b54565b601154610353906001600160a01b031681565b6040516001600160a01b03909116815260200161030f565b610353610379366004612aeb565b61091b565b6102ee61038c366004612b67565b6109b0565b6102ee61039f366004612a9b565b610ac5565b6103ac610b6d565b60408051938452911515602084015215159082015260600161030f565b6009545b60405190815260200161030f565b601054610353906001600160a01b031681565b60125461030390600160a01b900460ff1681565b6103cd7f8cad95687ba82c2ce50e74f7b754645e5117c3a5bec8151c0726d5857980a86681565b6102ee610437366004612a9b565b610c72565b6102ee61044a366004612b93565b610d1a565b6103cd61045d366004612b67565b610d4b565b601254610353906001600160a01b031681565b61047d600081565b60405160ff909116815260200161030f565b6102ee610de1565b6102ee6104a5366004612b93565b610e78565b6102ee6104b8366004612aeb565b610e93565b6103cd6104cb366004612aeb565b610f1f565b6103cd610fb2565b6103536104e6366004612a9b565b610fc8565b6102ee6104f9366004612a9b565b610ffa565b61035361050c366004612aeb565b611018565b61030361051f366004612aeb565b61108f565b61054a610532366004612a9b565b600d6020526000908152604090205463ffffffff1681565b60405163ffffffff909116815260200161030f565b6103cd61056d366004612a9b565b61109c565b6102ee611123565b6102ee611137565b610595610590366004612b67565b6111ca565b6040516001600160601b03909116815260200161030f565b6103cd6105bb366004612a9b565b600e6020526000908152604090205481565b6000546001600160a01b0316610353565b61033361146a565b6102ee6105f4366004612bd4565b611479565b610595610607366004612a9b565b61153d565b6102ee61061a366004612cbf565b6115ba565b6102ee61062d366004612d3f565b6115f2565b60125461030390600160a81b900460ff1681565b6102ee610654366004612d88565b611636565b610333610667366004612aeb565b611934565b6103cd7fe48329057bfd03d55e49b547132e39cffd9c1820ad7b9d4c5307691425d15adf81565b610333611a23565b6105956106a9366004612a9b565b611a4b565b6103036106bc366004612dea565b6001600160a01b03918216600090815260066020908152604080832093909416825291909152205460ff1690565b61072d6106f8366004612e18565b600c60209081526000928352604080842090915290825290205463ffffffff811690600160201b90046001600160601b031682565b6040805163ffffffff90931683526001600160601b0390911660208301520161030f565b6102ee61075f366004612a9b565b611a77565b600f54610353906001600160a01b031681565b6102ee610785366004612a9b565b611aed565b610792611b90565b601254600160a81b900460ff16156107e85760405162461bcd60e51b815260206004820152601460248201527311195cd8dc9a5c1d1bdc881a5cc81b1bd8dad95960621b60448201526064015b60405180910390fd5b601280546001600160a01b0319166001600160a01b0383169081179091556040519081527f6e66ab22238a5471005895947c8f57db923c2a9c9c73180eff80864c21295c1b906020015b60405180910390a150565b60006001600160e01b0319821663780e9d6360e01b1480610862575061086282611bea565b92915050565b600061071c82111580156108625750610882600a83612e65565b1592915050565b60606001805461089890612e79565b80601f01602080910402602001604051908101604052809291908181526020018280546108c490612e79565b80156109115780601f106108e657610100808354040283529160200191610911565b820191906000526020600020905b8154815290600101906020018083116108f457829003601f168201915b5050505050905090565b6000818152600360205260408120546001600160a01b03166109945760405162461bcd60e51b815260206004820152602c60248201527f4552433732313a20617070726f76656420717565727920666f72206e6f6e657860448201526b34b9ba32b73a103a37b5b2b760a11b60648201526084016107df565b506000908152600560205260409020546001600160a01b031690565b60006109bb82611018565b9050806001600160a01b0316836001600160a01b031603610a285760405162461bcd60e51b815260206004820152602160248201527f4552433732313a20617070726f76616c20746f2063757272656e74206f776e656044820152603960f91b60648201526084016107df565b336001600160a01b0382161480610a445750610a4481336106bc565b610ab65760405162461bcd60e51b815260206004820152603860248201527f4552433732313a20617070726f76652063616c6c6572206973206e6f74206f7760448201527f6e6572206e6f7220617070726f76656420666f7220616c6c000000000000000060648201526084016107df565b610ac08383611c3a565b505050565b600f546001600160a01b03163314610b1f5760405162461bcd60e51b815260206004820152601e60248201527f53656e646572206973206e6f742074686520666f756e646572732044414f000060448201526064016107df565b600f80546001600160a01b0319166001600160a01b0383169081179091556040519081527f43a23946487162e5425d76e9f4942546b64337f895ba2cb83e8198ad221f3a2190602001610832565b601154600090819081906001600160a01b03163314610bc95760405162461bcd60e51b815260206004820152601860248201527729b2b73232b91034b9903737ba103a34329036b4b73a32b960411b60448201526064016107df565b6000610bd6601354610868565b90506000610be560135461108f565b90508115610c1857600f5460138054610c16926001600160a01b0316916000610c0d83612ec9565b91905055611ca8565b505b8015610c405760105460138054610c3e926001600160a01b0316916000610c0d83612ec9565b505b60115460138054600092610c65926001600160a01b03909116919084610c0d83612ec9565b9550919350915050909192565b600f546001600160a01b03163314610ccc5760405162461bcd60e51b815260206004820152601e60248201527f53656e646572206973206e6f742074686520666f756e646572732044414f000060448201526064016107df565b601080546001600160a01b0319166001600160a01b0383169081179091556040519081527f359f5fee4c34af45c903a65f89a0d0232a66c107520b8df861a08200f31b4bfe90602001610832565b610d243382611cf7565b610d405760405162461bcd60e51b81526004016107df90612ee2565b610ac0838383611dee565b6000610d568361109c565b8210610db85760405162461bcd60e51b815260206004820152602b60248201527f455243373231456e756d657261626c653a206f776e657220696e646578206f7560448201526a74206f6620626f756e647360a81b60648201526084016107df565b506001600160a01b03919091166000908152600760209081526040808320938352929052205490565b610de9611b90565b601254600160a81b900460ff1615610e3a5760405162461bcd60e51b815260206004820152601460248201527311195cd8dc9a5c1d1bdc881a5cc81b1bd8dad95960621b60448201526064016107df565b6012805460ff60a81b1916600160a81b1790556040517f593e31e306c198bef259d839f7c6dc4ff7fc10c07f76fab193a210b03704105f90600090a1565b610ac0838383604051806020016040528060008152506115ba565b6011546001600160a01b03163314610ee85760405162461bcd60e51b815260206004820152601860248201527729b2b73232b91034b9903737ba103a34329036b4b73a32b960411b60448201526064016107df565b610ef181611f87565b60405181907f0c526103b8f47af5516191d0c89a598755bd00faa211a3cb52e4c2cc782f7fe290600090a250565b6000610f2a60095490565b8210610f8d5760405162461bcd60e51b815260206004820152602c60248201527f455243373231456e756d657261626c653a20676c6f62616c20696e646578206f60448201526b7574206f6620626f756e647360a01b60648201526084016107df565b60098281548110610fa057610fa0612f33565b90600052602060002001549050919050565b60006001601354610fc39190612f49565b905090565b6001600160a01b038082166000908152600b60205260408120549091168015610ff15780610ff3565b825b9392505050565b6001600160a01b03811661100b5750335b611015338261201c565b50565b6000818152600360205260408120546001600160a01b0316806108625760405162461bcd60e51b815260206004820152602960248201527f4552433732313a206f776e657220717565727920666f72206e6f6e657869737460448201526832b73a103a37b5b2b760b91b60648201526084016107df565b6000610882600a83612e65565b60006001600160a01b0382166111075760405162461bcd60e51b815260206004820152602a60248201527f4552433732313a2062616c616e636520717565727920666f7220746865207a65604482015269726f206164647265737360b01b60648201526084016107df565b506001600160a01b031660009081526004602052604090205490565b61112b611b90565b611135600061209c565b565b61113f611b90565b601254600160a01b900460ff161561118c5760405162461bcd60e51b815260206004820152601060248201526f135a5b9d195c881a5cc81b1bd8dad95960821b60448201526064016107df565b6012805460ff60a01b1916600160a01b1790556040517f192417b3f16b1ce69e0c59b0376549666650245ffc05e4b2569089dda8589b6690600090a1565b60004382106112415760405162461bcd60e51b815260206004820152603760248201527f455243373231436865636b706f696e7461626c653a3a6765745072696f72566f60448201527f7465733a206e6f74207965742064657465726d696e656400000000000000000060648201526084016107df565b6001600160a01b0383166000908152600d602052604081205463ffffffff1690819003611272576000915050610862565b6001600160a01b0384166000908152600c602052604081208491611297600185612f5c565b63ffffffff9081168252602082019290925260400160002054161161130a576001600160a01b0384166000908152600c60205260408120906112da600184612f5c565b63ffffffff168152602081019190915260400160002054600160201b90046001600160601b031691506108629050565b6001600160a01b0384166000908152600c6020908152604080832083805290915290205463ffffffff16831015611345576000915050610862565b600080611353600184612f5c565b90505b8163ffffffff168163ffffffff16111561142557600060026113788484612f5c565b6113829190612f80565b61138c9083612f5c565b6001600160a01b0388166000908152600c6020908152604080832063ffffffff858116855290835292819020815180830190925254928316808252600160201b9093046001600160601b0316918101919091529192508790036113f9576020015194506108629350505050565b805163ffffffff168711156114105781935061141e565b61141b600183612f5c565b92505b5050611356565b506001600160a01b0385166000908152600c6020908152604080832063ffffffff909416835292905220546001600160601b03600160201b9091041691505092915050565b60606002805461089890612e79565b336001600160a01b038316036114d15760405162461bcd60e51b815260206004820152601960248201527f4552433732313a20617070726f766520746f2063616c6c65720000000000000060448201526064016107df565b3360008181526006602090815260408083206001600160a01b03871680855290835292819020805460ff191686151590811790915590519081529192917f17307eab39ab6107e8899845ad3d59bd9653f200f220920489ca2b5937696c31910160405180910390a35050565b6001600160a01b0381166000908152600d602052604081205463ffffffff1680611568576000610ff3565b6001600160a01b0383166000908152600c602052604081209061158c600184612f5c565b63ffffffff168152602081019190915260400160002054600160201b90046001600160601b03169392505050565b6115c43383611cf7565b6115e05760405162461bcd60e51b81526004016107df90612ee2565b6115ec848484846120ec565b50505050565b6115fa611b90565b60146116068282612fe9565b507f4fe5dc42d3135f1187553067d4fc915fc201e7eaa6ef43dcc4929a2089772b4a816040516108329190612b54565b60007f8cad95687ba82c2ce50e74f7b754645e5117c3a5bec8151c0726d5857980a866611661610889565b8051906020012061166f4690565b60408051602080820195909552808201939093526060830191909152306080808401919091528151808403909101815260a0830182528051908401207fe48329057bfd03d55e49b547132e39cffd9c1820ad7b9d4c5307691425d15adf60c08401526001600160a01b038b1660e084015261010083018a90526101208084018a90528251808503909101815261014084019092528151919093012061190160f01b610160830152610162820183905261018282018190529192506000906101a20160408051601f198184030181528282528051602091820120600080855291840180845281905260ff8a169284019290925260608301889052608083018790529092509060019060a0016020604051602081039080840390855afa15801561179b573d6000803e3d6000fd5b5050604051601f1901519150506001600160a01b03811661181d5760405162461bcd60e51b815260206004820152603660248201527f455243373231436865636b706f696e7461626c653a3a64656c656761746542796044820152755369673a20696e76616c6964207369676e617475726560501b60648201526084016107df565b6001600160a01b0381166000908152600e6020526040812080549161184183612ec9565b9190505589146118ae5760405162461bcd60e51b815260206004820152603260248201527f455243373231436865636b706f696e7461626c653a3a64656c656761746542796044820152715369673a20696e76616c6964206e6f6e636560701b60648201526084016107df565b8742111561191d5760405162461bcd60e51b815260206004820152603660248201527f455243373231436865636b706f696e7461626c653a3a64656c6567617465427960448201527514da59ce881cda59db985d1d5c9948195e1c1a5c995960521b60648201526084016107df565b611927818b61201c565b505050505b505050505050565b6000818152600360205260409020546060906001600160a01b03166119b25760405162461bcd60e51b815260206004820152602e60248201527f4d65646963616c44414f4e46543a2055524920717565727920666f72206e6f6e60448201526d32bc34b9ba32b73a103a37b5b2b760911b60648201526084016107df565b60125460405163c87b56dd60e01b8152600481018490526001600160a01b039091169063c87b56dd90602401600060405180830381865afa1580156119fb573d6000803e3d6000fd5b505050506040513d6000823e601f3d908101601f1916820160405261086291908101906130a9565b60606014604051602001611a379190613120565b604051602081830303815290604052905090565b6000610862611a598361109c565b6040518060600160405280603d815260200161337c603d913961211f565b611a7f611b90565b6001600160a01b038116611ae45760405162461bcd60e51b815260206004820152602660248201527f4f776e61626c653a206e6577206f776e657220697320746865207a65726f206160448201526564647265737360d01b60648201526084016107df565b6110158161209c565b611af5611b90565b601254600160a01b900460ff1615611b425760405162461bcd60e51b815260206004820152601060248201526f135a5b9d195c881a5cc81b1bd8dad95960821b60448201526064016107df565b601180546001600160a01b0319166001600160a01b0383169081179091556040519081527fad0f299ec81a386c98df0ac27dae11dd020ed1b56963c53a7292e7a3a314539a90602001610832565b6000546001600160a01b031633146111355760405162461bcd60e51b815260206004820181905260248201527f4f776e61626c653a2063616c6c6572206973206e6f7420746865206f776e657260448201526064016107df565b60006001600160e01b031982166380ac58cd60e01b1480611c1b57506001600160e01b03198216635b5e139f60e01b145b8061086257506301ffc9a760e01b6001600160e01b0319831614610862565b600081815260056020526040902080546001600160a01b0319166001600160a01b0384169081179091558190611c6f82611018565b6001600160a01b03167f8c5be1e5ebec7d5bd14f71427d1e84f3dd0314c0f7b2291e5b200ac8c7c3b92560405160405180910390a45050565b6000611cc6611cbf6000546001600160a01b031690565b848461214e565b60405182907f5871761b381266e7e47309f0821d5b396364ebb6371d878871cac5393cb93ea890600090a250919050565b6000818152600360205260408120546001600160a01b0316611d705760405162461bcd60e51b815260206004820152602c60248201527f4552433732313a206f70657261746f7220717565727920666f72206e6f6e657860448201526b34b9ba32b73a103a37b5b2b760a11b60648201526084016107df565b6000611d7b83611018565b9050806001600160a01b0316846001600160a01b03161480611db65750836001600160a01b0316611dab8461091b565b6001600160a01b0316145b80611de657506001600160a01b0380821660009081526006602090815260408083209388168352929052205460ff165b949350505050565b826001600160a01b0316611e0182611018565b6001600160a01b031614611e695760405162461bcd60e51b815260206004820152602960248201527f4552433732313a207472616e73666572206f6620746f6b656e2074686174206960448201526839903737ba1037bbb760b91b60648201526084016107df565b6001600160a01b038216611ecb5760405162461bcd60e51b8152602060048201526024808201527f4552433732313a207472616e7366657220746f20746865207a65726f206164646044820152637265737360e01b60648201526084016107df565b611ed68383836122c0565b611ee1600082611c3a565b6001600160a01b0383166000908152600460205260408120805460019290611f0a908490612f49565b90915550506001600160a01b0382166000908152600460205260408120805460019290611f389084906131af565b909155505060008181526003602052604080822080546001600160a01b0319166001600160a01b03868116918217909255915184939187169160008051602061335c83398151915291a4505050565b6000611f9282611018565b9050611fa0816000846122c0565b611fab600083611c3a565b6001600160a01b0381166000908152600460205260408120805460019290611fd4908490612f49565b909155505060008281526003602052604080822080546001600160a01b0319169055518391906001600160a01b0384169060008051602061335c833981519152908390a45050565b600061202783610fc8565b6001600160a01b038481166000818152600b602052604080822080546001600160a01b031916888616908117909155905194955093928516927f3134e8a2e6d97e929a7e54011ea5485d7d196dd5f0ba4d4ef95803e8e3fc257f9190a4600061208f84611a4b565b90506115ec8284836122e3565b600080546001600160a01b038381166001600160a01b0319831681178455604051919092169283917f8be0079c531659141344cd1fd0a4f28419497f9722a3daafe3b4186f6b6457e09190a35050565b6120f7848484611dee565b6121038484848461248f565b6115ec5760405162461bcd60e51b81526004016107df906131c2565b600081600160601b84106121465760405162461bcd60e51b81526004016107df9190612b54565b509192915050565b6001600160a01b0382166121a45760405162461bcd60e51b815260206004820181905260248201527f4552433732313a206d696e7420746f20746865207a65726f206164647265737360448201526064016107df565b6000818152600360205260409020546001600160a01b0316156122095760405162461bcd60e51b815260206004820152601c60248201527f4552433732313a20746f6b656e20616c7265616479206d696e7465640000000060448201526064016107df565b612215600083836122c0565b6001600160a01b038216600090815260046020526040812080546001929061223e9084906131af565b909155505060008181526003602052604080822080546001600160a01b0319166001600160a01b038681169190911790915590518392918616919060008051602061335c833981519152908290a480826001600160a01b0316846001600160a01b031660008051602061335c83398151915260405160405180910390a4505050565b6122cb838383612590565b610ac06122d784610fc8565b6122e084610fc8565b60015b816001600160a01b0316836001600160a01b03161415801561230e57506000816001600160601b0316115b15610ac0576001600160a01b038316156123d3576001600160a01b0383166000908152600d602052604081205463ffffffff16908161234e57600061239a565b6001600160a01b0385166000908152600c6020526040812090612372600185612f5c565b63ffffffff168152602081019190915260400160002054600160201b90046001600160601b03165b905060006123c182856040518060600160405280603781526020016133b960379139612648565b90506123cf8684848461268a565b5050505b6001600160a01b03821615610ac0576001600160a01b0382166000908152600d602052604081205463ffffffff16908161240e57600061245a565b6001600160a01b0384166000908152600c6020526040812090612432600185612f5c565b63ffffffff168152602081019190915260400160002054600160201b90046001600160601b03165b9050600061248182856040518060600160405280603681526020016132e260369139612882565b905061192c8584848461268a565b60006001600160a01b0384163b1561258557604051630a85bd0160e11b81526001600160a01b0385169063150b7a02906124d3903390899088908890600401613214565b6020604051808303816000875af192505050801561250e575060408051601f3d908101601f1916820190925261250b91810190613251565b60015b61256b573d80801561253c576040519150601f19603f3d011682016040523d82523d6000602084013e612541565b606091505b5080516000036125635760405162461bcd60e51b81526004016107df906131c2565b805181602001fd5b6001600160e01b031916630a85bd0160e11b149050611de6565b506001949350505050565b6001600160a01b0383166125eb576125e681600980546000838152600a60205260408120829055600182018355919091527f6e1540171b6c0c960b71a7020d9f60077f6af931a8bbf590da0223dacf75c7af0155565b61260e565b816001600160a01b0316836001600160a01b03161461260e5761260e83826128cf565b6001600160a01b03821661262557610ac08161296c565b826001600160a01b0316826001600160a01b031614610ac057610ac08282612a1b565b6000836001600160601b0316836001600160601b03161115829061267f5760405162461bcd60e51b81526004016107df9190612b54565b50611de6838561326e565b60006126ae4360405180608001604052806044815260200161331860449139612a5f565b905060008463ffffffff1611801561270857506001600160a01b0385166000908152600c6020526040812063ffffffff8316916126ec600188612f5c565b63ffffffff908116825260208201929092526040016000205416145b1561277c576001600160a01b0385166000908152600c602052604081208391612732600188612f5c565b63ffffffff168152602081019190915260400160002080546001600160601b0392909216600160201b026fffffffffffffffffffffffff000000001990921691909117905561282d565b60408051808201825263ffffffff80841682526001600160601b0380861660208085019182526001600160a01b038b166000908152600c82528681208b8616825290915294909420925183549451909116600160201b026fffffffffffffffffffffffffffffffff199094169116179190911790556127fc84600161328e565b6001600160a01b0386166000908152600d60205260409020805463ffffffff191663ffffffff929092169190911790555b604080516001600160601b038086168252841660208201526001600160a01b038716917fdec2bacdd2f05b59de34da9b523dff8be42e5e38e818c82fdb0bae774387a724910160405180910390a25050505050565b60008061288f84866132ab565b9050846001600160601b0316816001600160601b0316101583906128c65760405162461bcd60e51b81526004016107df9190612b54565b50949350505050565b600060016128dc8461109c565b6128e69190612f49565b600083815260086020526040902054909150808214612939576001600160a01b03841660009081526007602090815260408083208584528252808320548484528184208190558352600890915290208190555b5060009182526008602090815260408084208490556001600160a01b039094168352600781528383209183525290812055565b60095460009061297e90600190612f49565b6000838152600a6020526040812054600980549394509092849081106129a6576129a6612f33565b9060005260206000200154905080600983815481106129c7576129c7612f33565b6000918252602080832090910192909255828152600a909152604080822084905585825281205560098054806129ff576129ff6132cb565b6001900381819060005260206000200160009055905550505050565b6000612a268361109c565b6001600160a01b039093166000908152600760209081526040808320868452825280832085905593825260089052919091209190915550565b600081600160201b84106121465760405162461bcd60e51b81526004016107df9190612b54565b6001600160a01b038116811461101557600080fd5b600060208284031215612aad57600080fd5b8135610ff381612a86565b6001600160e01b03198116811461101557600080fd5b600060208284031215612ae057600080fd5b8135610ff381612ab8565b600060208284031215612afd57600080fd5b5035919050565b60005b83811015612b1f578181015183820152602001612b07565b50506000910152565b60008151808452612b40816020860160208601612b04565b601f01601f19169290920160200192915050565b602081526000610ff36020830184612b28565b60008060408385031215612b7a57600080fd5b8235612b8581612a86565b946020939093013593505050565b600080600060608486031215612ba857600080fd5b8335612bb381612a86565b92506020840135612bc381612a86565b929592945050506040919091013590565b60008060408385031215612be757600080fd5b8235612bf281612a86565b915060208301358015158114612c0757600080fd5b809150509250929050565b634e487b7160e01b600052604160045260246000fd5b604051601f8201601f1916810167ffffffffffffffff81118282101715612c5157612c51612c12565b604052919050565b600067ffffffffffffffff821115612c7357612c73612c12565b50601f01601f191660200190565b6000612c94612c8f84612c59565b612c28565b9050828152838383011115612ca857600080fd5b828260208301376000602084830101529392505050565b60008060008060808587031215612cd557600080fd5b8435612ce081612a86565b93506020850135612cf081612a86565b925060408501359150606085013567ffffffffffffffff811115612d1357600080fd5b8501601f81018713612d2457600080fd5b612d3387823560208401612c81565b91505092959194509250565b600060208284031215612d5157600080fd5b813567ffffffffffffffff811115612d6857600080fd5b8201601f81018413612d7957600080fd5b611de684823560208401612c81565b60008060008060008060c08789031215612da157600080fd5b8635612dac81612a86565b95506020870135945060408701359350606087013560ff81168114612dd057600080fd5b9598949750929560808101359460a0909101359350915050565b60008060408385031215612dfd57600080fd5b8235612e0881612a86565b91506020830135612c0781612a86565b60008060408385031215612e2b57600080fd5b8235612e3681612a86565b9150602083013563ffffffff81168114612c0757600080fd5b634e487b7160e01b600052601260045260246000fd5b600082612e7457612e74612e4f565b500690565b600181811c90821680612e8d57607f821691505b602082108103612ead57634e487b7160e01b600052602260045260246000fd5b50919050565b634e487b7160e01b600052601160045260246000fd5b600060018201612edb57612edb612eb3565b5060010190565b60208082526031908201527f4552433732313a207472616e736665722063616c6c6572206973206e6f74206f6040820152701ddb995c881b9bdc88185c1c1c9bdd9959607a1b606082015260800190565b634e487b7160e01b600052603260045260246000fd5b8181038181111561086257610862612eb3565b63ffffffff828116828216039080821115612f7957612f79612eb3565b5092915050565b600063ffffffff80841680612f9757612f97612e4f565b92169190910492915050565b601f821115610ac057600081815260208120601f850160051c81016020861015612fca5750805b601f850160051c820191505b8181101561192c57828155600101612fd6565b815167ffffffffffffffff81111561300357613003612c12565b613017816130118454612e79565b84612fa3565b602080601f83116001811461304c57600084156130345750858301515b600019600386901b1c1916600185901b17855561192c565b600085815260208120601f198616915b8281101561307b5788860151825594840194600190910190840161305c565b50858210156130995787850151600019600388901b60f8161c191681555b5050505050600190811b01905550565b6000602082840312156130bb57600080fd5b815167ffffffffffffffff8111156130d257600080fd5b8201601f810184136130e357600080fd5b80516130f1612c8f82612c59565b81815285602083850101111561310657600080fd5b613117826020830160208601612b04565b95945050505050565b66697066733a2f2f60c81b8152600060076000845461313e81612e79565b60018281168015613156576001811461316f576131a2565b60ff1984168887015282151583028801860194506131a2565b8860005260208060002060005b858110156131975781548b82018a015290840190820161317c565b505050858389010194505b5092979650505050505050565b8082018082111561086257610862612eb3565b60208082526032908201527f4552433732313a207472616e7366657220746f206e6f6e20455243373231526560408201527131b2b4bb32b91034b6b83632b6b2b73a32b960711b606082015260800190565b6001600160a01b038581168252841660208201526040810183905260806060820181905260009061324790830184612b28565b9695505050505050565b60006020828403121561326357600080fd5b8151610ff381612ab8565b6001600160601b03828116828216039080821115612f7957612f79612eb3565b63ffffffff818116838216019080821115612f7957612f79612eb3565b6001600160601b03818116838216019080821115612f7957612f79612eb3565b634e487b7160e01b600052603160045260246000fdfe455243373231436865636b706f696e7461626c653a3a5f6d6f766544656c6567617465733a20616d6f756e74206f766572666c6f7773455243373231436865636b706f696e7461626c653a3a5f7772697465436865636b706f696e743a20626c6f636b206e756d62657220657863656564732033322062697473ddf252ad1be2c89b69c2b068fc378daa952ba7f163c4a11628f55a4df523b3ef455243373231436865636b706f696e7461626c653a3a766f746573546f44656c65676174653a20616d6f756e7420657863656564732039362062697473455243373231436865636b706f696e7461626c653a3a5f6d6f766544656c6567617465733a20616d6f756e7420756e646572666c6f7773a26469706673582212205f0c1e92387589534fe8868afd8779c8c1415173b93e88f3636c8fc3626a78f764736f6c63430008130033455243373231436865636b706f696e7461626c653a3a5f6d6f766544656c6567617465733a20616d6f756e74206f766572666c6f7773455243373231436865636b706f696e7461626c653a3a5f7772697465436865636b706f696e743a20626c6f636b206e756d62657220657863656564732033322062697473ddf252ad1be2c89b69c2b068fc378daa952ba7f163c4a11628f55a4df523b3ef516d644153517038386e343647767a466a4c4165397846645962315556373162746d5674326863434d4e57524d6b455243373231436865636b706f696e7461626c653a3a5f6d6f766544656c6567617465733a20616d6f756e7420756e646572666c6f7773",
  "linkReferences": {},
  "deployedLinkReferences": {}
}