{
  "_format": "hh-sol-artifact-1",
  "contractName": "Token",
  "sourceName": "contracts/Token.sol",
  "abi": [
    {
      "inputs": [
        {
          "internalType": "address",
          "name": "_foundersDAO",
          "type": "address"
        },
        {
          "internalType": "address",
          "name": "_foundersDAO2",
          "type": "address"
        },
        {
          "internalType": "address",
          "name": "_minter",
          "type": "address"
        },
        {
          "internalType": "contract IDescriptorMinimal",
          "name": "_descriptor",
          "type": "address"
        }
      ],
      "stateMutability": "nonpayable",
      "type": "constructor"
    },
    {
      "anonymous": false,
      "inputs": [
        {
          "indexed": true,
          "internalType": "address",
          "name": "owner",
          "type": "address"
        },
        {
          "indexed": true,
          "internalType": "address",
          "name": "approved",
          "type": "address"
        },
        {
          "indexed": true,
          "internalType": "uint256",
          "name": "tokenId",
          "type": "uint256"
        }
      ],
      "name": "Approval",
      "type": "event"
    },
    {
      "anonymous": false,
      "inputs": [
        {
          "indexed": true,
          "internalType": "address",
          "name": "owner",
          "type": "address"
        },
        {
          "indexed": true,
          "internalType": "address",
          "name": "operator",
          "type": "address"
        },
        {
          "indexed": false,
          "internalType": "bool",
          "name": "approved",
          "type": "bool"
        }
      ],
      "name": "ApprovalForAll",
      "type": "event"
    },
    {
      "anonymous": false,
      "inputs": [
        {
          "indexed": true,
          "internalType": "address",
          "name": "delegator",
          "type": "address"
        },
        {
          "indexed": true,
          "internalType": "address",
          "name": "fromDelegate",
          "type": "address"
        },
        {
          "indexed": true,
          "internalType": "address",
          "name": "toDelegate",
          "type": "address"
        }
      ],
      "name": "DelegateChanged",
      "type": "event"
    },
    {
      "anonymous": false,
      "inputs": [
        {
          "indexed": true,
          "internalType": "address",
          "name": "delegate",
          "type": "address"
        },
        {
          "indexed": false,
          "internalType": "uint256",
          "name": "previousBalance",
          "type": "uint256"
        },
        {
          "indexed": false,
          "internalType": "uint256",
          "name": "newBalance",
          "type": "uint256"
        }
      ],
      "name": "DelegateVotesChanged",
      "type": "event"
    },
    {
      "anonymous": false,
      "inputs": [],
      "name": "DescriptorLocked",
      "type": "event"
    },
    {
      "anonymous": false,
      "inputs": [
        {
          "indexed": false,
          "internalType": "contract IDescriptorMinimal",
          "name": "descriptor",
          "type": "address"
        }
      ],
      "name": "DescriptorUpdated",
      "type": "event"
    },
    {
      "anonymous": false,
      "inputs": [
        {
          "indexed": false,
          "internalType": "address",
          "name": "foundersDAO",
          "type": "address"
        }
      ],
      "name": "FoundersDAOUpdated",
      "type": "event"
    },
    {
      "anonymous": false,
      "inputs": [
        {
          "indexed": false,
          "internalType": "address",
          "name": "foundersDAO2",
          "type": "address"
        }
      ],
      "name": "FoundersDAOUpdated2",
      "type": "event"
    },
    {
      "anonymous": false,
      "inputs": [],
      "name": "MinterLocked",
      "type": "event"
    },
    {
      "anonymous": false,
      "inputs": [
        {
          "indexed": false,
          "internalType": "address",
          "name": "minter",
          "type": "address"
        }
      ],
      "name": "MinterUpdated",
      "type": "event"
    },
    {
      "anonymous": false,
      "inputs": [
        {
          "indexed": true,
          "internalType": "address",
          "name": "previousOwner",
          "type": "address"
        },
        {
          "indexed": true,
          "internalType": "address",
          "name": "newOwner",
          "type": "address"
        }
      ],
      "name": "OwnershipTransferred",
      "type": "event"
    },
    {
      "anonymous": false,
      "inputs": [
        {
          "indexed": true,
          "internalType": "uint256",
          "name": "tokenId",
          "type": "uint256"
        }
      ],
      "name": "TokenBurned",
      "type": "event"
    },
    {
      "anonymous": false,
      "inputs": [
        {
          "indexed": true,
          "internalType": "uint256",
          "name": "tokenId",
          "type": "uint256"
        }
      ],
      "name": "TokenCreated",
      "type": "event"
    },
    {
      "anonymous": false,
      "inputs": [
        {
          "indexed": true,
          "internalType": "address",
          "name": "from",
          "type": "address"
        },
        {
          "indexed": true,
          "internalType": "address",
          "name": "to",
          "type": "address"
        },
        {
          "indexed": true,
          "internalType": "uint256",
          "name": "tokenId",
          "type": "uint256"
        }
      ],
      "name": "Transfer",
      "type": "event"
    },
    {
      "inputs": [],
      "name": "DELEGATION_TYPEHASH",
      "outputs": [
        {
          "internalType": "bytes32",
          "name": "",
          "type": "bytes32"
        }
      ],
      "stateMutability": "view",
      "type": "function"
    },
    {
      "inputs": [],
      "name": "DOMAIN_TYPEHASH",
      "outputs": [
        {
          "internalType": "bytes32",
          "name": "",
          "type": "bytes32"
        }
      ],
      "stateMutability": "view",
      "type": "function"
    },
    {
      "inputs": [
        {
          "internalType": "address",
          "name": "to",
          "type": "address"
        },
        {
          "internalType": "uint256",
          "name": "tokenId",
          "type": "uint256"
        }
      ],
      "name": "approve",
      "outputs": [],
      "stateMutability": "nonpayable",
      "type": "function"
    },
    {
      "inputs": [
        {
          "internalType": "address",
          "name": "owner",
          "type": "address"
        }
      ],
      "name": "balanceOf",
      "outputs": [
        {
          "internalType": "uint256",
          "name": "",
          "type": "uint256"
        }
      ],
      "stateMutability": "view",
      "type": "function"
    },
    {
      "inputs": [
        {
          "internalType": "uint256",
          "name": "tokenId",
          "type": "uint256"
        }
      ],
      "name": "burn",
      "outputs": [],
      "stateMutability": "nonpayable",
      "type": "function"
    },
    {
      "inputs": [
        {
          "internalType": "address",
          "name": "",
          "type": "address"
        },
        {
          "internalType": "uint32",
          "name": "",
          "type": "uint32"
        }
      ],
      "name": "checkpoints",
      "outputs": [
        {
          "internalType": "uint32",
          "name": "fromBlock",
          "type": "uint32"
        },
        {
          "internalType": "uint96",
          "name": "votes",
          "type": "uint96"
        }
      ],
      "stateMutability": "view",
      "type": "function"
    },
    {
      "inputs": [],
      "name": "contractURI",
      "outputs": [
        {
          "internalType": "string",
          "name": "",
          "type": "string"
        }
      ],
      "stateMutability": "view",
      "type": "function"
    },
    {
      "inputs": [],
      "name": "decimals",
      "outputs": [
        {
          "internalType": "uint8",
          "name": "",
          "type": "uint8"
        }
      ],
      "stateMutability": "view",
      "type": "function"
    },
    {
      "inputs": [
        {
          "internalType": "address",
          "name": "delegatee",
          "type": "address"
        }
      ],
      "name": "delegate",
      "outputs": [],
      "stateMutability": "nonpayable",
      "type": "function"
    },
    {
      "inputs": [
        {
          "internalType": "address",
          "name": "delegatee",
          "type": "address"
        },
        {
          "internalType": "uint256",
          "name": "nonce",
          "type": "uint256"
        },
        {
          "internalType": "uint256",
          "name": "expiry",
          "type": "uint256"
        },
        {
          "internalType": "uint8",
          "name": "v",
          "type": "uint8"
        },
        {
          "internalType": "bytes32",
          "name": "r",
          "type": "bytes32"
        },
        {
          "internalType": "bytes32",
          "name": "s",
          "type": "bytes32"
        }
      ],
      "name": "delegateBySig",
      "outputs": [],
      "stateMutability": "nonpayable",
      "type": "function"
    },
    {
      "inputs": [
        {
          "internalType": "address",
          "name": "delegator",
          "type": "address"
        }
      ],
      "name": "delegates",
      "outputs": [
        {
          "internalType": "address",
          "name": "",
          "type": "address"
        }
      ],
      "stateMutability": "view",
      "type": "function"
    },
    {
      "inputs": [],
      "name": "descriptor",
      "outputs": [
        {
          "internalType": "contract IDescriptorMinimal",
          "name": "",
          "type": "address"
        }
      ],
      "stateMutability": "view",
      "type": "function"
    },
    {
      "inputs": [],
      "name": "foundersDAO",
      "outputs": [
        {
          "internalType": "address",
          "name": "",
          "type": "address"
        }
      ],
      "stateMutability": "view",
      "type": "function"
    },
    {
      "inputs": [],
      "name": "foundersDAO2",
      "outputs": [
        {
          "internalType": "address",
          "name": "",
          "type": "address"
        }
      ],
      "stateMutability": "view",
      "type": "function"
    },
    {
      "inputs": [
        {
          "internalType": "uint256",
          "name": "tokenId",
          "type": "uint256"
        }
      ],
      "name": "getApproved",
      "outputs": [
        {
          "internalType": "address",
          "name": "",
          "type": "address"
        }
      ],
      "stateMutability": "view",
      "type": "function"
    },
    {
      "inputs": [
        {
          "internalType": "address",
          "name": "account",
          "type": "address"
        }
      ],
      "name": "getCurrentVotes",
      "outputs": [
        {
          "internalType": "uint96",
          "name": "",
          "type": "uint96"
        }
      ],
      "stateMutability": "view",
      "type": "function"
    },
    {
      "inputs": [
        {
          "internalType": "address",
          "name": "account",
          "type": "address"
        },
        {
          "internalType": "uint256",
          "name": "blockNumber",
          "type": "uint256"
        }
      ],
      "name": "getPriorVotes",
      "outputs": [
        {
          "internalType": "uint96",
          "name": "",
          "type": "uint96"
        }
      ],
      "stateMutability": "view",
      "type": "function"
    },
    {
      "inputs": [
        {
          "internalType": "address",
          "name": "owner",
          "type": "address"
        },
        {
          "internalType": "address",
          "name": "operator",
          "type": "address"
        }
      ],
      "name": "isApprovedForAll",
      "outputs": [
        {
          "internalType": "bool",
          "name": "",
          "type": "bool"
        }
      ],
      "stateMutability": "view",
      "type": "function"
    },
    {
      "inputs": [],
      "name": "isDescriptorLocked",
      "outputs": [
        {
          "internalType": "bool",
          "name": "",
          "type": "bool"
        }
      ],
      "stateMutability": "view",
      "type": "function"
    },
    {
      "inputs": [],
      "name": "isMinterLocked",
      "outputs": [
        {
          "internalType": "bool",
          "name": "",
          "type": "bool"
        }
      ],
      "stateMutability": "view",
      "type": "function"
    },
    {
      "inputs": [],
      "name": "lockDescriptor",
      "outputs": [],
      "stateMutability": "nonpayable",
      "type": "function"
    },
    {
      "inputs": [],
      "name": "lockMinter",
      "outputs": [],
      "stateMutability": "nonpayable",
      "type": "function"
    },
    {
      "inputs": [],
      "name": "mint",
      "outputs": [
        {
          "internalType": "uint256",
          "name": "",
          "type": "uint256"
        }
      ],
      "stateMutability": "nonpayable",
      "type": "function"
    },
    {
      "inputs": [],
      "name": "minter",
      "outputs": [
        {
          "internalType": "address",
          "name": "",
          "type": "address"
        }
      ],
      "stateMutability": "view",
      "type": "function"
    },
    {
      "inputs": [],
      "name": "name",
      "outputs": [
        {
          "internalType": "string",
          "name": "",
          "type": "string"
        }
      ],
      "stateMutability": "view",
      "type": "function"
    },
    {
      "inputs": [
        {
          "internalType": "address",
          "name": "",
          "type": "address"
        }
      ],
      "name": "nonces",
      "outputs": [
        {
          "internalType": "uint256",
          "name": "",
          "type": "uint256"
        }
      ],
      "stateMutability": "view",
      "type": "function"
    },
    {
      "inputs": [
        {
          "internalType": "address",
          "name": "",
          "type": "address"
        }
      ],
      "name": "numCheckpoints",
      "outputs": [
        {
          "internalType": "uint32",
          "name": "",
          "type": "uint32"
        }
      ],
      "stateMutability": "view",
      "type": "function"
    },
    {
      "inputs": [],
      "name": "owner",
      "outputs": [
        {
          "internalType": "address",
          "name": "",
          "type": "address"
        }
      ],
      "stateMutability": "view",
      "type": "function"
    },
    {
      "inputs": [
        {
          "internalType": "uint256",
          "name": "tokenId",
          "type": "uint256"
        }
      ],
      "name": "ownerOf",
      "outputs": [
        {
          "internalType": "address",
          "name": "",
          "type": "address"
        }
      ],
      "stateMutability": "view",
      "type": "function"
    },
    {
      "inputs": [],
      "name": "renounceOwnership",
      "outputs": [],
      "stateMutability": "nonpayable",
      "type": "function"
    },
    {
      "inputs": [
        {
          "internalType": "address",
          "name": "from",
          "type": "address"
        },
        {
          "internalType": "address",
          "name": "to",
          "type": "address"
        },
        {
          "internalType": "uint256",
          "name": "tokenId",
          "type": "uint256"
        }
      ],
      "name": "safeTransferFrom",
      "outputs": [],
      "stateMutability": "nonpayable",
      "type": "function"
    },
    {
      "inputs": [
        {
          "internalType": "address",
          "name": "from",
          "type": "address"
        },
        {
          "internalType": "address",
          "name": "to",
          "type": "address"
        },
        {
          "internalType": "uint256",
          "name": "tokenId",
          "type": "uint256"
        },
        {
          "internalType": "bytes",
          "name": "_data",
          "type": "bytes"
        }
      ],
      "name": "safeTransferFrom",
      "outputs": [],
      "stateMutability": "nonpayable",
      "type": "function"
    },
    {
      "inputs": [
        {
          "internalType": "address",
          "name": "operator",
          "type": "address"
        },
        {
          "internalType": "bool",
          "name": "approved",
          "type": "bool"
        }
      ],
      "name": "setApprovalForAll",
      "outputs": [],
      "stateMutability": "nonpayable",
      "type": "function"
    },
    {
      "inputs": [
        {
          "internalType": "string",
          "name": "newContractURIHash",
          "type": "string"
        }
      ],
      "name": "setContractURIHash",
      "outputs": [],
      "stateMutability": "nonpayable",
      "type": "function"
    },
    {
      "inputs": [
        {
          "internalType": "contract IDescriptorMinimal",
          "name": "_descriptor",
          "type": "address"
        }
      ],
      "name": "setDescriptor",
      "outputs": [],
      "stateMutability": "nonpayable",
      "type": "function"
    },
    {
      "inputs": [
        {
          "internalType": "address",
          "name": "_foundersDAO",
          "type": "address"
        }
      ],
      "name": "setFoundersDAO",
      "outputs": [],
      "stateMutability": "nonpayable",
      "type": "function"
    },
    {
      "inputs": [
        {
          "internalType": "address",
          "name": "_foundersDAO2",
          "type": "address"
        }
      ],
      "name": "setFoundersDAO2",
      "outputs": [],
      "stateMutability": "nonpayable",
      "type": "function"
    },
    {
      "inputs": [
        {
          "internalType": "address",
          "name": "_minter",
          "type": "address"
        }
      ],
      "name": "setMinter",
      "outputs": [],
      "stateMutability": "nonpayable",
      "type": "function"
    },
    {
      "inputs": [
        {
          "internalType": "bytes4",
          "name": "interfaceId",
          "type": "bytes4"
        }
      ],
      "name": "supportsInterface",
      "outputs": [
        {
          "internalType": "bool",
          "name": "",
          "type": "bool"
        }
      ],
      "stateMutability": "view",
      "type": "function"
    },
    {
      "inputs": [],
      "name": "symbol",
      "outputs": [
        {
          "internalType": "string",
          "name": "",
          "type": "string"
        }
      ],
      "stateMutability": "view",
      "type": "function"
    },
    {
      "inputs": [
        {
          "internalType": "uint256",
          "name": "index",
          "type": "uint256"
        }
      ],
      "name": "tokenByIndex",
      "outputs": [
        {
          "internalType": "uint256",
          "name": "",
          "type": "uint256"
        }
      ],
      "stateMutability": "view",
      "type": "function"
    },
    {
      "inputs": [
        {
          "internalType": "address",
          "name": "owner",
          "type": "address"
        },
        {
          "internalType": "uint256",
          "name": "index",
          "type": "uint256"
        }
      ],
      "name": "tokenOfOwnerByIndex",
      "outputs": [
        {
          "internalType": "uint256",
          "name": "",
          "type": "uint256"
        }
      ],
      "stateMutability": "view",
      "type": "function"
    },
    {
      "inputs": [
        {
          "internalType": "uint256",
          "name": "tokenId",
          "type": "uint256"
        }
      ],
      "name": "tokenURI",
      "outputs": [
        {
          "internalType": "string",
          "name": "",
          "type": "string"
        }
      ],
      "stateMutability": "view",
      "type": "function"
    },
    {
      "inputs": [],
      "name": "totalSupply",
      "outputs": [
        {
          "internalType": "uint256",
          "name": "",
          "type": "uint256"
        }
      ],
      "stateMutability": "view",
      "type": "function"
    },
    {
      "inputs": [
        {
          "internalType": "address",
          "name": "from",
          "type": "address"
        },
        {
          "internalType": "address",
          "name": "to",
          "type": "address"
        },
        {
          "internalType": "uint256",
          "name": "tokenId",
          "type": "uint256"
        }
      ],
      "name": "transferFrom",
      "outputs": [],
      "stateMutability": "nonpayable",
      "type": "function"
    },
    {
      "inputs": [
        {
          "internalType": "address",
          "name": "newOwner",
          "type": "address"
        }
      ],
      "name": "transferOwnership",
      "outputs": [],
      "stateMutability": "nonpayable",
      "type": "function"
    },
    {
      "inputs": [
        {
          "internalType": "address",
          "name": "delegator",
          "type": "address"
        }
      ],
      "name": "votesToDelegate",
      "outputs": [
        {
          "internalType": "uint96",
          "name": "",
          "type": "uint96"
        }
      ],
      "stateMutability": "view",
      "type": "function"
    }
  ],
  "bytecode": "0x60e0604052602e6080818152906200369160a0396014906200002290826200021e565b503480156200003057600080fd5b50604051620036bf380380620036bf833981016040819052620000539162000303565b6040518060400160405280600d81526020016c1359591a58d85b111053d39195609a1b81525060405180604001604052806005815260200164135113919560da1b815250620000b1620000ab6200012560201b60201c565b62000129565b6001620000bf83826200021e565b506002620000ce82826200021e565b5050600f80546001600160a01b039687166001600160a01b0319918216179091556010805495871695821695909517909455506011805492851692841692909217909155601280549190931691161790556200036b565b3390565b600080546001600160a01b038381166001600160a01b0319831681178455604051919092169283917f8be0079c531659141344cd1fd0a4f28419497f9722a3daafe3b4186f6b6457e09190a35050565b634e487b7160e01b600052604160045260246000fd5b600181811c90821680620001a457607f821691505b602082108103620001c557634e487b7160e01b600052602260045260246000fd5b50919050565b601f8211156200021957600081815260208120601f850160051c81016020861015620001f45750805b601f850160051c820191505b81811015620002155782815560010162000200565b5050505b505050565b81516001600160401b038111156200023a576200023a62000179565b62000252816200024b84546200018f565b84620001cb565b602080601f8311600181146200028a5760008415620002715750858301515b600019600386901b1c1916600185901b17855562000215565b600085815260208120601f198616915b82811015620002bb578886015182559484019460019091019084016200029a565b5085821015620002da5787850151600019600388901b60f8161c191681555b5050505050600190811b01905550565b6001600160a01b03811681146200030057600080fd5b50565b600080600080608085870312156200031a57600080fd5b84516200032781620002ea565b60208601519094506200033a81620002ea565b60408601519093506200034d81620002ea565b60608601519092506200036081620002ea565b939692955090935050565b613316806200037b6000396000f3fe608060405234801561001057600080fd5b50600436106102955760003560e01c80636352211e11610167578063baedc1c4116100ce578063e9580e9111610087578063e9580e9114610613578063e985e9c514610626578063f1127ed814610662578063f2fde38b146106c9578063fa6e88bd146106dc578063fca3b5aa146106ef57600080fd5b8063baedc1c414610597578063c1b8e4e1146105aa578063c3cda520146105be578063c87b56dd146105d1578063e7a324dc146105e4578063e8a3d4851461060b57600080fd5b80637ecebe00116101205780637ecebe00146105255780638da5cb5b1461054557806395d89b4114610556578063a22cb4651461055e578063b4b5ea5714610571578063b88d4fde1461058457600080fd5b80636352211e146104895780636fcfff451461049c57806370a08231146104d7578063715018a6146104ea57806376daebe1146104f2578063782d6fe1146104fa57600080fd5b806320606b701161020b57806341b5d0de116101c457806341b5d0de1461042257806342842e0e1461042a57806342966c681461043d5780634f6ccce714610450578063587cde1e146104635780635c19a95c1461047657600080fd5b806320606b701461039557806321dad6ac146103bc57806323b872dd146103cf5780632f745c59146103e2578063303e74df146103f5578063313ce5671461040857600080fd5b8063095ea7b31161025d578063095ea7b31461032a578063104420bb1461033d5780631249c58b1461035057806318160ddd146103665780631c0eb0951461036e5780631e688e101461038157600080fd5b806301b9a3971461029a57806301ffc9a7146102af57806306fdde03146102d757806307546172146102ec578063081812fc14610317575b600080fd5b6102ad6102a836600461298c565b610702565b005b6102c26102bd3660046129bf565b6107b5565b60405190151581526020015b60405180910390f35b6102df6107e0565b6040516102ce9190612a2c565b6011546102ff906001600160a01b031681565b6040516001600160a01b0390911681526020016102ce565b6102ff610325366004612a3f565b610872565b6102ad610338366004612a58565b610907565b6102ad61034b36600461298c565b610a1c565b610358610ac4565b6040519081526020016102ce565b600954610358565b6010546102ff906001600160a01b031681565b6012546102c290600160a01b900460ff1681565b6103587f8cad95687ba82c2ce50e74f7b754645e5117c3a5bec8151c0726d5857980a86681565b6102ad6103ca36600461298c565b610bb2565b6102ad6103dd366004612a84565b610c5a565b6103586103f0366004612a58565b610c8b565b6012546102ff906001600160a01b031681565b610410600081565b60405160ff90911681526020016102ce565b6102ad610d21565b6102ad610438366004612a84565b610db8565b6102ad61044b366004612a3f565b610dd3565b61035861045e366004612a3f565b610e5f565b6102ff61047136600461298c565b610ef2565b6102ad61048436600461298c565b610f24565b6102ff610497366004612a3f565b610f42565b6104c26104aa36600461298c565b600d6020526000908152604090205463ffffffff1681565b60405163ffffffff90911681526020016102ce565b6103586104e536600461298c565b610fb9565b6102ad611040565b6102ad611054565b61050d610508366004612a58565b6110e7565b6040516001600160601b0390911681526020016102ce565b61035861053336600461298c565b600e6020526000908152604090205481565b6000546001600160a01b03166102ff565b6102df611387565b6102ad61056c366004612ac5565b611396565b61050d61057f36600461298c565b61145a565b6102ad610592366004612bb0565b6114d7565b6102ad6105a5366004612c30565b61150f565b6012546102c290600160a81b900460ff1681565b6102ad6105cc366004612c79565b611527565b6102df6105df366004612a3f565b611825565b6103587fe48329057bfd03d55e49b547132e39cffd9c1820ad7b9d4c5307691425d15adf81565b6102df611914565b61050d61062136600461298c565b61193c565b6102c2610634366004612cdb565b6001600160a01b03918216600090815260066020908152604080832093909416825291909152205460ff1690565b6106a5610670366004612d09565b600c60209081526000928352604080842090915290825290205463ffffffff811690600160201b90046001600160601b031682565b6040805163ffffffff90931683526001600160601b039091166020830152016102ce565b6102ad6106d736600461298c565b611968565b600f546102ff906001600160a01b031681565b6102ad6106fd36600461298c565b6119de565b61070a611a81565b601254600160a81b900460ff16156107605760405162461bcd60e51b815260206004820152601460248201527311195cd8dc9a5c1d1bdc881a5cc81b1bd8dad95960621b60448201526064015b60405180910390fd5b601280546001600160a01b0319166001600160a01b0383169081179091556040519081527f6e66ab22238a5471005895947c8f57db923c2a9c9c73180eff80864c21295c1b906020015b60405180910390a150565b60006001600160e01b0319821663780e9d6360e01b14806107da57506107da82611adb565b92915050565b6060600180546107ef90612d40565b80601f016020809104026020016040519081016040528092919081815260200182805461081b90612d40565b80156108685780601f1061083d57610100808354040283529160200191610868565b820191906000526020600020905b81548152906001019060200180831161084b57829003601f168201915b5050505050905090565b6000818152600360205260408120546001600160a01b03166108eb5760405162461bcd60e51b815260206004820152602c60248201527f4552433732313a20617070726f76656420717565727920666f72206e6f6e657860448201526b34b9ba32b73a103a37b5b2b760a11b6064820152608401610757565b506000908152600560205260409020546001600160a01b031690565b600061091282610f42565b9050806001600160a01b0316836001600160a01b03160361097f5760405162461bcd60e51b815260206004820152602160248201527f4552433732313a20617070726f76616c20746f2063757272656e74206f776e656044820152603960f91b6064820152608401610757565b336001600160a01b038216148061099b575061099b8133610634565b610a0d5760405162461bcd60e51b815260206004820152603860248201527f4552433732313a20617070726f76652063616c6c6572206973206e6f74206f7760448201527f6e6572206e6f7220617070726f76656420666f7220616c6c00000000000000006064820152608401610757565b610a178383611b2b565b505050565b600f546001600160a01b03163314610a765760405162461bcd60e51b815260206004820152601e60248201527f53656e646572206973206e6f742074686520666f756e646572732044414f00006044820152606401610757565b600f80546001600160a01b0319166001600160a01b0383169081179091556040519081527f43a23946487162e5425d76e9f4942546b64337f895ba2cb83e8198ad221f3a21906020016107aa565b6011546000906001600160a01b03163314610b1c5760405162461bcd60e51b815260206004820152601860248201527729b2b73232b91034b9903737ba103a34329036b4b73a32b960411b6044820152606401610757565b61071c60135411158015610b3c5750600a601354610b3a9190612d90565b155b15610b8d57600f5460138054610b6a926001600160a01b0316916000610b6183612dba565b91905055611b99565b5060105460138054610b8b926001600160a01b0316916000610b6183612dba565b505b60115460138054610bad926001600160a01b0316916000610b6183612dba565b905090565b600f546001600160a01b03163314610c0c5760405162461bcd60e51b815260206004820152601e60248201527f53656e646572206973206e6f742074686520666f756e646572732044414f00006044820152606401610757565b601080546001600160a01b0319166001600160a01b0383169081179091556040519081527f359f5fee4c34af45c903a65f89a0d0232a66c107520b8df861a08200f31b4bfe906020016107aa565b610c643382611be8565b610c805760405162461bcd60e51b815260040161075790612dd3565b610a17838383611cdf565b6000610c9683610fb9565b8210610cf85760405162461bcd60e51b815260206004820152602b60248201527f455243373231456e756d657261626c653a206f776e657220696e646578206f7560448201526a74206f6620626f756e647360a81b6064820152608401610757565b506001600160a01b03919091166000908152600760209081526040808320938352929052205490565b610d29611a81565b601254600160a81b900460ff1615610d7a5760405162461bcd60e51b815260206004820152601460248201527311195cd8dc9a5c1d1bdc881a5cc81b1bd8dad95960621b6044820152606401610757565b6012805460ff60a81b1916600160a81b1790556040517f593e31e306c198bef259d839f7c6dc4ff7fc10c07f76fab193a210b03704105f90600090a1565b610a17838383604051806020016040528060008152506114d7565b6011546001600160a01b03163314610e285760405162461bcd60e51b815260206004820152601860248201527729b2b73232b91034b9903737ba103a34329036b4b73a32b960411b6044820152606401610757565b610e3181611e78565b60405181907f0c526103b8f47af5516191d0c89a598755bd00faa211a3cb52e4c2cc782f7fe290600090a250565b6000610e6a60095490565b8210610ecd5760405162461bcd60e51b815260206004820152602c60248201527f455243373231456e756d657261626c653a20676c6f62616c20696e646578206f60448201526b7574206f6620626f756e647360a01b6064820152608401610757565b60098281548110610ee057610ee0612e24565b90600052602060002001549050919050565b6001600160a01b038082166000908152600b60205260408120549091168015610f1b5780610f1d565b825b9392505050565b6001600160a01b038116610f355750335b610f3f3382611f0d565b50565b6000818152600360205260408120546001600160a01b0316806107da5760405162461bcd60e51b815260206004820152602960248201527f4552433732313a206f776e657220717565727920666f72206e6f6e657869737460448201526832b73a103a37b5b2b760b91b6064820152608401610757565b60006001600160a01b0382166110245760405162461bcd60e51b815260206004820152602a60248201527f4552433732313a2062616c616e636520717565727920666f7220746865207a65604482015269726f206164647265737360b01b6064820152608401610757565b506001600160a01b031660009081526004602052604090205490565b611048611a81565b6110526000611f8d565b565b61105c611a81565b601254600160a01b900460ff16156110a95760405162461bcd60e51b815260206004820152601060248201526f135a5b9d195c881a5cc81b1bd8dad95960821b6044820152606401610757565b6012805460ff60a01b1916600160a01b1790556040517f192417b3f16b1ce69e0c59b0376549666650245ffc05e4b2569089dda8589b6690600090a1565b600043821061115e5760405162461bcd60e51b815260206004820152603760248201527f455243373231436865636b706f696e7461626c653a3a6765745072696f72566f60448201527f7465733a206e6f74207965742064657465726d696e65640000000000000000006064820152608401610757565b6001600160a01b0383166000908152600d602052604081205463ffffffff169081900361118f5760009150506107da565b6001600160a01b0384166000908152600c6020526040812084916111b4600185612e3a565b63ffffffff90811682526020820192909252604001600020541611611227576001600160a01b0384166000908152600c60205260408120906111f7600184612e3a565b63ffffffff168152602081019190915260400160002054600160201b90046001600160601b031691506107da9050565b6001600160a01b0384166000908152600c6020908152604080832083805290915290205463ffffffff168310156112625760009150506107da565b600080611270600184612e3a565b90505b8163ffffffff168163ffffffff16111561134257600060026112958484612e3a565b61129f9190612e5e565b6112a99083612e3a565b6001600160a01b0388166000908152600c6020908152604080832063ffffffff858116855290835292819020815180830190925254928316808252600160201b9093046001600160601b031691810191909152919250879003611316576020015194506107da9350505050565b805163ffffffff1687111561132d5781935061133b565b611338600183612e3a565b92505b5050611273565b506001600160a01b0385166000908152600c6020908152604080832063ffffffff909416835292905220546001600160601b03600160201b9091041691505092915050565b6060600280546107ef90612d40565b336001600160a01b038316036113ee5760405162461bcd60e51b815260206004820152601960248201527f4552433732313a20617070726f766520746f2063616c6c6572000000000000006044820152606401610757565b3360008181526006602090815260408083206001600160a01b03871680855290835292819020805460ff191686151590811790915590519081529192917f17307eab39ab6107e8899845ad3d59bd9653f200f220920489ca2b5937696c31910160405180910390a35050565b6001600160a01b0381166000908152600d602052604081205463ffffffff1680611485576000610f1d565b6001600160a01b0383166000908152600c60205260408120906114a9600184612e3a565b63ffffffff168152602081019190915260400160002054600160201b90046001600160601b03169392505050565b6114e13383611be8565b6114fd5760405162461bcd60e51b815260040161075790612dd3565b61150984848484611fdd565b50505050565b611517611a81565b60146115238282612ec7565b5050565b60007f8cad95687ba82c2ce50e74f7b754645e5117c3a5bec8151c0726d5857980a8666115526107e0565b805190602001206115604690565b60408051602080820195909552808201939093526060830191909152306080808401919091528151808403909101815260a0830182528051908401207fe48329057bfd03d55e49b547132e39cffd9c1820ad7b9d4c5307691425d15adf60c08401526001600160a01b038b1660e084015261010083018a90526101208084018a90528251808503909101815261014084019092528151919093012061190160f01b610160830152610162820183905261018282018190529192506000906101a20160408051601f198184030181528282528051602091820120600080855291840180845281905260ff8a169284019290925260608301889052608083018790529092509060019060a0016020604051602081039080840390855afa15801561168c573d6000803e3d6000fd5b5050604051601f1901519150506001600160a01b03811661170e5760405162461bcd60e51b815260206004820152603660248201527f455243373231436865636b706f696e7461626c653a3a64656c656761746542796044820152755369673a20696e76616c6964207369676e617475726560501b6064820152608401610757565b6001600160a01b0381166000908152600e6020526040812080549161173283612dba565b91905055891461179f5760405162461bcd60e51b815260206004820152603260248201527f455243373231436865636b706f696e7461626c653a3a64656c656761746542796044820152715369673a20696e76616c6964206e6f6e636560701b6064820152608401610757565b8742111561180e5760405162461bcd60e51b815260206004820152603660248201527f455243373231436865636b706f696e7461626c653a3a64656c6567617465427960448201527514da59ce881cda59db985d1d5c9948195e1c1a5c995960521b6064820152608401610757565b611818818b611f0d565b505050505b505050505050565b6000818152600360205260409020546060906001600160a01b03166118a35760405162461bcd60e51b815260206004820152602e60248201527f4d65646963616c44414f4e46543a2055524920717565727920666f72206e6f6e60448201526d32bc34b9ba32b73a103a37b5b2b760911b6064820152608401610757565b60125460405163c87b56dd60e01b8152600481018490526001600160a01b039091169063c87b56dd90602401600060405180830381865afa1580156118ec573d6000803e3d6000fd5b505050506040513d6000823e601f3d908101601f191682016040526107da9190810190612f87565b606060146040516020016119289190612ffe565b604051602081830303815290604052905090565b60006107da61194a83610fb9565b6040518060600160405280603d815260200161326d603d9139612010565b611970611a81565b6001600160a01b0381166119d55760405162461bcd60e51b815260206004820152602660248201527f4f776e61626c653a206e6577206f776e657220697320746865207a65726f206160448201526564647265737360d01b6064820152608401610757565b610f3f81611f8d565b6119e6611a81565b601254600160a01b900460ff1615611a335760405162461bcd60e51b815260206004820152601060248201526f135a5b9d195c881a5cc81b1bd8dad95960821b6044820152606401610757565b601180546001600160a01b0319166001600160a01b0383169081179091556040519081527fad0f299ec81a386c98df0ac27dae11dd020ed1b56963c53a7292e7a3a314539a906020016107aa565b6000546001600160a01b031633146110525760405162461bcd60e51b815260206004820181905260248201527f4f776e61626c653a2063616c6c6572206973206e6f7420746865206f776e65726044820152606401610757565b60006001600160e01b031982166380ac58cd60e01b1480611b0c57506001600160e01b03198216635b5e139f60e01b145b806107da57506301ffc9a760e01b6001600160e01b03198316146107da565b600081815260056020526040902080546001600160a01b0319166001600160a01b0384169081179091558190611b6082610f42565b6001600160a01b03167f8c5be1e5ebec7d5bd14f71427d1e84f3dd0314c0f7b2291e5b200ac8c7c3b92560405160405180910390a45050565b6000611bb7611bb06000546001600160a01b031690565b848461203f565b60405182907f5871761b381266e7e47309f0821d5b396364ebb6371d878871cac5393cb93ea890600090a250919050565b6000818152600360205260408120546001600160a01b0316611c615760405162461bcd60e51b815260206004820152602c60248201527f4552433732313a206f70657261746f7220717565727920666f72206e6f6e657860448201526b34b9ba32b73a103a37b5b2b760a11b6064820152608401610757565b6000611c6c83610f42565b9050806001600160a01b0316846001600160a01b03161480611ca75750836001600160a01b0316611c9c84610872565b6001600160a01b0316145b80611cd757506001600160a01b0380821660009081526006602090815260408083209388168352929052205460ff165b949350505050565b826001600160a01b0316611cf282610f42565b6001600160a01b031614611d5a5760405162461bcd60e51b815260206004820152602960248201527f4552433732313a207472616e73666572206f6620746f6b656e2074686174206960448201526839903737ba1037bbb760b91b6064820152608401610757565b6001600160a01b038216611dbc5760405162461bcd60e51b8152602060048201526024808201527f4552433732313a207472616e7366657220746f20746865207a65726f206164646044820152637265737360e01b6064820152608401610757565b611dc78383836121b1565b611dd2600082611b2b565b6001600160a01b0383166000908152600460205260408120805460019290611dfb90849061308d565b90915550506001600160a01b0382166000908152600460205260408120805460019290611e299084906130a0565b909155505060008181526003602052604080822080546001600160a01b0319166001600160a01b03868116918217909255915184939187169160008051602061324d83398151915291a4505050565b6000611e8382610f42565b9050611e91816000846121b1565b611e9c600083611b2b565b6001600160a01b0381166000908152600460205260408120805460019290611ec590849061308d565b909155505060008281526003602052604080822080546001600160a01b0319169055518391906001600160a01b0384169060008051602061324d833981519152908390a45050565b6000611f1883610ef2565b6001600160a01b038481166000818152600b602052604080822080546001600160a01b031916888616908117909155905194955093928516927f3134e8a2e6d97e929a7e54011ea5485d7d196dd5f0ba4d4ef95803e8e3fc257f9190a46000611f808461193c565b90506115098284836121d4565b600080546001600160a01b038381166001600160a01b0319831681178455604051919092169283917f8be0079c531659141344cd1fd0a4f28419497f9722a3daafe3b4186f6b6457e09190a35050565b611fe8848484611cdf565b611ff484848484612380565b6115095760405162461bcd60e51b8152600401610757906130b3565b600081600160601b84106120375760405162461bcd60e51b81526004016107579190612a2c565b509192915050565b6001600160a01b0382166120955760405162461bcd60e51b815260206004820181905260248201527f4552433732313a206d696e7420746f20746865207a65726f20616464726573736044820152606401610757565b6000818152600360205260409020546001600160a01b0316156120fa5760405162461bcd60e51b815260206004820152601c60248201527f4552433732313a20746f6b656e20616c7265616479206d696e746564000000006044820152606401610757565b612106600083836121b1565b6001600160a01b038216600090815260046020526040812080546001929061212f9084906130a0565b909155505060008181526003602052604080822080546001600160a01b0319166001600160a01b038681169190911790915590518392918616919060008051602061324d833981519152908290a480826001600160a01b0316846001600160a01b031660008051602061324d83398151915260405160405180910390a4505050565b6121bc838383612481565b610a176121c884610ef2565b6121d184610ef2565b60015b816001600160a01b0316836001600160a01b0316141580156121ff57506000816001600160601b0316115b15610a17576001600160a01b038316156122c4576001600160a01b0383166000908152600d602052604081205463ffffffff16908161223f57600061228b565b6001600160a01b0385166000908152600c6020526040812090612263600185612e3a565b63ffffffff168152602081019190915260400160002054600160201b90046001600160601b03165b905060006122b282856040518060600160405280603781526020016132aa60379139612539565b90506122c08684848461257b565b5050505b6001600160a01b03821615610a17576001600160a01b0382166000908152600d602052604081205463ffffffff1690816122ff57600061234b565b6001600160a01b0384166000908152600c6020526040812090612323600185612e3a565b63ffffffff168152602081019190915260400160002054600160201b90046001600160601b03165b9050600061237282856040518060600160405280603681526020016131d360369139612773565b905061181d8584848461257b565b60006001600160a01b0384163b1561247657604051630a85bd0160e11b81526001600160a01b0385169063150b7a02906123c4903390899088908890600401613105565b6020604051808303816000875af19250505080156123ff575060408051601f3d908101601f191682019092526123fc91810190613142565b60015b61245c573d80801561242d576040519150601f19603f3d011682016040523d82523d6000602084013e612432565b606091505b5080516000036124545760405162461bcd60e51b8152600401610757906130b3565b805181602001fd5b6001600160e01b031916630a85bd0160e11b149050611cd7565b506001949350505050565b6001600160a01b0383166124dc576124d781600980546000838152600a60205260408120829055600182018355919091527f6e1540171b6c0c960b71a7020d9f60077f6af931a8bbf590da0223dacf75c7af0155565b6124ff565b816001600160a01b0316836001600160a01b0316146124ff576124ff83826127c0565b6001600160a01b03821661251657610a178161285d565b826001600160a01b0316826001600160a01b031614610a1757610a17828261290c565b6000836001600160601b0316836001600160601b0316111582906125705760405162461bcd60e51b81526004016107579190612a2c565b50611cd7838561315f565b600061259f4360405180608001604052806044815260200161320960449139612950565b905060008463ffffffff161180156125f957506001600160a01b0385166000908152600c6020526040812063ffffffff8316916125dd600188612e3a565b63ffffffff908116825260208201929092526040016000205416145b1561266d576001600160a01b0385166000908152600c602052604081208391612623600188612e3a565b63ffffffff168152602081019190915260400160002080546001600160601b0392909216600160201b026fffffffffffffffffffffffff000000001990921691909117905561271e565b60408051808201825263ffffffff80841682526001600160601b0380861660208085019182526001600160a01b038b166000908152600c82528681208b8616825290915294909420925183549451909116600160201b026fffffffffffffffffffffffffffffffff199094169116179190911790556126ed84600161317f565b6001600160a01b0386166000908152600d60205260409020805463ffffffff191663ffffffff929092169190911790555b604080516001600160601b038086168252841660208201526001600160a01b038716917fdec2bacdd2f05b59de34da9b523dff8be42e5e38e818c82fdb0bae774387a724910160405180910390a25050505050565b600080612780848661319c565b9050846001600160601b0316816001600160601b0316101583906127b75760405162461bcd60e51b81526004016107579190612a2c565b50949350505050565b600060016127cd84610fb9565b6127d7919061308d565b60008381526008602052604090205490915080821461282a576001600160a01b03841660009081526007602090815260408083208584528252808320548484528184208190558352600890915290208190555b5060009182526008602090815260408084208490556001600160a01b039094168352600781528383209183525290812055565b60095460009061286f9060019061308d565b6000838152600a60205260408120546009805493945090928490811061289757612897612e24565b9060005260206000200154905080600983815481106128b8576128b8612e24565b6000918252602080832090910192909255828152600a909152604080822084905585825281205560098054806128f0576128f06131bc565b6001900381819060005260206000200160009055905550505050565b600061291783610fb9565b6001600160a01b039093166000908152600760209081526040808320868452825280832085905593825260089052919091209190915550565b600081600160201b84106120375760405162461bcd60e51b81526004016107579190612a2c565b6001600160a01b0381168114610f3f57600080fd5b60006020828403121561299e57600080fd5b8135610f1d81612977565b6001600160e01b031981168114610f3f57600080fd5b6000602082840312156129d157600080fd5b8135610f1d816129a9565b60005b838110156129f75781810151838201526020016129df565b50506000910152565b60008151808452612a188160208601602086016129dc565b601f01601f19169290920160200192915050565b602081526000610f1d6020830184612a00565b600060208284031215612a5157600080fd5b5035919050565b60008060408385031215612a6b57600080fd5b8235612a7681612977565b946020939093013593505050565b600080600060608486031215612a9957600080fd5b8335612aa481612977565b92506020840135612ab481612977565b929592945050506040919091013590565b60008060408385031215612ad857600080fd5b8235612ae381612977565b915060208301358015158114612af857600080fd5b809150509250929050565b634e487b7160e01b600052604160045260246000fd5b604051601f8201601f1916810167ffffffffffffffff81118282101715612b4257612b42612b03565b604052919050565b600067ffffffffffffffff821115612b6457612b64612b03565b50601f01601f191660200190565b6000612b85612b8084612b4a565b612b19565b9050828152838383011115612b9957600080fd5b828260208301376000602084830101529392505050565b60008060008060808587031215612bc657600080fd5b8435612bd181612977565b93506020850135612be181612977565b925060408501359150606085013567ffffffffffffffff811115612c0457600080fd5b8501601f81018713612c1557600080fd5b612c2487823560208401612b72565b91505092959194509250565b600060208284031215612c4257600080fd5b813567ffffffffffffffff811115612c5957600080fd5b8201601f81018413612c6a57600080fd5b611cd784823560208401612b72565b60008060008060008060c08789031215612c9257600080fd5b8635612c9d81612977565b95506020870135945060408701359350606087013560ff81168114612cc157600080fd5b9598949750929560808101359460a0909101359350915050565b60008060408385031215612cee57600080fd5b8235612cf981612977565b91506020830135612af881612977565b60008060408385031215612d1c57600080fd5b8235612d2781612977565b9150602083013563ffffffff81168114612af857600080fd5b600181811c90821680612d5457607f821691505b602082108103612d7457634e487b7160e01b600052602260045260246000fd5b50919050565b634e487b7160e01b600052601260045260246000fd5b600082612d9f57612d9f612d7a565b500690565b634e487b7160e01b600052601160045260246000fd5b600060018201612dcc57612dcc612da4565b5060010190565b60208082526031908201527f4552433732313a207472616e736665722063616c6c6572206973206e6f74206f6040820152701ddb995c881b9bdc88185c1c1c9bdd9959607a1b606082015260800190565b634e487b7160e01b600052603260045260246000fd5b63ffffffff828116828216039080821115612e5757612e57612da4565b5092915050565b600063ffffffff80841680612e7557612e75612d7a565b92169190910492915050565b601f821115610a1757600081815260208120601f850160051c81016020861015612ea85750805b601f850160051c820191505b8181101561181d57828155600101612eb4565b815167ffffffffffffffff811115612ee157612ee1612b03565b612ef581612eef8454612d40565b84612e81565b602080601f831160018114612f2a5760008415612f125750858301515b600019600386901b1c1916600185901b17855561181d565b600085815260208120601f198616915b82811015612f5957888601518255948401946001909101908401612f3a565b5085821015612f775787850151600019600388901b60f8161c191681555b5050505050600190811b01905550565b600060208284031215612f9957600080fd5b815167ffffffffffffffff811115612fb057600080fd5b8201601f81018413612fc157600080fd5b8051612fcf612b8082612b4a565b818152856020838501011115612fe457600080fd5b612ff58260208301602086016129dc565b95945050505050565b66697066733a2f2f60c81b8152600060076000845461301c81612d40565b60018281168015613034576001811461304d57613080565b60ff198416888701528215158302880186019450613080565b8860005260208060002060005b858110156130755781548b82018a015290840190820161305a565b505050858389010194505b5092979650505050505050565b818103818111156107da576107da612da4565b808201808211156107da576107da612da4565b60208082526032908201527f4552433732313a207472616e7366657220746f206e6f6e20455243373231526560408201527131b2b4bb32b91034b6b83632b6b2b73a32b960711b606082015260800190565b6001600160a01b038581168252841660208201526040810183905260806060820181905260009061313890830184612a00565b9695505050505050565b60006020828403121561315457600080fd5b8151610f1d816129a9565b6001600160601b03828116828216039080821115612e5757612e57612da4565b63ffffffff818116838216019080821115612e5757612e57612da4565b6001600160601b03818116838216019080821115612e5757612e57612da4565b634e487b7160e01b600052603160045260246000fdfe455243373231436865636b706f696e7461626c653a3a5f6d6f766544656c6567617465733a20616d6f756e74206f766572666c6f7773455243373231436865636b706f696e7461626c653a3a5f7772697465436865636b706f696e743a20626c6f636b206e756d62657220657863656564732033322062697473ddf252ad1be2c89b69c2b068fc378daa952ba7f163c4a11628f55a4df523b3ef455243373231436865636b706f696e7461626c653a3a766f746573546f44656c65676174653a20616d6f756e7420657863656564732039362062697473455243373231436865636b706f696e7461626c653a3a5f6d6f766544656c6567617465733a20616d6f756e7420756e646572666c6f7773a2646970667358221220c8287ca53c3e38665b09a5f3b1df246b2b3bb6bf22bbf088196dea66c663163964736f6c63430008130033516d5a69316e3739467157743274544c7743716979366e4c4d36784c475273455051354a6d52654a514b4e4e7a58",
  "linkReferences": {},
  "deployedLinkReferences": {}
}