{
  "_format": "hh-sol-artifact-1",
  "contractName": "Token",
  "sourceName": "contracts/Token.sol",
  "abi": [
    {
      "inputs": [
        {
          "internalType": "address",
          "name": "_foundersDAO",
          "type": "address"
        },
        {
          "internalType": "address",
          "name": "_foundersDAO2",
          "type": "address"
        },
        {
          "internalType": "address",
          "name": "_minter",
          "type": "address"
        },
        {
          "internalType": "contract IDescriptorMinimal",
          "name": "_descriptor",
          "type": "address"
        }
      ],
      "stateMutability": "nonpayable",
      "type": "constructor"
    },
    {
      "anonymous": false,
      "inputs": [
        {
          "indexed": true,
          "internalType": "address",
          "name": "owner",
          "type": "address"
        },
        {
          "indexed": true,
          "internalType": "address",
          "name": "approved",
          "type": "address"
        },
        {
          "indexed": true,
          "internalType": "uint256",
          "name": "tokenId",
          "type": "uint256"
        }
      ],
      "name": "Approval",
      "type": "event"
    },
    {
      "anonymous": false,
      "inputs": [
        {
          "indexed": true,
          "internalType": "address",
          "name": "owner",
          "type": "address"
        },
        {
          "indexed": true,
          "internalType": "address",
          "name": "operator",
          "type": "address"
        },
        {
          "indexed": false,
          "internalType": "bool",
          "name": "approved",
          "type": "bool"
        }
      ],
      "name": "ApprovalForAll",
      "type": "event"
    },
    {
      "anonymous": false,
      "inputs": [
        {
          "indexed": true,
          "internalType": "address",
          "name": "delegator",
          "type": "address"
        },
        {
          "indexed": true,
          "internalType": "address",
          "name": "fromDelegate",
          "type": "address"
        },
        {
          "indexed": true,
          "internalType": "address",
          "name": "toDelegate",
          "type": "address"
        }
      ],
      "name": "DelegateChanged",
      "type": "event"
    },
    {
      "anonymous": false,
      "inputs": [
        {
          "indexed": true,
          "internalType": "address",
          "name": "delegate",
          "type": "address"
        },
        {
          "indexed": false,
          "internalType": "uint256",
          "name": "previousBalance",
          "type": "uint256"
        },
        {
          "indexed": false,
          "internalType": "uint256",
          "name": "newBalance",
          "type": "uint256"
        }
      ],
      "name": "DelegateVotesChanged",
      "type": "event"
    },
    {
      "anonymous": false,
      "inputs": [],
      "name": "DescriptorLocked",
      "type": "event"
    },
    {
      "anonymous": false,
      "inputs": [
        {
          "indexed": false,
          "internalType": "contract IDescriptorMinimal",
          "name": "descriptor",
          "type": "address"
        }
      ],
      "name": "DescriptorUpdated",
      "type": "event"
    },
    {
      "anonymous": false,
      "inputs": [
        {
          "indexed": false,
          "internalType": "address",
          "name": "foundersDAO",
          "type": "address"
        }
      ],
      "name": "FoundersDAOUpdated",
      "type": "event"
    },
    {
      "anonymous": false,
      "inputs": [
        {
          "indexed": false,
          "internalType": "address",
          "name": "foundersDAO2",
          "type": "address"
        }
      ],
      "name": "FoundersDAOUpdated2",
      "type": "event"
    },
    {
      "anonymous": false,
      "inputs": [],
      "name": "MinterLocked",
      "type": "event"
    },
    {
      "anonymous": false,
      "inputs": [
        {
          "indexed": false,
          "internalType": "address",
          "name": "minter",
          "type": "address"
        }
      ],
      "name": "MinterUpdated",
      "type": "event"
    },
    {
      "anonymous": false,
      "inputs": [
        {
          "indexed": true,
          "internalType": "address",
          "name": "previousOwner",
          "type": "address"
        },
        {
          "indexed": true,
          "internalType": "address",
          "name": "newOwner",
          "type": "address"
        }
      ],
      "name": "OwnershipTransferred",
      "type": "event"
    },
    {
      "anonymous": false,
      "inputs": [
        {
          "indexed": true,
          "internalType": "uint256",
          "name": "tokenId",
          "type": "uint256"
        }
      ],
      "name": "TokenBurned",
      "type": "event"
    },
    {
      "anonymous": false,
      "inputs": [
        {
          "indexed": true,
          "internalType": "uint256",
          "name": "tokenId",
          "type": "uint256"
        }
      ],
      "name": "TokenCreated",
      "type": "event"
    },
    {
      "anonymous": false,
      "inputs": [
        {
          "indexed": true,
          "internalType": "address",
          "name": "from",
          "type": "address"
        },
        {
          "indexed": true,
          "internalType": "address",
          "name": "to",
          "type": "address"
        },
        {
          "indexed": true,
          "internalType": "uint256",
          "name": "tokenId",
          "type": "uint256"
        }
      ],
      "name": "Transfer",
      "type": "event"
    },
    {
      "inputs": [],
      "name": "DELEGATION_TYPEHASH",
      "outputs": [
        {
          "internalType": "bytes32",
          "name": "",
          "type": "bytes32"
        }
      ],
      "stateMutability": "view",
      "type": "function"
    },
    {
      "inputs": [],
      "name": "DOMAIN_TYPEHASH",
      "outputs": [
        {
          "internalType": "bytes32",
          "name": "",
          "type": "bytes32"
        }
      ],
      "stateMutability": "view",
      "type": "function"
    },
    {
      "inputs": [
        {
          "internalType": "address",
          "name": "to",
          "type": "address"
        },
        {
          "internalType": "uint256",
          "name": "tokenId",
          "type": "uint256"
        }
      ],
      "name": "approve",
      "outputs": [],
      "stateMutability": "nonpayable",
      "type": "function"
    },
    {
      "inputs": [
        {
          "internalType": "address",
          "name": "owner",
          "type": "address"
        }
      ],
      "name": "balanceOf",
      "outputs": [
        {
          "internalType": "uint256",
          "name": "",
          "type": "uint256"
        }
      ],
      "stateMutability": "view",
      "type": "function"
    },
    {
      "inputs": [
        {
          "internalType": "uint256",
          "name": "tokenId",
          "type": "uint256"
        }
      ],
      "name": "burn",
      "outputs": [],
      "stateMutability": "nonpayable",
      "type": "function"
    },
    {
      "inputs": [
        {
          "internalType": "address",
          "name": "",
          "type": "address"
        },
        {
          "internalType": "uint32",
          "name": "",
          "type": "uint32"
        }
      ],
      "name": "checkpoints",
      "outputs": [
        {
          "internalType": "uint32",
          "name": "fromBlock",
          "type": "uint32"
        },
        {
          "internalType": "uint96",
          "name": "votes",
          "type": "uint96"
        }
      ],
      "stateMutability": "view",
      "type": "function"
    },
    {
      "inputs": [],
      "name": "contractURI",
      "outputs": [
        {
          "internalType": "string",
          "name": "",
          "type": "string"
        }
      ],
      "stateMutability": "view",
      "type": "function"
    },
    {
      "inputs": [
        {
          "internalType": "uint256",
          "name": "tokenId",
          "type": "uint256"
        }
      ],
      "name": "dataURI",
      "outputs": [
        {
          "internalType": "string",
          "name": "",
          "type": "string"
        }
      ],
      "stateMutability": "view",
      "type": "function"
    },
    {
      "inputs": [],
      "name": "decimals",
      "outputs": [
        {
          "internalType": "uint8",
          "name": "",
          "type": "uint8"
        }
      ],
      "stateMutability": "view",
      "type": "function"
    },
    {
      "inputs": [
        {
          "internalType": "address",
          "name": "delegatee",
          "type": "address"
        }
      ],
      "name": "delegate",
      "outputs": [],
      "stateMutability": "nonpayable",
      "type": "function"
    },
    {
      "inputs": [
        {
          "internalType": "address",
          "name": "delegatee",
          "type": "address"
        },
        {
          "internalType": "uint256",
          "name": "nonce",
          "type": "uint256"
        },
        {
          "internalType": "uint256",
          "name": "expiry",
          "type": "uint256"
        },
        {
          "internalType": "uint8",
          "name": "v",
          "type": "uint8"
        },
        {
          "internalType": "bytes32",
          "name": "r",
          "type": "bytes32"
        },
        {
          "internalType": "bytes32",
          "name": "s",
          "type": "bytes32"
        }
      ],
      "name": "delegateBySig",
      "outputs": [],
      "stateMutability": "nonpayable",
      "type": "function"
    },
    {
      "inputs": [
        {
          "internalType": "address",
          "name": "delegator",
          "type": "address"
        }
      ],
      "name": "delegates",
      "outputs": [
        {
          "internalType": "address",
          "name": "",
          "type": "address"
        }
      ],
      "stateMutability": "view",
      "type": "function"
    },
    {
      "inputs": [],
      "name": "descriptor",
      "outputs": [
        {
          "internalType": "contract IDescriptorMinimal",
          "name": "",
          "type": "address"
        }
      ],
      "stateMutability": "view",
      "type": "function"
    },
    {
      "inputs": [],
      "name": "foundersDAO",
      "outputs": [
        {
          "internalType": "address",
          "name": "",
          "type": "address"
        }
      ],
      "stateMutability": "view",
      "type": "function"
    },
    {
      "inputs": [],
      "name": "foundersDAO2",
      "outputs": [
        {
          "internalType": "address",
          "name": "",
          "type": "address"
        }
      ],
      "stateMutability": "view",
      "type": "function"
    },
    {
      "inputs": [
        {
          "internalType": "uint256",
          "name": "tokenId",
          "type": "uint256"
        }
      ],
      "name": "getApproved",
      "outputs": [
        {
          "internalType": "address",
          "name": "",
          "type": "address"
        }
      ],
      "stateMutability": "view",
      "type": "function"
    },
    {
      "inputs": [
        {
          "internalType": "address",
          "name": "account",
          "type": "address"
        }
      ],
      "name": "getCurrentVotes",
      "outputs": [
        {
          "internalType": "uint96",
          "name": "",
          "type": "uint96"
        }
      ],
      "stateMutability": "view",
      "type": "function"
    },
    {
      "inputs": [
        {
          "internalType": "address",
          "name": "account",
          "type": "address"
        },
        {
          "internalType": "uint256",
          "name": "blockNumber",
          "type": "uint256"
        }
      ],
      "name": "getPriorVotes",
      "outputs": [
        {
          "internalType": "uint96",
          "name": "",
          "type": "uint96"
        }
      ],
      "stateMutability": "view",
      "type": "function"
    },
    {
      "inputs": [
        {
          "internalType": "address",
          "name": "owner",
          "type": "address"
        },
        {
          "internalType": "address",
          "name": "operator",
          "type": "address"
        }
      ],
      "name": "isApprovedForAll",
      "outputs": [
        {
          "internalType": "bool",
          "name": "",
          "type": "bool"
        }
      ],
      "stateMutability": "view",
      "type": "function"
    },
    {
      "inputs": [],
      "name": "isDescriptorLocked",
      "outputs": [
        {
          "internalType": "bool",
          "name": "",
          "type": "bool"
        }
      ],
      "stateMutability": "view",
      "type": "function"
    },
    {
      "inputs": [],
      "name": "isMinterLocked",
      "outputs": [
        {
          "internalType": "bool",
          "name": "",
          "type": "bool"
        }
      ],
      "stateMutability": "view",
      "type": "function"
    },
    {
      "inputs": [],
      "name": "lockDescriptor",
      "outputs": [],
      "stateMutability": "nonpayable",
      "type": "function"
    },
    {
      "inputs": [],
      "name": "lockMinter",
      "outputs": [],
      "stateMutability": "nonpayable",
      "type": "function"
    },
    {
      "inputs": [],
      "name": "mint",
      "outputs": [
        {
          "internalType": "uint256",
          "name": "",
          "type": "uint256"
        }
      ],
      "stateMutability": "nonpayable",
      "type": "function"
    },
    {
      "inputs": [],
      "name": "minter",
      "outputs": [
        {
          "internalType": "address",
          "name": "",
          "type": "address"
        }
      ],
      "stateMutability": "view",
      "type": "function"
    },
    {
      "inputs": [],
      "name": "name",
      "outputs": [
        {
          "internalType": "string",
          "name": "",
          "type": "string"
        }
      ],
      "stateMutability": "view",
      "type": "function"
    },
    {
      "inputs": [
        {
          "internalType": "address",
          "name": "",
          "type": "address"
        }
      ],
      "name": "nonces",
      "outputs": [
        {
          "internalType": "uint256",
          "name": "",
          "type": "uint256"
        }
      ],
      "stateMutability": "view",
      "type": "function"
    },
    {
      "inputs": [
        {
          "internalType": "address",
          "name": "",
          "type": "address"
        }
      ],
      "name": "numCheckpoints",
      "outputs": [
        {
          "internalType": "uint32",
          "name": "",
          "type": "uint32"
        }
      ],
      "stateMutability": "view",
      "type": "function"
    },
    {
      "inputs": [],
      "name": "owner",
      "outputs": [
        {
          "internalType": "address",
          "name": "",
          "type": "address"
        }
      ],
      "stateMutability": "view",
      "type": "function"
    },
    {
      "inputs": [
        {
          "internalType": "uint256",
          "name": "tokenId",
          "type": "uint256"
        }
      ],
      "name": "ownerOf",
      "outputs": [
        {
          "internalType": "address",
          "name": "",
          "type": "address"
        }
      ],
      "stateMutability": "view",
      "type": "function"
    },
    {
      "inputs": [],
      "name": "renounceOwnership",
      "outputs": [],
      "stateMutability": "nonpayable",
      "type": "function"
    },
    {
      "inputs": [
        {
          "internalType": "address",
          "name": "from",
          "type": "address"
        },
        {
          "internalType": "address",
          "name": "to",
          "type": "address"
        },
        {
          "internalType": "uint256",
          "name": "tokenId",
          "type": "uint256"
        }
      ],
      "name": "safeTransferFrom",
      "outputs": [],
      "stateMutability": "nonpayable",
      "type": "function"
    },
    {
      "inputs": [
        {
          "internalType": "address",
          "name": "from",
          "type": "address"
        },
        {
          "internalType": "address",
          "name": "to",
          "type": "address"
        },
        {
          "internalType": "uint256",
          "name": "tokenId",
          "type": "uint256"
        },
        {
          "internalType": "bytes",
          "name": "_data",
          "type": "bytes"
        }
      ],
      "name": "safeTransferFrom",
      "outputs": [],
      "stateMutability": "nonpayable",
      "type": "function"
    },
    {
      "inputs": [
        {
          "internalType": "address",
          "name": "operator",
          "type": "address"
        },
        {
          "internalType": "bool",
          "name": "approved",
          "type": "bool"
        }
      ],
      "name": "setApprovalForAll",
      "outputs": [],
      "stateMutability": "nonpayable",
      "type": "function"
    },
    {
      "inputs": [
        {
          "internalType": "string",
          "name": "newContractURIHash",
          "type": "string"
        }
      ],
      "name": "setContractURIHash",
      "outputs": [],
      "stateMutability": "nonpayable",
      "type": "function"
    },
    {
      "inputs": [
        {
          "internalType": "contract IDescriptorMinimal",
          "name": "_descriptor",
          "type": "address"
        }
      ],
      "name": "setDescriptor",
      "outputs": [],
      "stateMutability": "nonpayable",
      "type": "function"
    },
    {
      "inputs": [
        {
          "internalType": "address",
          "name": "_foundersDAO",
          "type": "address"
        }
      ],
      "name": "setFoundersDAO",
      "outputs": [],
      "stateMutability": "nonpayable",
      "type": "function"
    },
    {
      "inputs": [
        {
          "internalType": "address",
          "name": "_foundersDAO2",
          "type": "address"
        }
      ],
      "name": "setFoundersDAO2",
      "outputs": [],
      "stateMutability": "nonpayable",
      "type": "function"
    },
    {
      "inputs": [
        {
          "internalType": "address",
          "name": "_minter",
          "type": "address"
        }
      ],
      "name": "setMinter",
      "outputs": [],
      "stateMutability": "nonpayable",
      "type": "function"
    },
    {
      "inputs": [
        {
          "internalType": "bytes4",
          "name": "interfaceId",
          "type": "bytes4"
        }
      ],
      "name": "supportsInterface",
      "outputs": [
        {
          "internalType": "bool",
          "name": "",
          "type": "bool"
        }
      ],
      "stateMutability": "view",
      "type": "function"
    },
    {
      "inputs": [],
      "name": "symbol",
      "outputs": [
        {
          "internalType": "string",
          "name": "",
          "type": "string"
        }
      ],
      "stateMutability": "view",
      "type": "function"
    },
    {
      "inputs": [
        {
          "internalType": "uint256",
          "name": "index",
          "type": "uint256"
        }
      ],
      "name": "tokenByIndex",
      "outputs": [
        {
          "internalType": "uint256",
          "name": "",
          "type": "uint256"
        }
      ],
      "stateMutability": "view",
      "type": "function"
    },
    {
      "inputs": [
        {
          "internalType": "address",
          "name": "owner",
          "type": "address"
        },
        {
          "internalType": "uint256",
          "name": "index",
          "type": "uint256"
        }
      ],
      "name": "tokenOfOwnerByIndex",
      "outputs": [
        {
          "internalType": "uint256",
          "name": "",
          "type": "uint256"
        }
      ],
      "stateMutability": "view",
      "type": "function"
    },
    {
      "inputs": [
        {
          "internalType": "uint256",
          "name": "tokenId",
          "type": "uint256"
        }
      ],
      "name": "tokenURI",
      "outputs": [
        {
          "internalType": "string",
          "name": "",
          "type": "string"
        }
      ],
      "stateMutability": "view",
      "type": "function"
    },
    {
      "inputs": [],
      "name": "totalSupply",
      "outputs": [
        {
          "internalType": "uint256",
          "name": "",
          "type": "uint256"
        }
      ],
      "stateMutability": "view",
      "type": "function"
    },
    {
      "inputs": [
        {
          "internalType": "address",
          "name": "from",
          "type": "address"
        },
        {
          "internalType": "address",
          "name": "to",
          "type": "address"
        },
        {
          "internalType": "uint256",
          "name": "tokenId",
          "type": "uint256"
        }
      ],
      "name": "transferFrom",
      "outputs": [],
      "stateMutability": "nonpayable",
      "type": "function"
    },
    {
      "inputs": [
        {
          "internalType": "address",
          "name": "newOwner",
          "type": "address"
        }
      ],
      "name": "transferOwnership",
      "outputs": [],
      "stateMutability": "nonpayable",
      "type": "function"
    },
    {
      "inputs": [
        {
          "internalType": "address",
          "name": "delegator",
          "type": "address"
        }
      ],
      "name": "votesToDelegate",
      "outputs": [
        {
          "internalType": "uint96",
          "name": "",
          "type": "uint96"
        }
      ],
      "stateMutability": "view",
      "type": "function"
    }
  ],
  "bytecode": "0x60e0604052602e6080818152906200371f60a0396014906200002290826200021e565b503480156200003057600080fd5b506040516200374d3803806200374d833981016040819052620000539162000303565b6040518060400160405280600d81526020016c1359591a58d85b111053d39195609a1b81525060405180604001604052806005815260200164135113919560da1b815250620000b1620000ab6200012560201b60201c565b62000129565b6001620000bf83826200021e565b506002620000ce82826200021e565b5050600f80546001600160a01b039687166001600160a01b0319918216179091556010805495871695821695909517909455506011805492851692841692909217909155601280549190931691161790556200036b565b3390565b600080546001600160a01b038381166001600160a01b0319831681178455604051919092169283917f8be0079c531659141344cd1fd0a4f28419497f9722a3daafe3b4186f6b6457e09190a35050565b634e487b7160e01b600052604160045260246000fd5b600181811c90821680620001a457607f821691505b602082108103620001c557634e487b7160e01b600052602260045260246000fd5b50919050565b601f8211156200021957600081815260208120601f850160051c81016020861015620001f45750805b601f850160051c820191505b81811015620002155782815560010162000200565b5050505b505050565b81516001600160401b038111156200023a576200023a62000179565b62000252816200024b84546200018f565b84620001cb565b602080601f8311600181146200028a5760008415620002715750858301515b600019600386901b1c1916600185901b17855562000215565b600085815260208120601f198616915b82811015620002bb578886015182559484019460019091019084016200029a565b5085821015620002da5787850151600019600388901b60f8161c191681555b5050505050600190811b01905550565b6001600160a01b03811681146200030057600080fd5b50565b600080600080608085870312156200031a57600080fd5b84516200032781620002ea565b60208601519094506200033a81620002ea565b60408601519093506200034d81620002ea565b60608601519092506200036081620002ea565b939692955090935050565b6133a4806200037b6000396000f3fe608060405234801561001057600080fd5b50600436106102a05760003560e01c80636352211e11610167578063baedc1c4116100ce578063e9580e9111610087578063e9580e9114610631578063e985e9c514610644578063f1127ed814610680578063f2fde38b146106e7578063fa6e88bd146106fa578063fca3b5aa1461070d57600080fd5b8063baedc1c4146105b5578063c1b8e4e1146105c8578063c3cda520146105dc578063c87b56dd146105ef578063e7a324dc14610602578063e8a3d4851461062957600080fd5b80637ecebe00116101205780637ecebe00146105435780638da5cb5b1461056357806395d89b4114610574578063a22cb4651461057c578063b4b5ea571461058f578063b88d4fde146105a257600080fd5b80636352211e146104a75780636fcfff45146104ba57806370a08231146104f5578063715018a61461050857806376daebe114610510578063782d6fe11461051857600080fd5b806321dad6ac1161020b57806342842e0e116101c457806342842e0e1461043557806342966c68146104485780634f6ccce71461045b578063587cde1e1461046e5780635ac1e3bb146104815780635c19a95c1461049457600080fd5b806321dad6ac146103c757806323b872dd146103da5780632f745c59146103ed578063303e74df14610400578063313ce5671461041357806341b5d0de1461042d57600080fd5b8063104420bb1161025d578063104420bb146103485780631249c58b1461035b57806318160ddd146103715780631c0eb095146103795780631e688e101461038c57806320606b70146103a057600080fd5b806301b9a397146102a557806301ffc9a7146102ba57806306fdde03146102e257806307546172146102f7578063081812fc14610322578063095ea7b314610335575b600080fd5b6102b86102b33660046129cc565b610720565b005b6102cd6102c83660046129ff565b6107d3565b60405190151581526020015b60405180910390f35b6102ea6107fe565b6040516102d99190612a6c565b60115461030a906001600160a01b031681565b6040516001600160a01b0390911681526020016102d9565b61030a610330366004612a7f565b610890565b6102b8610343366004612a98565b610925565b6102b86103563660046129cc565b610a3a565b610363610ae2565b6040519081526020016102d9565b600954610363565b60105461030a906001600160a01b031681565b6012546102cd90600160a01b900460ff1681565b6103637f8cad95687ba82c2ce50e74f7b754645e5117c3a5bec8151c0726d5857980a86681565b6102b86103d53660046129cc565b610bd0565b6102b86103e8366004612ac4565b610c78565b6103636103fb366004612a98565b610ca9565b60125461030a906001600160a01b031681565b61041b600081565b60405160ff90911681526020016102d9565b6102b8610d3f565b6102b8610443366004612ac4565b610dd6565b6102b8610456366004612a7f565b610df1565b610363610469366004612a7f565b610e7d565b61030a61047c3660046129cc565b610f10565b6102ea61048f366004612a7f565b610f42565b6102b86104a23660046129cc565b610feb565b61030a6104b5366004612a7f565b611009565b6104e06104c83660046129cc565b600d6020526000908152604090205463ffffffff1681565b60405163ffffffff90911681526020016102d9565b6103636105033660046129cc565b611080565b6102b8611107565b6102b861111b565b61052b610526366004612a98565b6111ae565b6040516001600160601b0390911681526020016102d9565b6103636105513660046129cc565b600e6020526000908152604090205481565b6000546001600160a01b031661030a565b6102ea61144e565b6102b861058a366004612b05565b61145d565b61052b61059d3660046129cc565b611521565b6102b86105b0366004612bf0565b61159e565b6102b86105c3366004612c70565b6115d6565b6012546102cd90600160a81b900460ff1681565b6102b86105ea366004612cb9565b6115ee565b6102ea6105fd366004612a7f565b6118ec565b6103637fe48329057bfd03d55e49b547132e39cffd9c1820ad7b9d4c5307691425d15adf81565b6102ea611954565b61052b61063f3660046129cc565b61197c565b6102cd610652366004612d1b565b6001600160a01b03918216600090815260066020908152604080832093909416825291909152205460ff1690565b6106c361068e366004612d49565b600c60209081526000928352604080842090915290825290205463ffffffff811690600160201b90046001600160601b031682565b6040805163ffffffff90931683526001600160601b039091166020830152016102d9565b6102b86106f53660046129cc565b6119a8565b600f5461030a906001600160a01b031681565b6102b861071b3660046129cc565b611a1e565b610728611ac1565b601254600160a81b900460ff161561077e5760405162461bcd60e51b815260206004820152601460248201527311195cd8dc9a5c1d1bdc881a5cc81b1bd8dad95960621b60448201526064015b60405180910390fd5b601280546001600160a01b0319166001600160a01b0383169081179091556040519081527f6e66ab22238a5471005895947c8f57db923c2a9c9c73180eff80864c21295c1b906020015b60405180910390a150565b60006001600160e01b0319821663780e9d6360e01b14806107f857506107f882611b1b565b92915050565b60606001805461080d90612d80565b80601f016020809104026020016040519081016040528092919081815260200182805461083990612d80565b80156108865780601f1061085b57610100808354040283529160200191610886565b820191906000526020600020905b81548152906001019060200180831161086957829003601f168201915b5050505050905090565b6000818152600360205260408120546001600160a01b03166109095760405162461bcd60e51b815260206004820152602c60248201527f4552433732313a20617070726f76656420717565727920666f72206e6f6e657860448201526b34b9ba32b73a103a37b5b2b760a11b6064820152608401610775565b506000908152600560205260409020546001600160a01b031690565b600061093082611009565b9050806001600160a01b0316836001600160a01b03160361099d5760405162461bcd60e51b815260206004820152602160248201527f4552433732313a20617070726f76616c20746f2063757272656e74206f776e656044820152603960f91b6064820152608401610775565b336001600160a01b03821614806109b957506109b98133610652565b610a2b5760405162461bcd60e51b815260206004820152603860248201527f4552433732313a20617070726f76652063616c6c6572206973206e6f74206f7760448201527f6e6572206e6f7220617070726f76656420666f7220616c6c00000000000000006064820152608401610775565b610a358383611b6b565b505050565b600f546001600160a01b03163314610a945760405162461bcd60e51b815260206004820152601e60248201527f53656e646572206973206e6f742074686520666f756e646572732044414f00006044820152606401610775565b600f80546001600160a01b0319166001600160a01b0383169081179091556040519081527f43a23946487162e5425d76e9f4942546b64337f895ba2cb83e8198ad221f3a21906020016107c8565b6011546000906001600160a01b03163314610b3a5760405162461bcd60e51b815260206004820152601860248201527729b2b73232b91034b9903737ba103a34329036b4b73a32b960411b6044820152606401610775565b61071c60135411158015610b5a5750600a601354610b589190612dd0565b155b15610bab57600f5460138054610b88926001600160a01b0316916000610b7f83612dfa565b91905055611bd9565b5060105460138054610ba9926001600160a01b0316916000610b7f83612dfa565b505b60115460138054610bcb926001600160a01b0316916000610b7f83612dfa565b905090565b600f546001600160a01b03163314610c2a5760405162461bcd60e51b815260206004820152601e60248201527f53656e646572206973206e6f742074686520666f756e646572732044414f00006044820152606401610775565b601080546001600160a01b0319166001600160a01b0383169081179091556040519081527f359f5fee4c34af45c903a65f89a0d0232a66c107520b8df861a08200f31b4bfe906020016107c8565b610c823382611c28565b610c9e5760405162461bcd60e51b815260040161077590612e13565b610a35838383611d1f565b6000610cb483611080565b8210610d165760405162461bcd60e51b815260206004820152602b60248201527f455243373231456e756d657261626c653a206f776e657220696e646578206f7560448201526a74206f6620626f756e647360a81b6064820152608401610775565b506001600160a01b03919091166000908152600760209081526040808320938352929052205490565b610d47611ac1565b601254600160a81b900460ff1615610d985760405162461bcd60e51b815260206004820152601460248201527311195cd8dc9a5c1d1bdc881a5cc81b1bd8dad95960621b6044820152606401610775565b6012805460ff60a81b1916600160a81b1790556040517f593e31e306c198bef259d839f7c6dc4ff7fc10c07f76fab193a210b03704105f90600090a1565b610a358383836040518060200160405280600081525061159e565b6011546001600160a01b03163314610e465760405162461bcd60e51b815260206004820152601860248201527729b2b73232b91034b9903737ba103a34329036b4b73a32b960411b6044820152606401610775565b610e4f81611eb8565b60405181907f0c526103b8f47af5516191d0c89a598755bd00faa211a3cb52e4c2cc782f7fe290600090a250565b6000610e8860095490565b8210610eeb5760405162461bcd60e51b815260206004820152602c60248201527f455243373231456e756d657261626c653a20676c6f62616c20696e646578206f60448201526b7574206f6620626f756e647360a01b6064820152608401610775565b60098281548110610efe57610efe612e64565b90600052602060002001549050919050565b6001600160a01b038082166000908152600b60205260408120549091168015610f395780610f3b565b825b9392505050565b6000818152600360205260409020546060906001600160a01b0316610f795760405162461bcd60e51b815260040161077590612e7a565b601254604051635ac1e3bb60e01b8152600481018490526001600160a01b0390911690635ac1e3bb906024015b600060405180830381865afa158015610fc3573d6000803e3d6000fd5b505050506040513d6000823e601f3d908101601f191682016040526107f89190810190612ec8565b6001600160a01b038116610ffc5750335b6110063382611f4d565b50565b6000818152600360205260408120546001600160a01b0316806107f85760405162461bcd60e51b815260206004820152602960248201527f4552433732313a206f776e657220717565727920666f72206e6f6e657869737460448201526832b73a103a37b5b2b760b91b6064820152608401610775565b60006001600160a01b0382166110eb5760405162461bcd60e51b815260206004820152602a60248201527f4552433732313a2062616c616e636520717565727920666f7220746865207a65604482015269726f206164647265737360b01b6064820152608401610775565b506001600160a01b031660009081526004602052604090205490565b61110f611ac1565b6111196000611fcd565b565b611123611ac1565b601254600160a01b900460ff16156111705760405162461bcd60e51b815260206004820152601060248201526f135a5b9d195c881a5cc81b1bd8dad95960821b6044820152606401610775565b6012805460ff60a01b1916600160a01b1790556040517f192417b3f16b1ce69e0c59b0376549666650245ffc05e4b2569089dda8589b6690600090a1565b60004382106112255760405162461bcd60e51b815260206004820152603760248201527f455243373231436865636b706f696e7461626c653a3a6765745072696f72566f60448201527f7465733a206e6f74207965742064657465726d696e65640000000000000000006064820152608401610775565b6001600160a01b0383166000908152600d602052604081205463ffffffff16908190036112565760009150506107f8565b6001600160a01b0384166000908152600c60205260408120849161127b600185612f3f565b63ffffffff908116825260208201929092526040016000205416116112ee576001600160a01b0384166000908152600c60205260408120906112be600184612f3f565b63ffffffff168152602081019190915260400160002054600160201b90046001600160601b031691506107f89050565b6001600160a01b0384166000908152600c6020908152604080832083805290915290205463ffffffff168310156113295760009150506107f8565b600080611337600184612f3f565b90505b8163ffffffff168163ffffffff161115611409576000600261135c8484612f3f565b6113669190612f63565b6113709083612f3f565b6001600160a01b0388166000908152600c6020908152604080832063ffffffff858116855290835292819020815180830190925254928316808252600160201b9093046001600160601b0316918101919091529192508790036113dd576020015194506107f89350505050565b805163ffffffff168711156113f457819350611402565b6113ff600183612f3f565b92505b505061133a565b506001600160a01b0385166000908152600c6020908152604080832063ffffffff909416835292905220546001600160601b03600160201b9091041691505092915050565b60606002805461080d90612d80565b336001600160a01b038316036114b55760405162461bcd60e51b815260206004820152601960248201527f4552433732313a20617070726f766520746f2063616c6c6572000000000000006044820152606401610775565b3360008181526006602090815260408083206001600160a01b03871680855290835292819020805460ff191686151590811790915590519081529192917f17307eab39ab6107e8899845ad3d59bd9653f200f220920489ca2b5937696c31910160405180910390a35050565b6001600160a01b0381166000908152600d602052604081205463ffffffff168061154c576000610f3b565b6001600160a01b0383166000908152600c6020526040812090611570600184612f3f565b63ffffffff168152602081019190915260400160002054600160201b90046001600160601b03169392505050565b6115a83383611c28565b6115c45760405162461bcd60e51b815260040161077590612e13565b6115d08484848461201d565b50505050565b6115de611ac1565b60146115ea8282612fcc565b5050565b60007f8cad95687ba82c2ce50e74f7b754645e5117c3a5bec8151c0726d5857980a8666116196107fe565b805190602001206116274690565b60408051602080820195909552808201939093526060830191909152306080808401919091528151808403909101815260a0830182528051908401207fe48329057bfd03d55e49b547132e39cffd9c1820ad7b9d4c5307691425d15adf60c08401526001600160a01b038b1660e084015261010083018a90526101208084018a90528251808503909101815261014084019092528151919093012061190160f01b610160830152610162820183905261018282018190529192506000906101a20160408051601f198184030181528282528051602091820120600080855291840180845281905260ff8a169284019290925260608301889052608083018790529092509060019060a0016020604051602081039080840390855afa158015611753573d6000803e3d6000fd5b5050604051601f1901519150506001600160a01b0381166117d55760405162461bcd60e51b815260206004820152603660248201527f455243373231436865636b706f696e7461626c653a3a64656c656761746542796044820152755369673a20696e76616c6964207369676e617475726560501b6064820152608401610775565b6001600160a01b0381166000908152600e602052604081208054916117f983612dfa565b9190505589146118665760405162461bcd60e51b815260206004820152603260248201527f455243373231436865636b706f696e7461626c653a3a64656c656761746542796044820152715369673a20696e76616c6964206e6f6e636560701b6064820152608401610775565b874211156118d55760405162461bcd60e51b815260206004820152603660248201527f455243373231436865636b706f696e7461626c653a3a64656c6567617465427960448201527514da59ce881cda59db985d1d5c9948195e1c1a5c995960521b6064820152608401610775565b6118df818b611f4d565b505050505b505050505050565b6000818152600360205260409020546060906001600160a01b03166119235760405162461bcd60e51b815260040161077590612e7a565b60125460405163c87b56dd60e01b8152600481018490526001600160a01b039091169063c87b56dd90602401610fa6565b60606014604051602001611968919061308c565b604051602081830303815290604052905090565b60006107f861198a83611080565b6040518060600160405280603d81526020016132fb603d9139612050565b6119b0611ac1565b6001600160a01b038116611a155760405162461bcd60e51b815260206004820152602660248201527f4f776e61626c653a206e6577206f776e657220697320746865207a65726f206160448201526564647265737360d01b6064820152608401610775565b61100681611fcd565b611a26611ac1565b601254600160a01b900460ff1615611a735760405162461bcd60e51b815260206004820152601060248201526f135a5b9d195c881a5cc81b1bd8dad95960821b6044820152606401610775565b601180546001600160a01b0319166001600160a01b0383169081179091556040519081527fad0f299ec81a386c98df0ac27dae11dd020ed1b56963c53a7292e7a3a314539a906020016107c8565b6000546001600160a01b031633146111195760405162461bcd60e51b815260206004820181905260248201527f4f776e61626c653a2063616c6c6572206973206e6f7420746865206f776e65726044820152606401610775565b60006001600160e01b031982166380ac58cd60e01b1480611b4c57506001600160e01b03198216635b5e139f60e01b145b806107f857506301ffc9a760e01b6001600160e01b03198316146107f8565b600081815260056020526040902080546001600160a01b0319166001600160a01b0384169081179091558190611ba082611009565b6001600160a01b03167f8c5be1e5ebec7d5bd14f71427d1e84f3dd0314c0f7b2291e5b200ac8c7c3b92560405160405180910390a45050565b6000611bf7611bf06000546001600160a01b031690565b848461207f565b60405182907f5871761b381266e7e47309f0821d5b396364ebb6371d878871cac5393cb93ea890600090a250919050565b6000818152600360205260408120546001600160a01b0316611ca15760405162461bcd60e51b815260206004820152602c60248201527f4552433732313a206f70657261746f7220717565727920666f72206e6f6e657860448201526b34b9ba32b73a103a37b5b2b760a11b6064820152608401610775565b6000611cac83611009565b9050806001600160a01b0316846001600160a01b03161480611ce75750836001600160a01b0316611cdc84610890565b6001600160a01b0316145b80611d1757506001600160a01b0380821660009081526006602090815260408083209388168352929052205460ff165b949350505050565b826001600160a01b0316611d3282611009565b6001600160a01b031614611d9a5760405162461bcd60e51b815260206004820152602960248201527f4552433732313a207472616e73666572206f6620746f6b656e2074686174206960448201526839903737ba1037bbb760b91b6064820152608401610775565b6001600160a01b038216611dfc5760405162461bcd60e51b8152602060048201526024808201527f4552433732313a207472616e7366657220746f20746865207a65726f206164646044820152637265737360e01b6064820152608401610775565b611e078383836121f1565b611e12600082611b6b565b6001600160a01b0383166000908152600460205260408120805460019290611e3b90849061311b565b90915550506001600160a01b0382166000908152600460205260408120805460019290611e6990849061312e565b909155505060008181526003602052604080822080546001600160a01b0319166001600160a01b0386811691821790925591518493918716916000805160206132db83398151915291a4505050565b6000611ec382611009565b9050611ed1816000846121f1565b611edc600083611b6b565b6001600160a01b0381166000908152600460205260408120805460019290611f0590849061311b565b909155505060008281526003602052604080822080546001600160a01b0319169055518391906001600160a01b038416906000805160206132db833981519152908390a45050565b6000611f5883610f10565b6001600160a01b038481166000818152600b602052604080822080546001600160a01b031916888616908117909155905194955093928516927f3134e8a2e6d97e929a7e54011ea5485d7d196dd5f0ba4d4ef95803e8e3fc257f9190a46000611fc08461197c565b90506115d0828483612214565b600080546001600160a01b038381166001600160a01b0319831681178455604051919092169283917f8be0079c531659141344cd1fd0a4f28419497f9722a3daafe3b4186f6b6457e09190a35050565b612028848484611d1f565b612034848484846123c0565b6115d05760405162461bcd60e51b815260040161077590613141565b600081600160601b84106120775760405162461bcd60e51b81526004016107759190612a6c565b509192915050565b6001600160a01b0382166120d55760405162461bcd60e51b815260206004820181905260248201527f4552433732313a206d696e7420746f20746865207a65726f20616464726573736044820152606401610775565b6000818152600360205260409020546001600160a01b03161561213a5760405162461bcd60e51b815260206004820152601c60248201527f4552433732313a20746f6b656e20616c7265616479206d696e746564000000006044820152606401610775565b612146600083836121f1565b6001600160a01b038216600090815260046020526040812080546001929061216f90849061312e565b909155505060008181526003602052604080822080546001600160a01b0319166001600160a01b03868116919091179091559051839291861691906000805160206132db833981519152908290a480826001600160a01b0316846001600160a01b03166000805160206132db83398151915260405160405180910390a4505050565b6121fc8383836124c1565b610a3561220884610f10565b61221184610f10565b60015b816001600160a01b0316836001600160a01b03161415801561223f57506000816001600160601b0316115b15610a35576001600160a01b03831615612304576001600160a01b0383166000908152600d602052604081205463ffffffff16908161227f5760006122cb565b6001600160a01b0385166000908152600c60205260408120906122a3600185612f3f565b63ffffffff168152602081019190915260400160002054600160201b90046001600160601b03165b905060006122f2828560405180606001604052806037815260200161333860379139612579565b9050612300868484846125bb565b5050505b6001600160a01b03821615610a35576001600160a01b0382166000908152600d602052604081205463ffffffff16908161233f57600061238b565b6001600160a01b0384166000908152600c6020526040812090612363600185612f3f565b63ffffffff168152602081019190915260400160002054600160201b90046001600160601b03165b905060006123b28285604051806060016040528060368152602001613261603691396127b3565b90506118e4858484846125bb565b60006001600160a01b0384163b156124b657604051630a85bd0160e11b81526001600160a01b0385169063150b7a0290612404903390899088908890600401613193565b6020604051808303816000875af192505050801561243f575060408051601f3d908101601f1916820190925261243c918101906131d0565b60015b61249c573d80801561246d576040519150601f19603f3d011682016040523d82523d6000602084013e612472565b606091505b5080516000036124945760405162461bcd60e51b815260040161077590613141565b805181602001fd5b6001600160e01b031916630a85bd0160e11b149050611d17565b506001949350505050565b6001600160a01b03831661251c5761251781600980546000838152600a60205260408120829055600182018355919091527f6e1540171b6c0c960b71a7020d9f60077f6af931a8bbf590da0223dacf75c7af0155565b61253f565b816001600160a01b0316836001600160a01b03161461253f5761253f8382612800565b6001600160a01b03821661255657610a358161289d565b826001600160a01b0316826001600160a01b031614610a3557610a35828261294c565b6000836001600160601b0316836001600160601b0316111582906125b05760405162461bcd60e51b81526004016107759190612a6c565b50611d1783856131ed565b60006125df4360405180608001604052806044815260200161329760449139612990565b905060008463ffffffff1611801561263957506001600160a01b0385166000908152600c6020526040812063ffffffff83169161261d600188612f3f565b63ffffffff908116825260208201929092526040016000205416145b156126ad576001600160a01b0385166000908152600c602052604081208391612663600188612f3f565b63ffffffff168152602081019190915260400160002080546001600160601b0392909216600160201b026fffffffffffffffffffffffff000000001990921691909117905561275e565b60408051808201825263ffffffff80841682526001600160601b0380861660208085019182526001600160a01b038b166000908152600c82528681208b8616825290915294909420925183549451909116600160201b026fffffffffffffffffffffffffffffffff1990941691161791909117905561272d84600161320d565b6001600160a01b0386166000908152600d60205260409020805463ffffffff191663ffffffff929092169190911790555b604080516001600160601b038086168252841660208201526001600160a01b038716917fdec2bacdd2f05b59de34da9b523dff8be42e5e38e818c82fdb0bae774387a724910160405180910390a25050505050565b6000806127c0848661322a565b9050846001600160601b0316816001600160601b0316101583906127f75760405162461bcd60e51b81526004016107759190612a6c565b50949350505050565b6000600161280d84611080565b612817919061311b565b60008381526008602052604090205490915080821461286a576001600160a01b03841660009081526007602090815260408083208584528252808320548484528184208190558352600890915290208190555b5060009182526008602090815260408084208490556001600160a01b039094168352600781528383209183525290812055565b6009546000906128af9060019061311b565b6000838152600a6020526040812054600980549394509092849081106128d7576128d7612e64565b9060005260206000200154905080600983815481106128f8576128f8612e64565b6000918252602080832090910192909255828152600a909152604080822084905585825281205560098054806129305761293061324a565b6001900381819060005260206000200160009055905550505050565b600061295783611080565b6001600160a01b039093166000908152600760209081526040808320868452825280832085905593825260089052919091209190915550565b600081600160201b84106120775760405162461bcd60e51b81526004016107759190612a6c565b6001600160a01b038116811461100657600080fd5b6000602082840312156129de57600080fd5b8135610f3b816129b7565b6001600160e01b03198116811461100657600080fd5b600060208284031215612a1157600080fd5b8135610f3b816129e9565b60005b83811015612a37578181015183820152602001612a1f565b50506000910152565b60008151808452612a58816020860160208601612a1c565b601f01601f19169290920160200192915050565b602081526000610f3b6020830184612a40565b600060208284031215612a9157600080fd5b5035919050565b60008060408385031215612aab57600080fd5b8235612ab6816129b7565b946020939093013593505050565b600080600060608486031215612ad957600080fd5b8335612ae4816129b7565b92506020840135612af4816129b7565b929592945050506040919091013590565b60008060408385031215612b1857600080fd5b8235612b23816129b7565b915060208301358015158114612b3857600080fd5b809150509250929050565b634e487b7160e01b600052604160045260246000fd5b604051601f8201601f1916810167ffffffffffffffff81118282101715612b8257612b82612b43565b604052919050565b600067ffffffffffffffff821115612ba457612ba4612b43565b50601f01601f191660200190565b6000612bc5612bc084612b8a565b612b59565b9050828152838383011115612bd957600080fd5b828260208301376000602084830101529392505050565b60008060008060808587031215612c0657600080fd5b8435612c11816129b7565b93506020850135612c21816129b7565b925060408501359150606085013567ffffffffffffffff811115612c4457600080fd5b8501601f81018713612c5557600080fd5b612c6487823560208401612bb2565b91505092959194509250565b600060208284031215612c8257600080fd5b813567ffffffffffffffff811115612c9957600080fd5b8201601f81018413612caa57600080fd5b611d1784823560208401612bb2565b60008060008060008060c08789031215612cd257600080fd5b8635612cdd816129b7565b95506020870135945060408701359350606087013560ff81168114612d0157600080fd5b9598949750929560808101359460a0909101359350915050565b60008060408385031215612d2e57600080fd5b8235612d39816129b7565b91506020830135612b38816129b7565b60008060408385031215612d5c57600080fd5b8235612d67816129b7565b9150602083013563ffffffff81168114612b3857600080fd5b600181811c90821680612d9457607f821691505b602082108103612db457634e487b7160e01b600052602260045260246000fd5b50919050565b634e487b7160e01b600052601260045260246000fd5b600082612ddf57612ddf612dba565b500690565b634e487b7160e01b600052601160045260246000fd5b600060018201612e0c57612e0c612de4565b5060010190565b60208082526031908201527f4552433732313a207472616e736665722063616c6c6572206973206e6f74206f6040820152701ddb995c881b9bdc88185c1c1c9bdd9959607a1b606082015260800190565b634e487b7160e01b600052603260045260246000fd5b6020808252602e908201527f4d65646963616c44414f4e46543a2055524920717565727920666f72206e6f6e60408201526d32bc34b9ba32b73a103a37b5b2b760911b606082015260800190565b600060208284031215612eda57600080fd5b815167ffffffffffffffff811115612ef157600080fd5b8201601f81018413612f0257600080fd5b8051612f10612bc082612b8a565b818152856020838501011115612f2557600080fd5b612f36826020830160208601612a1c565b95945050505050565b63ffffffff828116828216039080821115612f5c57612f5c612de4565b5092915050565b600063ffffffff80841680612f7a57612f7a612dba565b92169190910492915050565b601f821115610a3557600081815260208120601f850160051c81016020861015612fad5750805b601f850160051c820191505b818110156118e457828155600101612fb9565b815167ffffffffffffffff811115612fe657612fe6612b43565b612ffa81612ff48454612d80565b84612f86565b602080601f83116001811461302f57600084156130175750858301515b600019600386901b1c1916600185901b1785556118e4565b600085815260208120601f198616915b8281101561305e5788860151825594840194600190910190840161303f565b508582101561307c5787850151600019600388901b60f8161c191681555b5050505050600190811b01905550565b66697066733a2f2f60c81b815260006007600084546130aa81612d80565b600182811680156130c257600181146130db5761310e565b60ff19841688870152821515830288018601945061310e565b8860005260208060002060005b858110156131035781548b82018a01529084019082016130e8565b505050858389010194505b5092979650505050505050565b818103818111156107f8576107f8612de4565b808201808211156107f8576107f8612de4565b60208082526032908201527f4552433732313a207472616e7366657220746f206e6f6e20455243373231526560408201527131b2b4bb32b91034b6b83632b6b2b73a32b960711b606082015260800190565b6001600160a01b03858116825284166020820152604081018390526080606082018190526000906131c690830184612a40565b9695505050505050565b6000602082840312156131e257600080fd5b8151610f3b816129e9565b6001600160601b03828116828216039080821115612f5c57612f5c612de4565b63ffffffff818116838216019080821115612f5c57612f5c612de4565b6001600160601b03818116838216019080821115612f5c57612f5c612de4565b634e487b7160e01b600052603160045260246000fdfe455243373231436865636b706f696e7461626c653a3a5f6d6f766544656c6567617465733a20616d6f756e74206f766572666c6f7773455243373231436865636b706f696e7461626c653a3a5f7772697465436865636b706f696e743a20626c6f636b206e756d62657220657863656564732033322062697473ddf252ad1be2c89b69c2b068fc378daa952ba7f163c4a11628f55a4df523b3ef455243373231436865636b706f696e7461626c653a3a766f746573546f44656c65676174653a20616d6f756e7420657863656564732039362062697473455243373231436865636b706f696e7461626c653a3a5f6d6f766544656c6567617465733a20616d6f756e7420756e646572666c6f7773a2646970667358221220071c35878839164a80ec3372b043559b2f13fbdbe5b57b24566030640237242064736f6c63430008120033516d5a69316e3739467157743274544c7743716979366e4c4d36784c475273455051354a6d52654a514b4e4e7a58",
  "linkReferences": {},
  "deployedLinkReferences": {}
}